{
  "_format": "hh-sol-artifact-1",
  "contractName": "AdlHandler",
  "sourceName": "contracts/exchange/AdlHandler.sol",
  "abi": [
    {
      "inputs": [
        {
          "internalType": "contract RoleStore",
          "name": "_roleStore",
          "type": "address"
        },
        {
          "internalType": "contract DataStore",
          "name": "_dataStore",
          "type": "address"
        },
        {
          "internalType": "contract EventEmitter",
          "name": "_eventEmitter",
          "type": "address"
        },
        {
          "internalType": "contract OrderVault",
          "name": "_orderVault",
          "type": "address"
        },
        {
          "internalType": "contract Oracle",
          "name": "_oracle",
          "type": "address"
        },
        {
          "internalType": "contract SwapHandler",
          "name": "_swapHandler",
          "type": "address"
        },
        {
          "internalType": "contract IReferralStorage",
          "name": "_referralStorage",
          "type": "address"
        }
      ],
      "stateMutability": "nonpayable",
      "type": "constructor"
    },
    {
      "inputs": [
        {
          "internalType": "int256",
          "name": "pnlToPoolFactor",
          "type": "int256"
        },
        {
          "internalType": "uint256",
          "name": "maxPnlFactorForAdl",
          "type": "uint256"
        }
      ],
      "name": "AdlNotRequired",
      "type": "error"
    },
    {
      "inputs": [
        {
          "internalType": "uint256[]",
          "name": "compactedValues",
          "type": "uint256[]"
        },
        {
          "internalType": "uint256",
          "name": "index",
          "type": "uint256"
        },
        {
          "internalType": "uint256",
          "name": "slotIndex",
          "type": "uint256"
        },
        {
          "internalType": "string",
          "name": "label",
          "type": "string"
        }
      ],
      "name": "CompactedArrayOutOfBounds",
      "type": "error"
    },
    {
      "inputs": [
        {
          "internalType": "bytes32",
          "name": "key",
          "type": "bytes32"
        }
      ],
      "name": "DisabledFeature",
      "type": "error"
    },
    {
      "inputs": [
        {
          "internalType": "address",
          "name": "market",
          "type": "address"
        }
      ],
      "name": "DisabledMarket",
      "type": "error"
    },
    {
      "inputs": [
        {
          "internalType": "uint256",
          "name": "index",
          "type": "uint256"
        }
      ],
      "name": "EmptyCompactedBlockNumber",
      "type": "error"
    },
    {
      "inputs": [],
      "name": "EmptyMarket",
      "type": "error"
    },
    {
      "inputs": [
        {
          "internalType": "int256",
          "name": "nextPnlToPoolFactor",
          "type": "int256"
        },
        {
          "internalType": "int256",
          "name": "pnlToPoolFactor",
          "type": "int256"
        }
      ],
      "name": "InvalidAdl",
      "type": "error"
    },
    {
      "inputs": [
        {
          "internalType": "int256",
          "name": "nextPnlToPoolFactor",
          "type": "int256"
        },
        {
          "internalType": "uint256",
          "name": "minPnlFactorForAdl",
          "type": "uint256"
        }
      ],
      "name": "PnlOvercorrected",
      "type": "error"
    },
    {
      "inputs": [
        {
          "internalType": "address",
          "name": "msgSender",
          "type": "address"
        },
        {
          "internalType": "string",
          "name": "role",
          "type": "string"
        }
      ],
      "name": "Unauthorized",
      "type": "error"
    },
    {
      "anonymous": false,
      "inputs": [
        {
          "indexed": false,
          "internalType": "string",
          "name": "reason",
          "type": "string"
        }
      ],
      "name": "OracleError",
      "type": "event"
    },
    {
      "inputs": [],
      "name": "dataStore",
      "outputs": [
        {
          "internalType": "contract DataStore",
          "name": "",
          "type": "address"
        }
      ],
      "stateMutability": "view",
      "type": "function"
    },
    {
      "inputs": [],
      "name": "eventEmitter",
      "outputs": [
        {
          "internalType": "contract EventEmitter",
          "name": "",
          "type": "address"
        }
      ],
      "stateMutability": "view",
      "type": "function"
    },
    {
      "inputs": [
        {
          "internalType": "address",
          "name": "account",
          "type": "address"
        },
        {
          "internalType": "address",
          "name": "market",
          "type": "address"
        },
        {
          "internalType": "address",
          "name": "collateralToken",
          "type": "address"
        },
        {
          "internalType": "bool",
          "name": "isLong",
          "type": "bool"
        },
        {
          "internalType": "uint256",
          "name": "sizeDeltaUsd",
          "type": "uint256"
        },
        {
          "components": [
            {
              "internalType": "uint256",
              "name": "signerInfo",
              "type": "uint256"
            },
            {
              "internalType": "address[]",
              "name": "tokens",
              "type": "address[]"
            },
            {
              "internalType": "uint256[]",
              "name": "compactedMinOracleBlockNumbers",
              "type": "uint256[]"
            },
            {
              "internalType": "uint256[]",
              "name": "compactedMaxOracleBlockNumbers",
              "type": "uint256[]"
            },
            {
              "internalType": "uint256[]",
              "name": "compactedOracleTimestamps",
              "type": "uint256[]"
            },
            {
              "internalType": "uint256[]",
              "name": "compactedDecimals",
              "type": "uint256[]"
            },
            {
              "internalType": "uint256[]",
              "name": "compactedMinPrices",
              "type": "uint256[]"
            },
            {
              "internalType": "uint256[]",
              "name": "compactedMinPricesIndexes",
              "type": "uint256[]"
            },
            {
              "internalType": "uint256[]",
              "name": "compactedMaxPrices",
              "type": "uint256[]"
            },
            {
              "internalType": "uint256[]",
              "name": "compactedMaxPricesIndexes",
              "type": "uint256[]"
            },
            {
              "internalType": "bytes[]",
              "name": "signatures",
              "type": "bytes[]"
            },
            {
              "internalType": "address[]",
              "name": "priceFeedTokens",
              "type": "address[]"
            }
          ],
          "internalType": "struct OracleUtils.SetPricesParams",
          "name": "oracleParams",
          "type": "tuple"
        }
      ],
      "name": "executeAdl",
      "outputs": [],
      "stateMutability": "nonpayable",
      "type": "function"
    },
    {
      "inputs": [],
      "name": "oracle",
      "outputs": [
        {
          "internalType": "contract Oracle",
          "name": "",
          "type": "address"
        }
      ],
      "stateMutability": "view",
      "type": "function"
    },
    {
      "inputs": [],
      "name": "orderVault",
      "outputs": [
        {
          "internalType": "contract OrderVault",
          "name": "",
          "type": "address"
        }
      ],
      "stateMutability": "view",
      "type": "function"
    },
    {
      "inputs": [],
      "name": "referralStorage",
      "outputs": [
        {
          "internalType": "contract IReferralStorage",
          "name": "",
          "type": "address"
        }
      ],
      "stateMutability": "view",
      "type": "function"
    },
    {
      "inputs": [],
      "name": "roleStore",
      "outputs": [
        {
          "internalType": "contract RoleStore",
          "name": "",
          "type": "address"
        }
      ],
      "stateMutability": "view",
      "type": "function"
    },
    {
      "inputs": [],
      "name": "swapHandler",
      "outputs": [
        {
          "internalType": "contract SwapHandler",
          "name": "",
          "type": "address"
        }
      ],
      "stateMutability": "view",
      "type": "function"
    },
    {
      "inputs": [
        {
          "internalType": "address",
          "name": "market",
          "type": "address"
        },
        {
          "internalType": "bool",
          "name": "isLong",
          "type": "bool"
        },
        {
          "components": [
            {
              "internalType": "uint256",
              "name": "signerInfo",
              "type": "uint256"
            },
            {
              "internalType": "address[]",
              "name": "tokens",
              "type": "address[]"
            },
            {
              "internalType": "uint256[]",
              "name": "compactedMinOracleBlockNumbers",
              "type": "uint256[]"
            },
            {
              "internalType": "uint256[]",
              "name": "compactedMaxOracleBlockNumbers",
              "type": "uint256[]"
            },
            {
              "internalType": "uint256[]",
              "name": "compactedOracleTimestamps",
              "type": "uint256[]"
            },
            {
              "internalType": "uint256[]",
              "name": "compactedDecimals",
              "type": "uint256[]"
            },
            {
              "internalType": "uint256[]",
              "name": "compactedMinPrices",
              "type": "uint256[]"
            },
            {
              "internalType": "uint256[]",
              "name": "compactedMinPricesIndexes",
              "type": "uint256[]"
            },
            {
              "internalType": "uint256[]",
              "name": "compactedMaxPrices",
              "type": "uint256[]"
            },
            {
              "internalType": "uint256[]",
              "name": "compactedMaxPricesIndexes",
              "type": "uint256[]"
            },
            {
              "internalType": "bytes[]",
              "name": "signatures",
              "type": "bytes[]"
            },
            {
              "internalType": "address[]",
              "name": "priceFeedTokens",
              "type": "address[]"
            }
          ],
          "internalType": "struct OracleUtils.SetPricesParams",
          "name": "oracleParams",
          "type": "tuple"
        }
      ],
      "name": "updateAdlState",
      "outputs": [],
      "stateMutability": "nonpayable",
      "type": "function"
    }
  ],
  "bytecode": "0x6101606040523480156200001257600080fd5b506040516200394f3803806200394f833981016040819052620000359162000085565b6001600160a01b0395861660805295851660a05292841660c05290831660e052821661012052811661010052166101405262000130565b6001600160a01b03811681146200008257600080fd5b50565b600080600080600080600060e0888a031215620000a157600080fd5b8751620000ae816200006c565b6020890151909750620000c1816200006c565b6040890151909650620000d4816200006c565b6060890151909550620000e7816200006c565b6080890151909450620000fa816200006c565b60a08901519093506200010d816200006c565b60c089015190925062000120816200006c565b8091505092959891949750929550565b60805160a05160c05160e0516101005161012051610140516136fc6200025360003960008181608c015261103501526000818161012c0152818161023001528181610475015281816107b40152818161090201528181610a590152610fdf015260008181610153015261100a01526000818161017a0152610fb40152600081816101a101528181610272015281816105870152818161094401528181610a370152610f8901526000818160c90152610cf101526000818160f001528181610251015281816103f3015281816104540152818161055801528181610793015281816108160152818161092301528181610a1501528181610b1f01528181610c2201528181610ea601528181610f2701528181610f61015261145e01526136fc6000f3fe608060405234801561001057600080fd5b50600436106100825760003560e01c80626cc35e146100875780634a4a7b04146100c4578063660d0d67146100eb5780637b881883146101125780637dc0d1d0146101275780638a53aaac1461014e57806393845e46146101755780639ff78c301461019c578063d944d587146101c3575b600080fd5b6100ae7f000000000000000000000000000000000000000000000000000000000000000081565b6040516100bb9190612521565b60405180910390f35b6100ae7f000000000000000000000000000000000000000000000000000000000000000081565b6100ae7f000000000000000000000000000000000000000000000000000000000000000081565b610125610120366004612571565b6101d6565b005b6100ae7f000000000000000000000000000000000000000000000000000000000000000081565b6100ae7f000000000000000000000000000000000000000000000000000000000000000081565b6100ae7f000000000000000000000000000000000000000000000000000000000000000081565b6100ae7f000000000000000000000000000000000000000000000000000000000000000081565b6101256101d1366004612600565b6108e6565b6101de610b1b565b61022e6040516020016101f090612661565b604051602081830303815290604052805190602001206040518060400160405280600a81526020016920a2262fa5a2a2a822a960b11b815250610cda565b7f00000000000000000000000000000000000000000000000000000000000000007f00000000000000000000000000000000000000000000000000000000000000007f000000000000000000000000000000000000000000000000000000000000000061029a84612930565b60405163df02681160e01b81526001600160a01b0385169063df026811906102ca90869086908690600401612c0e565b600060405180830381600087803b1580156102e457600080fd5b505af11580156102f8573d6000803e3d6000fd5b5050505061035060405180610120016040528060008152602001606081526020016060815260200160008019168152602001600015158152602001600081526020016000815260200160008152602001600081525090565b5a81526103a96103636040880188612d7e565b808060200260200160405190810160405280939291908181526020018383602002808284376000920191909152506103a2925050506020890189612d7e565b9050610d8a565b60208201526103be6103636060880188612d7e565b6040808301829052516385671ac560e01b815273__$f1c6d6b2bd25207c7e7320f7c6bcfa9419$__916385671ac59161041f917f0000000000000000000000000000000000000000000000000000000000000000918f918e91600401612dce565b60006040518083038186803b15801561043757600080fd5b505af415801561044b573d6000803e3d6000fd5b505050506104eb7f00000000000000000000000000000000000000000000000000000000000000007f00000000000000000000000000000000000000000000000000000000000000008c8b6040516020016104d09060208082526016908201527513505617d4139317d19050d513d497d193d497d0511360521b604082015260600190565b60405160208183030381529060405280519060200120610e20565b60a084015260c0830152151560808201819052610530578060c001518160a001516040516368376c5f60e11b8152600401610527929190612e02565b60405180910390fd5b73__$f1c6d6b2bd25207c7e7320f7c6bcfa9419$__63dbadc9b96040518061010001604052807f00000000000000000000000000000000000000000000000000000000000000006001600160a01b031681526020017f00000000000000000000000000000000000000000000000000000000000000006001600160a01b031681526020018e6001600160a01b031681526020018d6001600160a01b031681526020018c6001600160a01b031681526020018b151581526020018a8152602001846020015160008151811061060657610606612e10565b6020908102919091018101519091526040805160e085811b6001600160e01b031916825284516001600160a01b039081166004840152938501518416602483015291840151831660448201526060840151831660648201526080840151909216608483015260a0830151151560a483015260c083015160c4830152919091015160e482015261010401602060405180830381865af41580156106ac573d6000803e3d6000fd5b505050506040513d601f19601f820116820180604052508101906106d09190612e26565b606082018190526000906106f2906106e789612930565b845133906001610e60565b8051516040820151602001515191925061072791610722903090600781111561071d5761071d612e3f565b611117565b6111ac565b604051630893a94f60e41b815273__$18943158f75973db0541c3d7c8650b2485$__9063893a94f09061075e908490600401613040565b60006040518083038186803b15801561077657600080fd5b505af415801561078a573d6000803e3d6000fd5b505050506107dc7f00000000000000000000000000000000000000000000000000000000000000007f00000000000000000000000000000000000000000000000000000000000000008d8c60016111d7565b60e0830181905260c083015113610811578160e001518260c0015160405162753f0f60e61b8152600401610527929190612e02565b61083c7f00000000000000000000000000000000000000000000000000000000000000008c8b61136a565b610100830181905261084d906113ee565b8260e00151121561087e578160e00151826101000151604051634f85e3ef60e11b8152600401610527929190612e02565b5050836001600160a01b031662ccf1556040518163ffffffff1660e01b8152600401600060405180830381600087803b1580156108ba57600080fd5b505af11580156108ce573d6000803e3d6000fd5b50505050505050506108de61145c565b505050505050565b6108ee610b1b565b6109006040516020016101f090612661565b7f00000000000000000000000000000000000000000000000000000000000000007f00000000000000000000000000000000000000000000000000000000000000007f000000000000000000000000000000000000000000000000000000000000000061096c84612930565b60405163df02681160e01b81526001600160a01b0385169063df0268119061099c90869086908690600401612c0e565b600060405180830381600087803b1580156109b657600080fd5b505af11580156109ca573d6000803e3d6000fd5b5050505060006109e38680606001906103639190612d7e565b60405163e0cc1a0d60e01b815290915073__$f1c6d6b2bd25207c7e7320f7c6bcfa9419$__9063e0cc1a0d90610a87907f0000000000000000000000000000000000000000000000000000000000000000907f0000000000000000000000000000000000000000000000000000000000000000907f0000000000000000000000000000000000000000000000000000000000000000908e908e90899060040161316f565b60006040518083038186803b158015610a9f57600080fd5b505af4158015610ab3573d6000803e3d6000fd5b5050505050836001600160a01b031662ccf1556040518163ffffffff1660e01b8152600401600060405180830381600087803b158015610af257600080fd5b505af1158015610b06573d6000803e3d6000fd5b5050505050505050610b1661145c565b505050565b60007f00000000000000000000000000000000000000000000000000000000000000006001600160a01b031663bd02d0f5604051602001610b5b906131b3565b604051602081830303815290604052805190602001206040518263ffffffff1660e01b8152600401610b8f91815260200190565b602060405180830381865afa158015610bac573d6000803e3d6000fd5b505050506040513d601f19601f82011682018060405250810190610bd09190612e26565b90508015610c205760405162461bcd60e51b815260206004820152601f60248201527f5265656e7472616e637947756172643a207265656e7472616e742063616c6c006044820152606401610527565b7f00000000000000000000000000000000000000000000000000000000000000006001600160a01b031663e2a4853a604051602001610c5e906131b3565b6040516020818303038152906040528051906020012060016040518363ffffffff1660e01b8152600401610c93929190612e02565b6020604051808303816000875af1158015610cb2573d6000803e3d6000fd5b505050506040513d601f19601f82011682018060405250810190610cd69190612e26565b5050565b60405163ac4ab3fb60e01b81526001600160a01b037f0000000000000000000000000000000000000000000000000000000000000000169063ac4ab3fb90610d2890339086906004016131e4565b602060405180830381865afa158015610d45573d6000803e3d6000fd5b505050506040513d601f19601f82011682018060405250810190610d6991906131fd565b610cd657338160405163a35b150b60e01b815260040161052792919061321a565b60606000826001600160401b03811115610da657610da6612685565b604051908082528060200260200182016040528015610dcf578160200160208202803683370190505b50905060005b83811015610e1657610de78582611515565b828281518110610df957610df9612e10565b602090810291909101015280610e0e81613254565b915050610dd5565b5090505b92915050565b600080600080610e308988611587565b90506000610e3e8983611622565b9050610e4d8a83838a8a611798565b9450945094505050955095509592505050565b610e68612356565b610e70612356565b6020810187905260405163fdfc26f360e01b815273__$9dcb75ef0bb6c4288f2ccffe7dc492c4eb$__9063fdfc26f390610ed0907f0000000000000000000000000000000000000000000000000000000000000000908b906004016131e4565b600060405180830381865af4158015610eed573d6000803e3d6000fd5b505050506040513d6000823e601f3d908101601f19168201604052610f1591908101906133e7565b604082018190525160c00151610f4c907f0000000000000000000000000000000000000000000000000000000000000000906117ec565b60608083019190915281516001600160a01b037f0000000000000000000000000000000000000000000000000000000000000000811690915282517f0000000000000000000000000000000000000000000000000000000000000000821660209182015283517f0000000000000000000000000000000000000000000000000000000000000000831660409182015284517f0000000000000000000000000000000000000000000000000000000000000000841694019390935283517f0000000000000000000000000000000000000000000000000000000000000000831660809091015283517f000000000000000000000000000000000000000000000000000000000000000090921660a0909201919091529087015190870151516110739190610d8a565b6080820152606086015160208701515161108d9190610d8a565b60a0820152604081015151608001516001600160a01b0316156110c757805151604082015151608001516110c19190611587565b60c08201525b6001600160a01b03851660e0820152610100810184905261012081018360018111156110f5576110f5612e3f565b9081600181111561110857611108612e3f565b90525090505b95945050505050565b6000604051602001611159906020808252601c908201527b11561150d5551157d0511317d191505515549157d11254d05093115160221b604082015260600190565b60408051601f198184030181528282528051602091820120908301526001600160a01b03851690820152606081018390526080015b60405160208183030381529060405280519060200120905092915050565b6111b682826118aa565b15610cd65760405163dd70e0c960e01b815260048101829052602401610527565b6000806111e48786611587565b905060006040518060600160405280886001600160a01b0316635dcf719485602001516040518263ffffffff1660e01b81526004016112239190612521565b6040805180830381865afa15801561123f573d6000803e3d6000fd5b505050506040513d601f19601f82011682018060405250810190611263919061350b565b8152602001886001600160a01b0316635dcf719485604001516040518263ffffffff1660e01b81526004016112989190612521565b6040805180830381865afa1580156112b4573d6000803e3d6000fd5b505050506040513d601f19601f820116820180604052508101906112d8919061350b565b8152602001886001600160a01b0316635dcf719485606001516040518263ffffffff1660e01b815260040161130d9190612521565b6040805180830381865afa158015611329573d6000803e3d6000fd5b505050506040513d601f19601f8201168201806040525081019061134d919061350b565b9052905061135e8883838888611916565b98975050505050505050565b6000836001600160a01b031663bd02d0f5611385858561195a565b6040518263ffffffff1660e01b81526004016113a391815260200190565b602060405180830381865afa1580156113c0573d6000803e3d6000fd5b505050506040513d601f19601f820116820180604052508101906113e49190612e26565b90505b9392505050565b60006001600160ff1b038211156114585760405162461bcd60e51b815260206004820152602860248201527f53616665436173743a2076616c756520646f65736e27742066697420696e2061604482015267371034b73a191a9b60c11b6064820152608401610527565b5090565b7f00000000000000000000000000000000000000000000000000000000000000006001600160a01b031663e2a4853a60405160200161149a906131b3565b6040516020818303038152906040528051906020012060006040518363ffffffff1660e01b81526004016114cf929190612e02565b6020604051808303816000875af11580156114ee573d6000803e3d6000fd5b505050506040513d601f19601f820116820180604052508101906115129190612e26565b50565b6000806115618484604060c0600019901c6040518060400160405280601f81526020017f676574556e636f6d7061637465644f7261636c65426c6f636b4e756d626572008152506119d2565b9050806000036113e75760405163349f5fdd60e11b815260048101849052602401610527565b61158f6123e5565b60405163a8d8fff560e01b81526001600160a01b0380851660048301528316602482015260009073__$ff439aa65a80c9eec648f15db20b189505$__9063a8d8fff590604401608060405180830381865af41580156115f2573d6000803e3d6000fd5b505050506040513d601f19601f820116820180604052508101906116169190613559565b90506113e78482611a6f565b61162a61240c565b6040518060600160405280846001600160a01b0316635dcf719485602001516040518263ffffffff1660e01b81526004016116659190612521565b6040805180830381865afa158015611681573d6000803e3d6000fd5b505050506040513d601f19601f820116820180604052508101906116a5919061350b565b8152602001846001600160a01b0316635dcf719485604001516040518263ffffffff1660e01b81526004016116da9190612521565b6040805180830381865afa1580156116f6573d6000803e3d6000fd5b505050506040513d601f19601f8201168201806040525081019061171a919061350b565b8152602001846001600160a01b0316635dcf719485606001516040518263ffffffff1660e01b815260040161174f9190612521565b6040805180830381865afa15801561176b573d6000803e3d6000fd5b505050506040513d601f19601f8201168201806040525081019061178f919061350b565b90529392505050565b6000806000806117ac898989896001611916565b905060006117c08a878b600001518a611b38565b9050600080831380156117da5750816117d884611bb3565b115b9b929a50909850909650505050505050565b6060600082516001600160401b0381111561180957611809612685565b60405190808252806020026020018201604052801561184257816020015b61182f6123e5565b8152602001906001900390816118275790505b50905060005b8351811015610e1657600084828151811061186557611865612e10565b602002602001015190506118798682611587565b83838151811061188b5761188b612e10565b60200260200101819052505080806118a290613254565b915050611848565b604051633d70e7e560e11b8152600481018290526000906001600160a01b03841690637ae1cfca90602401602060405180830381865afa1580156118f2573d6000803e3d6000fd5b505050506040513d601f19601f820116820180604052508101906113e791906131fd565b600080611927878787878715611c05565b90508060000361193b57600091505061110e565b600061194e888888600001518888611c8b565b905061135e8183611d1c565b60006040516020016119989060208082526018908201527713525397d4139317d19050d513d497d05195115497d0511360421b604082015260600190565b60408051601f198184030181528282528051602091820120908301526001600160a01b03851690820152821515606082015260800161118e565b6000806119e1856101006135f3565b905060006119ef82886135f3565b905087518110611a1a578787828660405163bdec9c0d60e01b81526004016105279493929190613615565b6000888281518110611a2e57611a2e612e10565b602002602001015190506000878484611a479190613646565b611a51908b61365d565b611a5b9190613646565b9190911c8616935050505095945050505050565b80516001600160a01b0316611a97576040516302fde0d760e11b815260040160405180910390fd5b6000826001600160a01b0316637ae1cfca611ab58460000151611d63565b6040518263ffffffff1660e01b8152600401611ad391815260200190565b602060405180830381865afa158015611af0573d6000803e3d6000fd5b505050506040513d601f19601f82011682018060405250810190611b1491906131fd565b90508015610b165781516040516309f8c93760e01b81526105279190600401612521565b6000846001600160a01b031663bd02d0f5611b54868686611de5565b6040518263ffffffff1660e01b8152600401611b7291815260200190565b602060405180830381865afa158015611b8f573d6000803e3d6000fd5b505050506040513d601f19601f8201168201806040525081019061110e9190612e26565b6000808212156114585760405162461bcd60e51b815260206004820181905260248201527f53616665436173743a2076616c7565206d75737420626520706f7369746976656044820152606401610527565b60008083611c17578560600151611c1d565b85604001515b90506000611c2c888884611e74565b905060008415611c5a5785611c4957866040015160200151611c53565b8660200151602001515b9050611c74565b85611c6a57604087015151611c71565b6020870151515b90505b611c7e8183613646565b9998505050505050505050565b600080611ca1611c9c888887611f12565b6113ee565b90506000611cb0888887611f70565b9050811580611cbd575080155b15611ccd5760009250505061110e565b6000611cda878787611fb7565b90506000611ceb611c9c8385613646565b9050600087611d0357611cfe8286613670565b611d0d565b611d0d8583613670565b9b9a5050505050505050505050565b600080611d31611d2b85611ff0565b84612001565b905060008413611d5257611d44816113ee565b611d4d90613697565b611d5b565b611d5b816113ee565b949350505050565b6000604051602001611d9b906020808252601290820152711254d7d3505492d15517d11254d05093115160721b604082015260600190565b60408051601f198184030181528282528051602091820120908301526001600160a01b03841690820152606001604051602081830303815290604052805190602001209050919050565b6000604051602001611e19906020808252600e908201526d26a0ac2fa827262fa320a1aa27a960911b604082015260600190565b60408051601f1981840301815282825280516020918201209083015281018590526001600160a01b0384166060820152821515608082015260a0015b6040516020818303038152906040528051906020012090509392505050565b600080611e898460400151856060015161200f565b905080856001600160a01b031663bd02d0f5611ea987600001518761203e565b6040518263ffffffff1660e01b8152600401611ec791815260200190565b602060405180830381865afa158015611ee4573d6000803e3d6000fd5b505050506040513d601f19601f82011682018060405250810190611f089190612e26565b61110e91906135f3565b600080611f278460400151856060015161200f565b90506000611f40868660000151876040015187866120ac565b90506000611f59878760000151886060015188876120ac565b9050611f6581836136b3565b979650505050505050565b600080611f858460400151856060015161200f565b90506000611f9e8686600001518760400151878661213c565b90506000611f598787600001518860600151888761213c565b60008215611fd85781611fcb578351611fd1565b83602001515b90506113e7565b81611fe75783602001516113e4565b50509051919050565b600080821215611458575060000390565b60006113e783836000612159565b6000816001600160a01b0316836001600160a01b031614612031576001612034565b60025b60ff169392505050565b600060405160200161206f906020808252600b908201526a1413d3d317d05353d5539560aa1b604082015260600190565b60408051601f198184030181528282528051602091820120908301526001600160a01b03808616918301919091528316606082015260800161118e565b600081866001600160a01b031663bd02d0f56120c98888886121a1565b6040518263ffffffff1660e01b81526004016120e791815260200190565b602060405180830381865afa158015612104573d6000803e3d6000fd5b505050506040513d601f19601f820116820180604052508101906121289190612e26565b61213291906135f3565b9695505050505050565b600081866001600160a01b031663bd02d0f56120c9888888612219565b60008360000361216b575060006113e7565b811561218a57611fd18468327cb2734119d3b7a9601e1b856001612256565b6113e48468327cb2734119d3b7a9601e1b856122a7565b60006040516020016121d4906020808252600d908201526c13d4115397d2539511549154d5609a1b604082015260600190565b60408051601f198184030181528282528051602091820120908301526001600160a01b038087169183019190915284166060820152821515608082015260a001611e55565b60006040516020016121d4906020808252601790820152764f50454e5f494e5445524553545f494e5f544f4b454e5360481b604082015260600190565b6000806122648686866122a7565b9050600183600281111561227a5761227a612e3f565b148015612297575060008480612292576122926135dd565b868809115b1561110e576121326001826136b3565b60008080600019858709858702925082811083820303915050806000036122e1578382816122d7576122d76135dd565b04925050506113e7565b8084116122ed57600080fd5b60008486880960026001871981018816978890046003810283188082028403028082028403028082028403028082028403028082028403029081029092039091026000889003889004909101858311909403939093029303949094049190911702949350505050565b604080516102008101825260006101408201818152610160830182905261018083018290526101a083018290526101c083018290526101e08301829052825260208201529081016123a5612439565b81526020016060815260200160608152602001606081526020016123c76123e5565b8152600060208201819052604082018190526060909101905b905290565b60408051608081018252600080825260208201819052918101829052606081019190915290565b604051806060016040528061241f6124fa565b815260200161242c6124fa565b81526020016123e06124fa565b604080516101408101909152600060608083018281526080840183905260a0840183905260c0840183905260e084018390526101008401929092526101208301528152602081016124d760408051610140810190915280600081526020016000815260200160008152602001600081526020016000815260200160008152602001600081526020016000815260200160008152602001600081525090565b815260408051606081018252600080825260208281018290529282015291015290565b604051806040016040528060008152602001600081525090565b6001600160a01b03169052565b6001600160a01b0391909116815260200190565b6001600160a01b038116811461151257600080fd5b801515811461151257600080fd5b6000610180828403121561256b57600080fd5b50919050565b60008060008060008060c0878903121561258a57600080fd5b863561259581612535565b955060208701356125a581612535565b945060408701356125b581612535565b935060608701356125c58161254a565b92506080870135915060a08701356001600160401b038111156125e757600080fd5b6125f389828a01612558565b9150509295509295509295565b60008060006060848603121561261557600080fd5b833561262081612535565b925060208401356126308161254a565b915060408401356001600160401b0381111561264b57600080fd5b61265786828701612558565b9150509250925092565b6020808252600a908201526920a2262fa5a2a2a822a960b11b604082015260600190565b634e487b7160e01b600052604160045260246000fd5b60405161018081016001600160401b03811182821017156126be576126be612685565b60405290565b60405161014081016001600160401b03811182821017156126be576126be612685565b604051606081016001600160401b03811182821017156126be576126be612685565b60405160e081016001600160401b03811182821017156126be576126be612685565b604051601f8201601f191681016001600160401b038111828210171561275357612753612685565b604052919050565b60006001600160401b0382111561277457612774612685565b5060051b60200190565b600082601f83011261278f57600080fd5b813560206127a461279f8361275b565b61272b565b82815260059290921b840181019181810190868411156127c357600080fd5b8286015b848110156127e75780356127da81612535565b83529183019183016127c7565b509695505050505050565b600082601f83011261280357600080fd5b8135602061281361279f8361275b565b82815260059290921b8401810191818101908684111561283257600080fd5b8286015b848110156127e75780358352918301918301612836565b6000601f838184011261285f57600080fd5b8235602061286f61279f8361275b565b82815260059290921b8501810191818101908784111561288e57600080fd5b8287015b848110156129245780356001600160401b03808211156128b25760008081fd5b818a0191508a603f8301126128c75760008081fd5b858201356040828211156128dd576128dd612685565b6128ee828b01601f1916890161272b565b92508183528c818386010111156129055760008081fd5b8181850189850137506000908201870152845250918301918301612892565b50979650505050505050565b6000610180823603121561294357600080fd5b61294b61269b565b8235815260208301356001600160401b038082111561296957600080fd5b6129753683870161277e565b6020840152604085013591508082111561298e57600080fd5b61299a368387016127f2565b604084015260608501359150808211156129b357600080fd5b6129bf368387016127f2565b606084015260808501359150808211156129d857600080fd5b6129e4368387016127f2565b608084015260a08501359150808211156129fd57600080fd5b612a09368387016127f2565b60a084015260c0850135915080821115612a2257600080fd5b612a2e368387016127f2565b60c084015260e0850135915080821115612a4757600080fd5b612a53368387016127f2565b60e084015261010091508185013581811115612a6e57600080fd5b612a7a368288016127f2565b838501525061012091508185013581811115612a9557600080fd5b612aa1368288016127f2565b838501525061014091508185013581811115612abc57600080fd5b612ac83682880161284d565b838501525061016091508185013581811115612ae357600080fd5b612aef3682880161277e565b8385015250505080915050919050565b600081518084526020808501945080840160005b83811015612b385781516001600160a01b031687529582019590820190600101612b13565b509495945050505050565b600081518084526020808501945080840160005b83811015612b3857815187529582019590820190600101612b57565b6000815180845260005b81811015612b9957602081850181015186830182015201612b7d565b506000602082860101526020601f19601f83011685010191505092915050565b600081518084526020808501808196508360051b8101915082860160005b85811015612c01578284038952612bef848351612b73565b98850198935090840190600101612bd7565b5091979650505050505050565b600060018060a01b03808616835280851660208401525060606040830152825160608301526020830151610180806080850152612c4f6101e0850183612aff565b91506040850151605f19808685030160a0870152612c6d8483612b43565b935060608701519150808685030160c0870152612c8a8483612b43565b935060808701519150808685030160e0870152612ca78483612b43565b935060a08701519150610100818786030181880152612cc68584612b43565b945060c08801519250610120828887030181890152612ce58685612b43565b955060e089015193506101408389880301818a0152612d048786612b43565b9650828a0151945061016092508389880301838a0152612d248786612b43565b9650818a015194508389880301868a0152612d3f8786612b43565b9650808a01519550505081878603016101a0880152612d5e8585612bb9565b94508088015193505080868503016101c08701525050611f658282612aff565b6000808335601e19843603018112612d9557600080fd5b8301803591506001600160401b03821115612daf57600080fd5b6020019150600581901b3603821315612dc757600080fd5b9250929050565b6001600160a01b03858116825284166020820152821515604082015260806060820181905260009061213290830184612b43565b918252602082015260400190565b634e487b7160e01b600052603260045260246000fd5b600060208284031215612e3857600080fd5b5051919050565b634e487b7160e01b600052602160045260246000fd5b60088110612e6557612e65612e3f565b9052565b60038110612e6557612e65612e3f565b612e84828251612e55565b6020810151612e966020840182612e69565b5060408101516040830152606081015160608301526080810151608083015260a081015160a083015260c081015160c083015260e081015160e08301526101008082015181840152506101208082015181840152505050565b80516101c080845281516001600160a01b0390811691850191909152602082015181166101e08501526040820151166102008401526060810151600091612f3a610220860183612514565b60808101519150612f4f610240860183612514565b60a08101519150612f64610260860183612514565b60c0015160e06102808601529050612f806102a0850182612aff565b90506020830151612f946020860182612e79565b5060408381015180511515610160870152602081015115156101808701529081015115156101a0860152610e16565b80516001600160a01b03908116835260208083015182169084015260408083015182169084015260609182015116910152565b600081518084526020808501945080840160005b83811015612b385761301d878351612fc3565b608096909601959082019060010161300a565b60028110612e6557612e65612e3f565b6020815261309860208201835180516001600160a01b03908116835260208083015182169084015260408083015182169084015260608083015182169084015260808083015182169084015260a09182015116910152565b602082015160e08201526000604083015161024061010081818601526130c2610260860184612eef565b92506060860151601f196101208188870301818901526130e28684612ff6565b95506080890151925081888703016101408901526131008684612b43565b955060a08901519250818887030161016089015261311e8684612b43565b955060c08901519250613135610180890184612fc3565b60e0890151925061314a610200890184612514565b92880151610220880152505085015161316582860182613030565b5090949350505050565b6001600160a01b0387811682528681166020830152858116604083015284166060820152821515608082015260c060a0820181905260009061135e90830184612b43565b6020808252601790820152765245454e5452414e43595f47554152445f53544154555360481b604082015260600190565b6001600160a01b03929092168252602082015260400190565b60006020828403121561320f57600080fd5b81516113e78161254a565b6001600160a01b03831681526040602082018190526000906113e490830184612b73565b634e487b7160e01b600052601160045260246000fd5b6000600182016132665761326661323e565b5060010190565b805161327881612535565b919050565b600082601f83011261328e57600080fd5b8151602061329e61279f8361275b565b82815260059290921b840181019181810190868411156132bd57600080fd5b8286015b848110156127e75780516132d481612535565b83529183019183016132c1565b80516008811061327857600080fd5b80516003811061327857600080fd5b6000610140828403121561331257600080fd5b61331a6126c4565b9050613325826132e1565b8152613333602083016132f0565b602082015260408201516040820152606082015160608201526080820151608082015260a082015160a082015260c082015160c082015260e082015160e082015261010080830151818301525061012080830151818301525092915050565b6000606082840312156133a457600080fd5b6133ac6126e7565b905081516133b98161254a565b815260208201516133c98161254a565b602082015260408201516133dc8161254a565b604082015292915050565b6000602082840312156133f957600080fd5b81516001600160401b038082111561341057600080fd5b908301906101c0828603121561342557600080fd5b61342d6126e7565b82518281111561343c57600080fd5b830160e0818803121561344e57600080fd5b613456612709565b61345f8261326d565b815261346d6020830161326d565b602082015261347e6040830161326d565b604082015261348f6060830161326d565b60608201526134a06080830161326d565b60808201526134b160a0830161326d565b60a082015260c0820151848111156134c857600080fd5b6134d48982850161327d565b60c0830152508252506134ea86602085016132ff565b60208201526134fd866101608501613392565b604082015295945050505050565b60006040828403121561351d57600080fd5b604080519081016001600160401b038111828210171561353f5761353f612685565b604052825181526020928301519281019290925250919050565b60006080828403121561356b57600080fd5b604051608081016001600160401b038111828210171561358d5761358d612685565b604052825161359b81612535565b815260208301516135ab81612535565b602082015260408301516135be81612535565b604082015260608301516135d181612535565b60608201529392505050565b634e487b7160e01b600052601260045260246000fd5b60008261361057634e487b7160e01b600052601260045260246000fd5b500490565b6080815260006136286080830187612b43565b8560208401528460408401528281036060840152611f658185612b73565b8082028115828204841417610e1a57610e1a61323e565b81810381811115610e1a57610e1a61323e565b81810360008312801583831316838312821617156136905761369061323e565b5092915050565b6000600160ff1b82016136ac576136ac61323e565b5060000390565b80820180821115610e1a57610e1a61323e56fea2646970667358221220820dc8e2d2629d99a4c9c69edc860adb210da477e24435aa82bf3280f72cc47964736f6c63430008120033",
  "linkReferences": {
    "contracts/adl/AdlUtils.sol": {
      "AdlUtils": [
        {
          "length": 20,
          "start": 1574
        },
        {
          "length": 20,
          "start": 1925
        },
        {
          "length": 20,
          "start": 3144
        }
      ]
    },
    "contracts/market/MarketStoreUtils.sol": {
      "MarketStoreUtils": [
        {
          "length": 20,
          "start": 6155
        }
      ]
    },
    "contracts/order/OrderStoreUtils.sol": {
      "OrderStoreUtils": [
        {
          "length": 20,
          "start": 4313
        }
      ]
    },
    "contracts/order/OrderUtils.sol": {
      "OrderUtils": [
        {
          "length": 20,
          "start": 2441
        }
      ]
    }
  },
  "deployedLinkReferences": {
    "contracts/adl/AdlUtils.sol": {
      "AdlUtils": [
        {
          "length": 20,
          "start": 979
        },
        {
          "length": 20,
          "start": 1330
        },
        {
          "length": 20,
          "start": 2549
        }
      ]
    },
    "contracts/market/MarketStoreUtils.sol": {
      "MarketStoreUtils": [
        {
          "length": 20,
          "start": 5560
        }
      ]
    },
    "contracts/order/OrderStoreUtils.sol": {
      "OrderStoreUtils": [
        {
          "length": 20,
          "start": 3718
        }
      ]
    },
    "contracts/order/OrderUtils.sol": {
      "OrderUtils": [
        {
          "length": 20,
          "start": 1846
        }
      ]
    }
  }
}