{
  "_format": "hh-sol-artifact-1",
  "contractName": "ReaderUtils",
  "sourceName": "contracts/reader/ReaderUtils.sol",
  "abi": [
    {
      "inputs": [
        {
          "internalType": "uint256",
          "name": "x",
          "type": "uint256"
        }
      ],
      "name": "PRBMathUD60x18__Exp2InputTooBig",
      "type": "error"
    },
    {
      "inputs": [
        {
          "internalType": "uint256",
          "name": "x",
          "type": "uint256"
        }
      ],
      "name": "PRBMathUD60x18__LogInputTooSmall",
      "type": "error"
    },
    {
      "inputs": [
        {
          "internalType": "uint256",
          "name": "prod1",
          "type": "uint256"
        }
      ],
      "name": "PRBMath__MulDivFixedPointOverflow",
      "type": "error"
    },
    {
      "inputs": [],
      "name": "UnableToGetBorrowingFactorEmptyPoolUsd",
      "type": "error"
    },
    {
      "inputs": [
        {
          "internalType": "address",
          "name": "token",
          "type": "address"
        },
        {
          "internalType": "address",
          "name": "market",
          "type": "address"
        }
      ],
      "name": "UnableToGetCachedTokenPrice",
      "type": "error"
    },
    {
      "inputs": [],
      "name": "UnableToGetFundingFactorEmptyOpenInterest",
      "type": "error"
    },
    {
      "inputs": [
        {
          "internalType": "uint256",
          "name": "positionBorrowingFactor",
          "type": "uint256"
        },
        {
          "internalType": "uint256",
          "name": "cumulativeBorrowingFactor",
          "type": "uint256"
        }
      ],
      "name": "UnexpectedBorrowingFactor",
      "type": "error"
    },
    {
      "inputs": [
        {
          "internalType": "contract DataStore",
          "name": "dataStore",
          "type": "DataStore"
        },
        {
          "components": [
            {
              "internalType": "address",
              "name": "marketToken",
              "type": "address"
            },
            {
              "internalType": "address",
              "name": "indexToken",
              "type": "address"
            },
            {
              "internalType": "address",
              "name": "longToken",
              "type": "address"
            },
            {
              "internalType": "address",
              "name": "shortToken",
              "type": "address"
            }
          ],
          "internalType": "struct Market.Props",
          "name": "market",
          "type": "tuple"
        }
      ],
      "name": "getBaseFundingValues",
      "outputs": [
        {
          "components": [
            {
              "components": [
                {
                  "components": [
                    {
                      "internalType": "uint256",
                      "name": "longToken",
                      "type": "uint256"
                    },
                    {
                      "internalType": "uint256",
                      "name": "shortToken",
                      "type": "uint256"
                    }
                  ],
                  "internalType": "struct MarketUtils.CollateralType",
                  "name": "long",
                  "type": "tuple"
                },
                {
                  "components": [
                    {
                      "internalType": "uint256",
                      "name": "longToken",
                      "type": "uint256"
                    },
                    {
                      "internalType": "uint256",
                      "name": "shortToken",
                      "type": "uint256"
                    }
                  ],
                  "internalType": "struct MarketUtils.CollateralType",
                  "name": "short",
                  "type": "tuple"
                }
              ],
              "internalType": "struct MarketUtils.PositionType",
              "name": "fundingFeeAmountPerSize",
              "type": "tuple"
            },
            {
              "components": [
                {
                  "components": [
                    {
                      "internalType": "uint256",
                      "name": "longToken",
                      "type": "uint256"
                    },
                    {
                      "internalType": "uint256",
                      "name": "shortToken",
                      "type": "uint256"
                    }
                  ],
                  "internalType": "struct MarketUtils.CollateralType",
                  "name": "long",
                  "type": "tuple"
                },
                {
                  "components": [
                    {
                      "internalType": "uint256",
                      "name": "longToken",
                      "type": "uint256"
                    },
                    {
                      "internalType": "uint256",
                      "name": "shortToken",
                      "type": "uint256"
                    }
                  ],
                  "internalType": "struct MarketUtils.CollateralType",
                  "name": "short",
                  "type": "tuple"
                }
              ],
              "internalType": "struct MarketUtils.PositionType",
              "name": "claimableFundingAmountPerSize",
              "type": "tuple"
            }
          ],
          "internalType": "struct ReaderUtils.BaseFundingValues",
          "name": "",
          "type": "tuple"
        }
      ],
      "stateMutability": "view",
      "type": "function"
    },
    {
      "inputs": [
        {
          "internalType": "contract DataStore",
          "name": "dataStore",
          "type": "DataStore"
        },
        {
          "components": [
            {
              "internalType": "address",
              "name": "marketToken",
              "type": "address"
            },
            {
              "internalType": "address",
              "name": "indexToken",
              "type": "address"
            },
            {
              "internalType": "address",
              "name": "longToken",
              "type": "address"
            },
            {
              "internalType": "address",
              "name": "shortToken",
              "type": "address"
            }
          ],
          "internalType": "struct Market.Props",
          "name": "market",
          "type": "tuple"
        },
        {
          "components": [
            {
              "components": [
                {
                  "internalType": "uint256",
                  "name": "min",
                  "type": "uint256"
                },
                {
                  "internalType": "uint256",
                  "name": "max",
                  "type": "uint256"
                }
              ],
              "internalType": "struct Price.Props",
              "name": "indexTokenPrice",
              "type": "tuple"
            },
            {
              "components": [
                {
                  "internalType": "uint256",
                  "name": "min",
                  "type": "uint256"
                },
                {
                  "internalType": "uint256",
                  "name": "max",
                  "type": "uint256"
                }
              ],
              "internalType": "struct Price.Props",
              "name": "longTokenPrice",
              "type": "tuple"
            },
            {
              "components": [
                {
                  "internalType": "uint256",
                  "name": "min",
                  "type": "uint256"
                },
                {
                  "internalType": "uint256",
                  "name": "max",
                  "type": "uint256"
                }
              ],
              "internalType": "struct Price.Props",
              "name": "shortTokenPrice",
              "type": "tuple"
            }
          ],
          "internalType": "struct MarketUtils.MarketPrices",
          "name": "prices",
          "type": "tuple"
        }
      ],
      "name": "getNextFundingAmountPerSize",
      "outputs": [
        {
          "components": [
            {
              "internalType": "bool",
              "name": "longsPayShorts",
              "type": "bool"
            },
            {
              "internalType": "uint256",
              "name": "fundingFactorPerSecond",
              "type": "uint256"
            },
            {
              "components": [
                {
                  "components": [
                    {
                      "internalType": "uint256",
                      "name": "longToken",
                      "type": "uint256"
                    },
                    {
                      "internalType": "uint256",
                      "name": "shortToken",
                      "type": "uint256"
                    }
                  ],
                  "internalType": "struct MarketUtils.CollateralType",
                  "name": "long",
                  "type": "tuple"
                },
                {
                  "components": [
                    {
                      "internalType": "uint256",
                      "name": "longToken",
                      "type": "uint256"
                    },
                    {
                      "internalType": "uint256",
                      "name": "shortToken",
                      "type": "uint256"
                    }
                  ],
                  "internalType": "struct MarketUtils.CollateralType",
                  "name": "short",
                  "type": "tuple"
                }
              ],
              "internalType": "struct MarketUtils.PositionType",
              "name": "fundingFeeAmountPerSizeDelta",
              "type": "tuple"
            },
            {
              "components": [
                {
                  "components": [
                    {
                      "internalType": "uint256",
                      "name": "longToken",
                      "type": "uint256"
                    },
                    {
                      "internalType": "uint256",
                      "name": "shortToken",
                      "type": "uint256"
                    }
                  ],
                  "internalType": "struct MarketUtils.CollateralType",
                  "name": "long",
                  "type": "tuple"
                },
                {
                  "components": [
                    {
                      "internalType": "uint256",
                      "name": "longToken",
                      "type": "uint256"
                    },
                    {
                      "internalType": "uint256",
                      "name": "shortToken",
                      "type": "uint256"
                    }
                  ],
                  "internalType": "struct MarketUtils.CollateralType",
                  "name": "short",
                  "type": "tuple"
                }
              ],
              "internalType": "struct MarketUtils.PositionType",
              "name": "claimableFundingAmountPerSizeDelta",
              "type": "tuple"
            }
          ],
          "internalType": "struct MarketUtils.GetNextFundingAmountPerSizeResult",
          "name": "",
          "type": "tuple"
        }
      ],
      "stateMutability": "view",
      "type": "function"
    },
    {
      "inputs": [
        {
          "internalType": "contract DataStore",
          "name": "dataStore",
          "type": "DataStore"
        },
        {
          "internalType": "contract IReferralStorage",
          "name": "referralStorage",
          "type": "IReferralStorage"
        },
        {
          "internalType": "bytes32",
          "name": "positionKey",
          "type": "bytes32"
        },
        {
          "components": [
            {
              "components": [
                {
                  "internalType": "uint256",
                  "name": "min",
                  "type": "uint256"
                },
                {
                  "internalType": "uint256",
                  "name": "max",
                  "type": "uint256"
                }
              ],
              "internalType": "struct Price.Props",
              "name": "indexTokenPrice",
              "type": "tuple"
            },
            {
              "components": [
                {
                  "internalType": "uint256",
                  "name": "min",
                  "type": "uint256"
                },
                {
                  "internalType": "uint256",
                  "name": "max",
                  "type": "uint256"
                }
              ],
              "internalType": "struct Price.Props",
              "name": "longTokenPrice",
              "type": "tuple"
            },
            {
              "components": [
                {
                  "internalType": "uint256",
                  "name": "min",
                  "type": "uint256"
                },
                {
                  "internalType": "uint256",
                  "name": "max",
                  "type": "uint256"
                }
              ],
              "internalType": "struct Price.Props",
              "name": "shortTokenPrice",
              "type": "tuple"
            }
          ],
          "internalType": "struct MarketUtils.MarketPrices",
          "name": "prices",
          "type": "tuple"
        },
        {
          "internalType": "uint256",
          "name": "sizeDeltaUsd",
          "type": "uint256"
        },
        {
          "internalType": "address",
          "name": "uiFeeReceiver",
          "type": "address"
        },
        {
          "internalType": "bool",
          "name": "usePositionSizeAsSizeDeltaUsd",
          "type": "bool"
        }
      ],
      "name": "getPositionInfo",
      "outputs": [
        {
          "components": [
            {
              "components": [
                {
                  "components": [
                    {
                      "internalType": "address",
                      "name": "account",
                      "type": "address"
                    },
                    {
                      "internalType": "address",
                      "name": "market",
                      "type": "address"
                    },
                    {
                      "internalType": "address",
                      "name": "collateralToken",
                      "type": "address"
                    }
                  ],
                  "internalType": "struct Position.Addresses",
                  "name": "addresses",
                  "type": "tuple"
                },
                {
                  "components": [
                    {
                      "internalType": "uint256",
                      "name": "sizeInUsd",
                      "type": "uint256"
                    },
                    {
                      "internalType": "uint256",
                      "name": "sizeInTokens",
                      "type": "uint256"
                    },
                    {
                      "internalType": "uint256",
                      "name": "collateralAmount",
                      "type": "uint256"
                    },
                    {
                      "internalType": "uint256",
                      "name": "borrowingFactor",
                      "type": "uint256"
                    },
                    {
                      "internalType": "uint256",
                      "name": "fundingFeeAmountPerSize",
                      "type": "uint256"
                    },
                    {
                      "internalType": "uint256",
                      "name": "longTokenClaimableFundingAmountPerSize",
                      "type": "uint256"
                    },
                    {
                      "internalType": "uint256",
                      "name": "shortTokenClaimableFundingAmountPerSize",
                      "type": "uint256"
                    },
                    {
                      "internalType": "uint256",
                      "name": "increasedAtBlock",
                      "type": "uint256"
                    },
                    {
                      "internalType": "uint256",
                      "name": "decreasedAtBlock",
                      "type": "uint256"
                    }
                  ],
                  "internalType": "struct Position.Numbers",
                  "name": "numbers",
                  "type": "tuple"
                },
                {
                  "components": [
                    {
                      "internalType": "bool",
                      "name": "isLong",
                      "type": "bool"
                    }
                  ],
                  "internalType": "struct Position.Flags",
                  "name": "flags",
                  "type": "tuple"
                }
              ],
              "internalType": "struct Position.Props",
              "name": "position",
              "type": "tuple"
            },
            {
              "components": [
                {
                  "components": [
                    {
                      "internalType": "bytes32",
                      "name": "referralCode",
                      "type": "bytes32"
                    },
                    {
                      "internalType": "address",
                      "name": "affiliate",
                      "type": "address"
                    },
                    {
                      "internalType": "address",
                      "name": "trader",
                      "type": "address"
                    },
                    {
                      "internalType": "uint256",
                      "name": "totalRebateFactor",
                      "type": "uint256"
                    },
                    {
                      "internalType": "uint256",
                      "name": "traderDiscountFactor",
                      "type": "uint256"
                    },
                    {
                      "internalType": "uint256",
                      "name": "totalRebateAmount",
                      "type": "uint256"
                    },
                    {
                      "internalType": "uint256",
                      "name": "traderDiscountAmount",
                      "type": "uint256"
                    },
                    {
                      "internalType": "uint256",
                      "name": "affiliateRewardAmount",
                      "type": "uint256"
                    }
                  ],
                  "internalType": "struct PositionPricingUtils.PositionReferralFees",
                  "name": "referral",
                  "type": "tuple"
                },
                {
                  "components": [
                    {
                      "internalType": "uint256",
                      "name": "fundingFeeAmount",
                      "type": "uint256"
                    },
                    {
                      "internalType": "uint256",
                      "name": "claimableLongTokenAmount",
                      "type": "uint256"
                    },
                    {
                      "internalType": "uint256",
                      "name": "claimableShortTokenAmount",
                      "type": "uint256"
                    },
                    {
                      "internalType": "uint256",
                      "name": "latestFundingFeeAmountPerSize",
                      "type": "uint256"
                    },
                    {
                      "internalType": "uint256",
                      "name": "latestLongTokenClaimableFundingAmountPerSize",
                      "type": "uint256"
                    },
                    {
                      "internalType": "uint256",
                      "name": "latestShortTokenClaimableFundingAmountPerSize",
                      "type": "uint256"
                    }
                  ],
                  "internalType": "struct PositionPricingUtils.PositionFundingFees",
                  "name": "funding",
                  "type": "tuple"
                },
                {
                  "components": [
                    {
                      "internalType": "uint256",
                      "name": "borrowingFeeUsd",
                      "type": "uint256"
                    },
                    {
                      "internalType": "uint256",
                      "name": "borrowingFeeAmount",
                      "type": "uint256"
                    },
                    {
                      "internalType": "uint256",
                      "name": "borrowingFeeReceiverFactor",
                      "type": "uint256"
                    },
                    {
                      "internalType": "uint256",
                      "name": "borrowingFeeAmountForFeeReceiver",
                      "type": "uint256"
                    }
                  ],
                  "internalType": "struct PositionPricingUtils.PositionBorrowingFees",
                  "name": "borrowing",
                  "type": "tuple"
                },
                {
                  "components": [
                    {
                      "internalType": "address",
                      "name": "uiFeeReceiver",
                      "type": "address"
                    },
                    {
                      "internalType": "uint256",
                      "name": "uiFeeReceiverFactor",
                      "type": "uint256"
                    },
                    {
                      "internalType": "uint256",
                      "name": "uiFeeAmount",
                      "type": "uint256"
                    }
                  ],
                  "internalType": "struct PositionPricingUtils.PositionUiFees",
                  "name": "ui",
                  "type": "tuple"
                },
                {
                  "components": [
                    {
                      "internalType": "uint256",
                      "name": "min",
                      "type": "uint256"
                    },
                    {
                      "internalType": "uint256",
                      "name": "max",
                      "type": "uint256"
                    }
                  ],
                  "internalType": "struct Price.Props",
                  "name": "collateralTokenPrice",
                  "type": "tuple"
                },
                {
                  "internalType": "uint256",
                  "name": "positionFeeFactor",
                  "type": "uint256"
                },
                {
                  "internalType": "uint256",
                  "name": "protocolFeeAmount",
                  "type": "uint256"
                },
                {
                  "internalType": "uint256",
                  "name": "positionFeeReceiverFactor",
                  "type": "uint256"
                },
                {
                  "internalType": "uint256",
                  "name": "feeReceiverAmount",
                  "type": "uint256"
                },
                {
                  "internalType": "uint256",
                  "name": "feeAmountForPool",
                  "type": "uint256"
                },
                {
                  "internalType": "uint256",
                  "name": "positionFeeAmountForPool",
                  "type": "uint256"
                },
                {
                  "internalType": "uint256",
                  "name": "positionFeeAmount",
                  "type": "uint256"
                },
                {
                  "internalType": "uint256",
                  "name": "totalCostAmountExcludingFunding",
                  "type": "uint256"
                },
                {
                  "internalType": "uint256",
                  "name": "totalCostAmount",
                  "type": "uint256"
                }
              ],
              "internalType": "struct PositionPricingUtils.PositionFees",
              "name": "fees",
              "type": "tuple"
            },
            {
              "components": [
                {
                  "internalType": "int256",
                  "name": "priceImpactUsd",
                  "type": "int256"
                },
                {
                  "internalType": "uint256",
                  "name": "priceImpactDiffUsd",
                  "type": "uint256"
                },
                {
                  "internalType": "uint256",
                  "name": "executionPrice",
                  "type": "uint256"
                }
              ],
              "internalType": "struct ReaderPricingUtils.ExecutionPriceResult",
              "name": "executionPriceResult",
              "type": "tuple"
            },
            {
              "internalType": "int256",
              "name": "basePnlUsd",
              "type": "int256"
            },
            {
              "internalType": "int256",
              "name": "pnlAfterPriceImpactUsd",
              "type": "int256"
            }
          ],
          "internalType": "struct ReaderUtils.PositionInfo",
          "name": "",
          "type": "tuple"
        }
      ],
      "stateMutability": "view",
      "type": "function"
    }
  ],
  "bytecode": "0x61403161003a600b82828239805160001a60731461002d57634e487b7160e01b600052600060045260246000fd5b30600052607381538281f3fe730000000000000000000000000000000000000000301460806040526004361061004b5760003560e01c80630dc7f3eb1461005057806310366e351461007957806335e084c814610099575b600080fd5b61006361005e36600461374b565b6100b9565b60405161007091906137c4565b60405180910390f35b61008c610087366004613809565b6100d6565b604051610070919061383f565b6100ac6100a7366004613873565b6101d0565b604051610070919061399c565b6100c1613270565b6100cc8484846107dd565b90505b9392505050565b6100de6132a1565b6100e66132a1565b6100fb84846000015185604001516001610bc4565b81515152825160608401516101139186916001610bc4565b815151602001528251604084015161012e9186916000610bc4565b81516020015152825160608401516101499186916000610bc4565b81516020908101510152825160408401516101679186916001610bc4565b60208201515152825160608401516101829186916001610bc4565b6020808301515101528251604084015161019f9186916000610bc4565b602080830151015152825160608401516101bc9186916000610bc4565b602080830151810151015290505b92915050565b6101d86132b4565b6101e06132b4565b6101e8613311565b60405163fdfc26f360e01b81526001600160a01b038b1660048201526024810189905273__$3d31b232fb363902662fbc281b11ab3357$__9063fdfc26f3906044016101a060405180830381865af4158015610248573d6000803e3d6000fd5b505050506040513d601f19601f8201168201806040525081019061026c9190613bcf565b808352516020015160405163a8d8fff560e01b815273__$ff439aa65a80c9eec648f15db20b189505$__9163a8d8fff5916102ab918e91600401613cd0565b608060405180830381865af41580156102c8573d6000803e3d6000fd5b505050506040513d601f19601f820116820180604052508101906102ec9190613cea565b808252825151604001516103009189610c4a565b60208201528315610315578151602001515195505b60006040518061010001604052808c6001600160a01b031681526020018b6001600160a01b0316815260200184600001518152602001836020015181526020018360000151604001516001600160a01b031681526020018360000151606001516001600160a01b03168152602001888152602001876001600160a01b031681525090506103a181610ced565b6020840152825182516103b6918d918b610ed7565b6040830181905260208301516103ce918d9190610ee5565b60208401516040015281516000906103e8908d908b6100b9565b90506104118c6103fe8660000151516020015190565b8651516040015187516040015151610bc4565b602080860151015160600152835161044a908d9061043190516020015190565b855160400151875161044590604001515190565b610ef8565b602080860151015160800152835161047c908d9061046a90516020015190565b85516060015187516040015151610ef8565b602085810151015160a0015283516040015151156105585760608101515151602080860151015160800180516104b3908390613d67565b905250606081015151602090810151858201519091015160a00180516104da908390613d67565b90525082516040015184516001600160a01b03909116906104fd90516040015190565b6001600160a01b03160361053257604081015151516020808601510151606001805161052a908390613d67565b905250610628565b8060400151600001516020015184602001516020015160600181815161052a9190613d67565b8060600151602001516000015184602001516020015160800181815161057e9190613d67565b9052506060810151602090810151810151858201519091015160a00180516105a7908390613d67565b90525082516040015184516001600160a01b03909116906105ca90516040015190565b6001600160a01b0316036105fe578060400151602001516000015184602001516020015160600181815161052a9190613d67565b806040015160200151602001518460200151602001516060018181516106249190613d67565b9052505b61063e8460200151602001518560000151610f14565b84602001516020018190525073__$ae023ddda47a46a9af6ec057a2ebe54454$__63146fa98e8d85600001518c6000015161067f8960000151602001515190565b895160209081015101516106928f610f90565b61069b90613d7a565b8b5160400151516040518863ffffffff1660e01b81526004016106c49796959493929190613dc9565b606060405180830381865af41580156106e1573d6000803e3d6000fd5b505050506040513d601f19601f820116820180604052508101906107059190613e1d565b60408501528251845173__$91a1a7f12f728c8759f4be979bae55555f$__916387b5cfbc918f91908d9061073b81604001515190565b61074a578e516020015161074e565b8e51515b8e6040518763ffffffff1660e01b815260040161077096959493929190613e59565b6040805180830381865af415801561078c573d6000803e3d6000fd5b505050506040513d601f19601f820116820180604052508101906107b09190613ed0565b50606085018190526040850151516107c89190613ef4565b608085015250919a9950505050505050505050565b6107e5613270565b6107ed613270565b6107f5613356565b600061080986604001518760600151610ffe565b9050610821878760000151886040015160018561102d565b825151528551606087015161083a91899160018561102d565b825151602001528551604087015161085691899160008561102d565b825160200151528551606087015161087291899160008561102d565b82516020908101518101919091528251519081015190516108939190613d67565b60208084019190915282518101519081015190516108b19190613d67565b6040830152602082015115806108c957506040820151155b156108d9578293505050506100cf565b6108e78787600001516110bd565b6060830152602082015160408301516109009190611155565b6080830152604082015160208301516109199190613d67565b60a0830152604082015160208301511161093757816040015161093d565b81602001515b60c08301528551608083015160a084015161095b928a929091611177565b6020840181905260c0830151606084015161097e9261097991613f1c565b611283565b60e08301819052610990908290613f49565b60e08301526040820151602083015111808452156109ef5760e08201518251515160208401516109c1929190611298565b61010083015260e0820151825151602090810151908401516109e4929190611298565b610120830152610a37565b60e0820151825160200151516040840151610a0b929190611298565b61010083015260e0820151825160209081015101516040840151610a30929190611298565b6101208301525b825115610af957610100820151825151516020808801510151610a5d92919060016112a5565b6040808501515191909152610120830151835151602090810151928801510151610a89929060016112a5565b8360400151600001516020018181525050610ab8826101000151836040015187602001516020015160006112a5565b8360600151602001516000018181525050610ae7826101200151836040015187604001516020015160006112a5565b60608401516020908101510152610bb9565b610b1f8261010001518360000151602001516000015187602001516020015160016112a5565b8360400151602001516000018181525050610b568261012001518360000151602001516020015187604001516020015160016112a5565b8360400151602001516020018181525050610b85826101000151836020015187602001516020015160006112a5565b60608401515152610120820151602080840151604088015190910151610bae92919060006112a5565b606084015151602001525b509095945050505050565b6000846001600160a01b031663bd02d0f5610be086868661130d565b6040518263ffffffff1660e01b8152600401610bfe91815260200190565b602060405180830381865afa158015610c1b573d6000803e3d6000fd5b505050506040513d601f19601f82011682018060405250810190610c3f9190613f6b565b90505b949350505050565b610c526133af565b82604001516001600160a01b0316846001600160a01b031603610c7a575060208101516100cf565b82606001516001600160a01b0316846001600160a01b031603610ca2575060408101516100cf565b82602001516001600160a01b0316846001600160a01b031603610cc7575080516100cf565b8251604051635f2394d160e11b8152610ce4918691600401613cd0565b60405180910390fd5b610cf56133c9565b6000610d2a836000015184602001518560600151610d168760400151515190565b604088015151602001518860c001516113ad565b90506000610d4084600001518560400151611612565b9050610d5584600001518560600151836116b1565b604083018190526060810151602090910151610140840151610d779190613d67565b610d819190613f84565b61012083015260408201516060015161010083018051610da2908390613d67565b90525083516040808601518051602081015190830151919092015151610dca93929190610bc4565b60208301516060015283516040850151610dfe9190610deb90516020015190565b6080870151604080890151015151610ef8565b60208301516080015283516040850151610e329190610e1f90516020015190565b60a0870151604080890151015151610ef8565b60208301805160a00191909152516040850151610e4f9190610f14565b60208301528351606085015160c086015160e0870151610e71939291906117c0565b60608301819052825160c001516040918201519184015160200151610160850151919291610e9f9190613d67565b610ea99190613d67565b610eb39190613f84565b6101808301819052602083015151610eca91613d67565b6101a08301525092915050565b6000610c3f85858585611828565b610eed61344d565b6100cc8484846116b1565b6000846001600160a01b031663bd02d0f5610be08686866118a0565b610f1c613475565b610f408360600151610f3384602001516080015190565b60208501515160016118ed565b83526080830151610f6790610f5a846020015160a0015190565b60208501515160006118ed565b602084015260a0830151610f8490610f5a846020015160c0015190565b60408401525090919050565b60006001600160ff1b03821115610ffa5760405162461bcd60e51b815260206004820152602860248201527f53616665436173743a2076616c756520646f65736e27742066697420696e2061604482015267371034b73a191a9b60c11b6064820152608401610ce4565b5090565b6000816001600160a01b0316836001600160a01b031614611020576001611023565b60025b60ff169392505050565b600081866001600160a01b031663bd02d0f561104a888888611924565b6040518263ffffffff1660e01b815260040161106891815260200190565b602060405180830381865afa158015611085573d6000803e3d6000fd5b505050506040513d601f19601f820116820180604052508101906110a99190613f6b565b6110b39190613f49565b9695505050505050565b600080836001600160a01b031663bd02d0f56110d885611957565b6040518263ffffffff1660e01b81526004016110f691815260200190565b602060405180830381865afa158015611113573d6000803e3d6000fd5b505050506040513d601f19601f820116820180604052508101906111379190613f6b565b90508060000361114b5760009150506101ca565b610c428142613f84565b600081831161116d576111688383613f84565b6100cf565b6100cf8284613f84565b600080856001600160a01b031663bd02d0f5611192876119d9565b6040518263ffffffff1660e01b81526004016111b091815260200190565b602060405180830381865afa1580156111cd573d6000803e3d6000fd5b505050506040513d601f19601f820116820180604052508101906111f19190613f6b565b90508015611200579050610c42565b83600003611212576000915050610c42565b82600003611233576040516311423d9560e01b815260040160405180910390fd5b600061123f8787611a14565b9050600061124d8888611a8d565b9050600061125b8783611aa7565b905060006112698288611b06565b90506112758185611283565b9a9950505050505050505050565b60006100cf838368327cb2734119d3b7a9601e1b5b60006100cc848484611b14565b60008415806112b2575083155b156112bf57506000610c42565b60006112e9866112e266038d7ea4c6800068327cb2734119d3b7a9601e1b613f1c565b8786611bc3565b90508215611303576112fb8185611bea565b915050610c42565b6112fb8482613f49565b600060405160200161134e906020808252601b908201527a46554e44494e475f4645455f414d4f554e545f5045525f53495a4560281b604082015260600190565b60408051601f198184030181528282528051602091820120908301526001600160a01b038087169183019190915284166060820152821515608082015260a0016040516020818303038152906040528051906020012090509392505050565b6113b56133c9565b6113bd6133c9565b6080810186905280516001600160a01b0386166040909101526113e08786611c0d565b8451608081019190915260608101919091526001600160a01b03918216602082015291909152881663bd02d0f561141686611e7f565b6040518263ffffffff1660e01b815260040161143491815260200190565b602060405180830381865afa158015611451573d6000803e3d6000fd5b505050506040513d601f19601f820116820180604052508101906114759190613f6b565b60a0820181905286519061148a908590611283565b6114949190613f49565b61016082018190528151606001516114ac9190611283565b815160a0908101919091528151908101516080909101516114cd9190611283565b815160c09081019190915281519081015160a0909101516114ee9190613f84565b815160e00152805160a0015161016082015161150a9190613f84565b60c08201526040516001600160a01b0389169063bd02d0f590611560906020016020808252601c908201527b2827a9a4aa24a7a72fa322a2afa922a1a2a4ab22a92fa320a1aa27a960211b604082015260600190565b604051602081830303815290604052805190602001206040518263ffffffff1660e01b815260040161159491815260200190565b602060405180830381865afa1580156115b1573d6000803e3d6000fd5b505050506040513d601f19601f820116820180604052508101906115d59190613f6b565b60e0820181905260c08201516115ea91611283565b610100820181905260c08201516116019190613f84565b610140820152979650505050505050565b6000806116308461162585516020015190565b604086015151611eb8565b90508061164284602001516060015190565b1115611676576020830151606001515b604051634cd96ac160e11b8152600481019190915260248101829052604401610ce4565b600061168784602001516060015190565b6116919083613f84565b90506116a86116a285602001515190565b82611283565b95945050505050565b6116b961344d565b6116c161344d565b82815283516116d09084613f49565b816020018181525050846001600160a01b031663bd02d0f5604051602001611729906020808252601d908201527f424f52524f57494e475f4645455f52454345495645525f464143544f52000000604082015260600190565b604051602081830303815290604052805190602001206040518263ffffffff1660e01b815260040161175d91815260200190565b602060405180830381865afa15801561177a573d6000803e3d6000fd5b505050506040513d601f19601f8201168201806040525081019061179e9190613f6b565b6040820181905260208201516117b391611283565b6060820152949350505050565b6117c86134ab565b6117d06134ab565b6001600160a01b0383166117e5579050610c42565b6001600160a01b03831681526117fb8684611f32565b60208201819052855190611810908690611283565b61181a9190613f49565b604082015295945050505050565b60008061184286858561183d89604001515190565b612078565b5090508061185586602001516060015190565b111561186957602085015160600151611652565b600061187a86602001516060015190565b6118849083613f84565b90506118956116a287602001515190565b979650505050505050565b600060405160200161134e9060208082526021908201527f434c41494d41424c455f46554e44494e475f414d4f554e545f5045525f53495a6040820152604560f81b606082015260800190565b6000806118fa8587613f84565b90506110b3848261191e66038d7ea4c6800068327cb2734119d3b7a9601e1b613f1c565b86611bc3565b600060405160200161134e906020808252600d908201526c13d4115397d2539511549154d5609a1b604082015260600190565b600060405160200161198f9060208082526012908201527111955391125391d7d554111055115117d05560721b604082015260600190565b60408051601f198184030181528282528051602091820120908301526001600160a01b03841690820152606001604051602081830303815290604052805190602001209050919050565b600060405160200161198f9060208082526015908201527429aa20a12622afa32aa72224a723afa320a1aa27a960591b604082015260600190565b6000826001600160a01b031663bd02d0f5611a2e846120dc565b6040518263ffffffff1660e01b8152600401611a4c91815260200190565b602060405180830381865afa158015611a69573d6000803e3d6000fd5b505050506040513d601f19601f820116820180604052508101906100cf9190613f6b565b6000826001600160a01b031663bd02d0f5611a2e84612110565b600068327cb2734119d3b7a9601e1b831015611ac5575060006101ca565b68327cb2734119d3b7a9601e1b8203611adf5750816101ca565b6000611afb611aed8561214d565b611af68561214d565b61215e565b9050610c42816121a0565b60006100cf838360006121b1565b6000808060001985870985870292508281108382030391505080600003611b4e57838281611b4457611b44613f33565b04925050506100cf565b808411611b5a57600080fd5b60008486880960026001871981018816978890046003810283188082028403028082028403028082028403028082028403028082028403029081029092039091026000889003889004909101858311909403939093029303949094049190911702949350505050565b60008115611bdf57611bd88585856001612200565b9050610c42565b610c3f858585611b14565b6000816001611bf98286613d67565b611c039190613f84565b6100cf9190613f49565b6000806000806000866001600160a01b03166385725b58876040518263ffffffff1660e01b8152600401611c419190613f97565b602060405180830381865afa158015611c5e573d6000803e3d6000fd5b505050506040513d601f19601f82011682018060405250810190611c829190613f6b565b9050600080808315611e57576040516306459e2360e51b8152600481018590526001600160a01b038b169063c8b3c46090602401602060405180830381865afa158015611cd3573d6000803e3d6000fd5b505050506040513d601f19601f82011682018060405250810190611cf79190613fab565b925060008a6001600160a01b0316631582a018856040518263ffffffff1660e01b8152600401611d279190613f97565b602060405180830381865afa158015611d44573d6000803e3d6000fd5b505050506040513d601f19601f82011682018060405250810190611d689190613f6b565b60405163039af9eb60e01b8152600481018290529091506001600160a01b038c169063039af9eb906024016040805180830381865afa158015611daf573d6000803e3d6000fd5b505050506040513d601f19601f82011682018060405250810190611dd39190613ed0565b60405163071a6a7960e41b815291945092506000906001600160a01b038d16906371a6a79090611e07908890600401613f97565b602060405180830381865afa158015611e24573d6000803e3d6000fd5b505050506040513d601f19601f82011682018060405250810190611e489190613f6b565b90508015611e54578092505b50505b8383611e6284612251565b611e6b84612251565b929d919c509a509098509650505050505050565b600060405160200161198f906020808252601390820152722827a9a4aa24a7a72fa322a2afa320a1aa27a960691b604082015260600190565b6000836001600160a01b031663bd02d0f5611ed38585612276565b6040518263ffffffff1660e01b8152600401611ef191815260200190565b602060405180830381865afa158015611f0e573d6000803e3d6000fd5b505050506040513d601f19601f820116820180604052508101906100cc9190613f6b565b600080836001600160a01b031663bd02d0f5604051602001611f799060208082526011908201527026a0ac2faaa4afa322a2afa320a1aa27a960791b604082015260600190565b604051602081830303815290604052805190602001206040518263ffffffff1660e01b8152600401611fad91815260200190565b602060405180830381865afa158015611fca573d6000803e3d6000fd5b505050506040513d601f19601f82011682018060405250810190611fee9190613f6b565b90506000846001600160a01b031663bd02d0f561200a8661230b565b6040518263ffffffff1660e01b815260040161202891815260200190565b602060405180830381865afa158015612045573d6000803e3d6000fd5b505050506040513d601f19601f820116820180604052508101906120699190613f6b565b9050818110610c4257816116a8565b600080600061208c8787600001518661233e565b9050600061209c8888888861236a565b905060006120af89896000015188611eb8565b905060006120bd8385613f1c565b905060006120cb8284613d67565b9b919a509098505050505050505050565b600060405160200161198f906020808252600e908201526d232aa72224a723afa320a1aa27a960911b604082015260600190565b600060405160200161198f90602080825260179082015276232aa72224a723afa2ac2827a722a72a2fa320a1aa27a960491b604082015260600190565b60006101ca64e8d4a5100083613f49565b60008260000361218657811561217557600061217f565b670de0b6b3a76400005b90506101ca565b6100cf61219b61219585612557565b8461260d565b612619565b60006101ca64e8d4a5100083613f1c565b6000836000036121c3575060006100cf565b81156121e9576121e28468327cb2734119d3b7a9601e1b856001612200565b90506100cf565b6100cc8468327cb2734119d3b7a9601e1b85611b14565b60008061220e868686611b14565b9050600183600281111561222457612224613fc8565b14801561224157506000848061223c5761223c613f33565b868809115b15610c3f576110b3600182613d67565b600061271061226c68327cb2734119d3b7a9601e1b84613f1c565b6101ca9190613f49565b60006040516020016122b7906020808252601b908201527a21aaa6aaa620aa24ab22afa127a92927aba4a723afa320a1aa27a960291b604082015260600190565b60408051601f198184030181528282528051602091820120908301526001600160a01b0385169082015282151560608201526080015b60405160208183030381529060405280519060200120905092915050565b600060405160200161198f906020808252600d908201526c2aa4afa322a2afa320a1aa27a960991b604082015260600190565b60008061234c85858561265f565b9050806000036123605760009150506100cf565b6116a88142613f84565b6000806123798686868661267a565b90508060000361238d576000915050610c42565b6000866001600160a01b0316637ae1cfca6040516020016123eb9060208082526023908201527f534b49505f424f52524f57494e475f4645455f464f525f534d414c4c45525f5360408201526249444560e81b606082015260800190565b604051602081830303815290604052805190602001206040518263ffffffff1660e01b815260040161241f91815260200190565b602060405180830381865afa15801561243c573d6000803e3d6000fd5b505050506040513d601f19601f820116820180604052508101906124609190613fde565b905080156124c8576000612476888860016126b2565b90506000612486898960006126b2565b905085801561249457508082105b156124a6576000945050505050610c42565b851580156124b357508181105b156124c5576000945050505050610c42565b50505b60006124d8888888886000612705565b9050806000036124fb57604051630d5f5aef60e31b815260040160405180910390fd5b600061250c8989600001518861278b565b9050600061251a8583611aa7565b905060006125288285611b06565b9050600061253b8c8c600001518b6127a6565b90506125478282611283565b9c9b505050505050505050505050565b6000670de0b6b3a764000082101561258557604051633621413760e21b815260048101839052602401610ce4565b600061259a670de0b6b3a764000084046127c1565b670de0b6b3a764000081029250905082811c670de0b6b3a763ffff1981016125c3575050919050565b6706f05b59d3b200005b801561260557670de0b6b3a7640000828002049150671bc16d674ec8000082106125fd579283019260019190911c905b60011c6125cd565b505050919050565b60006100cf83836128a4565b6000680a688906bd8b000000821061264757604051634a4f26f160e01b815260048101839052602401610ce4565b670de0b6b3a7640000604083901b046100cf8161296a565b6000836001600160a01b031663bd02d0f5611ed38585612ffc565b60008082156126ab57600061269087878661304e565b8551602001519091506126a39082613f1c565b915050610c3f565b6110b38686855b6000806126c784604001518560600151610ffe565b905060006126e08686600001518760400151878661102d565b905060006126f98787600001518860600151888761102d565b90506118958183613d67565b6000808361271757856060015161271d565b85604001515b9050600061272c888884613095565b90506000841561275a578561274957866040015160200151612753565b8660200151602001515b9050612774565b8561276a57604087015151612771565b6020870151515b90505b61277e8183613f1c565b9998505050505050505050565b6000836001600160a01b031663bd02d0f5611ed38585613133565b6000836001600160a01b031663bd02d0f5611ed38585613172565b6000600160801b82106127e157608091821c916127de9082613d67565b90505b600160401b82106127ff57604091821c916127fc9082613d67565b90505b600160201b821061281d57602091821c9161281a9082613d67565b90505b62010000821061283a57601091821c916128379082613d67565b90505b610100821061285657600891821c916128539082613d67565b90505b6010821061287157600491821c9161286e9082613d67565b90505b6004821061288c57600291821c916128899082613d67565b90505b6002821061289f576101ca600182613d67565b919050565b60008080600019848609848602925082811083820303915050670de0b6b3a764000081106128e85760405163698d9a0160e11b815260048101829052602401610ce4565b600080670de0b6b3a764000086880991506706f05b59d3b1ffff82119050826000036129265780670de0b6b3a76400008504019450505050506101ca565b620400008285030493909111909103600160ee1b02919091177faccb18165bd6fe31ae1cf318dc5b51eee0e1ba569b88cd74c1773b91fac106690201905092915050565b600160bf1b6001603f1b82161561298a5768016a09e667f3bcc9090260401c5b6001603e1b8216156129a5576801306fe0a31b7152df0260401c5b6001603d1b8216156129c0576801172b83c7d517adce0260401c5b6001603c1b8216156129db5768010b5586cf9890f62a0260401c5b6001603b1b8216156129f6576801059b0d31585743ae0260401c5b6001603a1b821615612a1157680102c9a3e778060ee70260401c5b600160391b821615612a2c5768010163da9fb33356d80260401c5b600160381b821615612a4757680100b1afa5abcbed610260401c5b600160371b821615612a625768010058c86da1c09ea20260401c5b600160361b821615612a7d576801002c605e2e8cec500260401c5b600160351b821615612a9857680100162f3904051fa10260401c5b600160341b821615612ab3576801000b175effdc76ba0260401c5b600160331b821615612ace57680100058ba01fb9f96d0260401c5b600160321b821615612ae95768010002c5cc37da94920260401c5b600160311b821615612b04576801000162e525ee05470260401c5b600160301b821615612b1f5768010000b17255775c040260401c5b6001602f1b821615612b3a576801000058b91b5bc9ae0260401c5b6001602e1b821615612b5557680100002c5c89d5ec6d0260401c5b6001602d1b821615612b705768010000162e43f4f8310260401c5b6001602c1b821615612b8b57680100000b1721bcfc9a0260401c5b6001602b1b821615612ba65768010000058b90cf1e6e0260401c5b6001602a1b821615612bc1576801000002c5c863b73f0260401c5b600160291b821615612bdc57680100000162e430e5a20260401c5b600160281b821615612bf7576801000000b1721835510260401c5b600160271b821615612c1257680100000058b90c0b490260401c5b600160261b821615612c2d5768010000002c5c8601cc0260401c5b600160251b821615612c48576801000000162e42fff00260401c5b600160241b821615612c635768010000000b17217fbb0260401c5b600160231b821615612c7e576801000000058b90bfce0260401c5b600160221b821615612c9957680100000002c5c85fe30260401c5b600160211b821615612cb45768010000000162e42ff10260401c5b600160201b821615612ccf57680100000000b17217f80260401c5b6380000000821615612cea5768010000000058b90bfc0260401c5b6340000000821615612d05576801000000002c5c85fe0260401c5b6320000000821615612d2057680100000000162e42ff0260401c5b6310000000821615612d3b576801000000000b17217f0260401c5b6308000000821615612d5657680100000000058b90c00260401c5b6304000000821615612d715768010000000002c5c8600260401c5b6302000000821615612d8c576801000000000162e4300260401c5b6301000000821615612da75768010000000000b172180260401c5b62800000821615612dc1576801000000000058b90c0260401c5b62400000821615612ddb57680100000000002c5c860260401c5b62200000821615612df55768010000000000162e430260401c5b62100000821615612e0f57680100000000000b17210260401c5b62080000821615612e295768010000000000058b910260401c5b62040000821615612e43576801000000000002c5c80260401c5b62020000821615612e5d57680100000000000162e40260401c5b62010000821615612e765761b172600160401b010260401c5b618000821615612e8e576158b9600160401b010260401c5b614000821615612ea657612c5d600160401b010260401c5b612000821615612ebe5761162e600160401b010260401c5b611000821615612ed657610b17600160401b010260401c5b610800821615612eee5761058c600160401b010260401c5b610400821615612f06576102c6600160401b010260401c5b610200821615612f1e57610163600160401b010260401c5b610100821615612f355760b1600160401b010260401c5b6080821615612f4b576059600160401b010260401c5b6040821615612f6157602c600160401b010260401c5b6020821615612f77576016600160401b010260401c5b6010821615612f8d57600b600160401b010260401c5b6008821615612fa3576006600160401b010260401c5b6004821615612fb9576003600160401b010260401c5b6002821615612fcf576001600160401b010260401c5b6001821615612fe5576001600160401b010260401c5b670de0b6b3a76400000260409190911c60bf031c90565b60006040516020016122b79060208082526026908201527f43554d554c41544956455f424f52524f57494e475f464143544f525f5550444160408201526515115117d05560d21b606082015260800190565b60008061306384604001518560600151610ffe565b9050600061307c868660000151876040015187866131a8565b905060006126f9878760000151886060015188876131a8565b6000806130aa84604001518560600151610ffe565b905080856001600160a01b031663bd02d0f56130ca8760000151876131c5565b6040518263ffffffff1660e01b81526004016130e891815260200190565b602060405180830381865afa158015613105573d6000803e3d6000fd5b505050506040513d601f19601f820116820180604052508101906131299190613f6b565b6116a89190613f49565b60006040516020016122b7906020808252601990820152782127a92927aba4a723afa2ac2827a722a72a2fa320a1aa27a960391b604082015260600190565b60006040516020016122b79060208082526010908201526f2127a92927aba4a723afa320a1aa27a960811b604082015260600190565b600081866001600160a01b031663bd02d0f561104a888888613233565b60006040516020016131f6906020808252600b908201526a1413d3d317d05353d5539560aa1b604082015260600190565b60408051601f198184030181528282528051602091820120908301526001600160a01b0380861691830191909152831660608201526080016122ed565b600060405160200161134e906020808252601790820152764f50454e5f494e5445524553545f494e5f544f4b454e5360481b604082015260600190565b604080516080810182526000808252602082015290810161328f6134d5565b815260200161329c6134d5565b905290565b604051806040016040528061328f6134d5565b6040518060a001604052806132c76134f5565b81526020016132d46133c9565b81526020016132fd60405180606001604052806000815260200160008152602001600081525090565b815260200160008152602001600081525090565b6040805160e081019091526000606082018181526080830182905260a0830182905260c08301919091528152602081016133496133af565b8152602001600081525090565b60405180610140016040528061336a6134d5565b81526020016000815260200160008152602001600081526020016000815260200160008152602001600081526020016000815260200160008152602001600081525090565b604051806040016040528060008152602001600081525090565b604080516102c0810190915260006101c082018181526101e08301829052610200830182905261022083018290526102408301829052610260830182905261028083018290526102a0830191909152815260208101613426613475565b815260200161343361344d565b81526020016134406134ab565b815260200161336a6133af565b6040518060800160405280600081526020016000815260200160008152602001600081525090565b6040518060c001604052806000815260200160008152602001600081526020016000815260200160008152602001600081525090565b604051806060016040528060006001600160a01b0316815260200160008152602001600081525090565b60405180604001604052806134e86133af565b815260200161329c6133af565b6040805160c081019091526000606082018181526080830182905260a08301919091528190815260200161356e6040518061012001604052806000815260200160008152602001600081526020016000815260200160008152602001600081526020016000815260200160008152602001600081525090565b81526040805160208181019092526000815291015290565b6001600160a01b038116811461359b57600080fd5b50565b604051608081016001600160401b03811182821017156135ce57634e487b7160e01b600052604160045260246000fd5b60405290565b604051606081016001600160401b03811182821017156135ce57634e487b7160e01b600052604160045260246000fd5b60405161012081016001600160401b03811182821017156135ce57634e487b7160e01b600052604160045260246000fd5b60006080828403121561364757600080fd5b61364f61359e565b9050813561365c81613586565b8152602082013561366c81613586565b6020820152604082013561367f81613586565b6040820152606082013561369281613586565b606082015292915050565b6000604082840312156136af57600080fd5b604080519081016001600160401b03811182821017156136df57634e487b7160e01b600052604160045260246000fd5b604052823581526020928301359281019290925250919050565b600060c0828403121561370b57600080fd5b6137136135d4565b905061371f838361369d565b815261372e836040840161369d565b6020820152613740836080840161369d565b604082015292915050565b6000806000610160848603121561376157600080fd5b833561376c81613586565b925061377b8560208601613635565b915061378a8560a086016136f9565b90509250925092565b80518252602090810151910152565b6137ad828251613793565b60208101516137bf6040840182613793565b505050565b6000610140820190508251151582526020830151602083015260408301516137ef60408401826137a2565b50606083015161380260c08401826137a2565b5092915050565b60008060a0838503121561381c57600080fd5b823561382781613586565b91506138368460208501613635565b90509250929050565b6000610100820190506138538284516137a2565b602083015161380260808401826137a2565b801515811461359b57600080fd5b6000806000806000806000610180888a03121561388f57600080fd5b873561389a81613586565b965060208801356138aa81613586565b9550604088013594506138c08960608a016136f9565b935061012088013592506101408801356138d981613586565b91506101608801356138ea81613865565b8091505092959891949750929550565b805160018060a01b03808251168452806020830151166020850152806040830151166040850152505060208101518051606084015260208101516080840152604081015160a0840152606081015160c0840152608081015160e084015260a0810151610100818186015260c083015161012086015260e08301516101408601528083015161016086015250505060408101516137bf6101808401825115159052565b6000610640820190506139b08284516138fa565b602083810151805180516101a086810191909152928101516001600160a01b039081166101c08701526040820151166101e08601526060810151610200860152608081015161022086015260a081015161024086015260c081015161026086015260e001516102808501529060208281015180516102a0870152908101516102c086015260408101516102e08601526060810151610300860152608081015161032086015260a08101516103408601525060408281015180516103608701526020810151610380870152908101516103a086015260608101516103c086015250606082015180516001600160a01b03166103e086015260208101516104008601526040810151610420860152506080820151613ad0610440860182613793565b5060a082015161048085015260c08201516104a085015260e08201516104c08501526101008201516104e0850152610120820151610500850152610140820151610520850152610160820151610540850152610180820151610560850152015161058083015260408381015180516105a085015260208101516105c085015201516105e083015260608301516106008301526080909201516106209091015290565b600060208284031215613b8457600080fd5b604051602081016001600160401b0381118282101715613bb457634e487b7160e01b600052604160045260246000fd5b80604052508091508251613bc781613865565b905292915050565b60008183036101a0811215613be357600080fd5b613beb6135d4565b6060821215613bf957600080fd5b613c016135d4565b8451613c0c81613586565b81526020850151613c1c81613586565b60208201526040850151613c2f81613586565b60408201528152610120605f198301811315613c4a57600080fd5b613c52613604565b9250606085015183526080850151602084015260a0850151604084015260c0850151606084015260e085015160808401526101008086015160a08501528186015160c085015261014086015160e0850152610160860151818501525050816020820152613cc3856101808601613b72565b6040820152949350505050565b6001600160a01b0392831681529116602082015260400190565b600060808284031215613cfc57600080fd5b613d0461359e565b8251613d0f81613586565b81526020830151613d1f81613586565b60208201526040830151613d3281613586565b60408201526060830151613d4581613586565b60608201529392505050565b634e487b7160e01b600052601160045260246000fd5b808201808211156101ca576101ca613d51565b6000600160ff1b8201613d8f57613d8f613d51565b5060000390565b80516001600160a01b03908116835260208083015182169084015260408083015182169084015260609182015116910152565b6001600160a01b03881681526101608101613de76020830189613d96565b613df460a0830188613793565b8560e0830152846101008301528361012083015282151561014083015298975050505050505050565b600060608284031215613e2f57600080fd5b613e376135d4565b8251815260208301516020820152604083015160408201528091505092915050565b6001600160a01b03871681526103408101613e776020830188613d96565b613e8560a083018751613793565b6020860151613e9760e0840182613793565b506040860151613eab610120840182613793565b50613eba6101608301866138fa565b6103008201939093526103200152949350505050565b60008060408385031215613ee357600080fd5b505080516020909101519092909150565b8082018281126000831280158216821582161715613f1457613f14613d51565b505092915050565b80820281158282048414176101ca576101ca613d51565b634e487b7160e01b600052601260045260246000fd5b600082613f6657634e487b7160e01b600052601260045260246000fd5b500490565b600060208284031215613f7d57600080fd5b5051919050565b818103818111156101ca576101ca613d51565b6001600160a01b0391909116815260200190565b600060208284031215613fbd57600080fd5b81516100cf81613586565b634e487b7160e01b600052602160045260246000fd5b600060208284031215613ff057600080fd5b81516100cf8161386556fea2646970667358221220a77bc056aa35cd513497dd109d9926f7758578430ff3da6bdf80849f080c805464736f6c63430008120033",
  "linkReferences": {
    "contracts/market/MarketStoreUtils.sol": {
      "MarketStoreUtils": [
        {
          "length": 20,
          "start": 701
        }
      ]
    },
    "contracts/position/PositionStoreUtils.sol": {
      "PositionStoreUtils": [
        {
          "length": 20,
          "start": 583
        }
      ]
    },
    "contracts/position/PositionUtils.sol": {
      "PositionUtils": [
        {
          "length": 20,
          "start": 1866
        }
      ]
    },
    "contracts/reader/ReaderPricingUtils.sol": {
      "ReaderPricingUtils": [
        {
          "length": 20,
          "start": 1670
        }
      ]
    }
  },
  "deployedLinkReferences": {
    "contracts/market/MarketStoreUtils.sol": {
      "MarketStoreUtils": [
        {
          "length": 20,
          "start": 643
        }
      ]
    },
    "contracts/position/PositionStoreUtils.sol": {
      "PositionStoreUtils": [
        {
          "length": 20,
          "start": 525
        }
      ]
    },
    "contracts/position/PositionUtils.sol": {
      "PositionUtils": [
        {
          "length": 20,
          "start": 1808
        }
      ]
    },
    "contracts/reader/ReaderPricingUtils.sol": {
      "ReaderPricingUtils": [
        {
          "length": 20,
          "start": 1612
        }
      ]
    }
  }
}