{
  "_format": "hh-sol-artifact-1",
  "contractName": "LiquidationHandler",
  "sourceName": "contracts/exchange/LiquidationHandler.sol",
  "abi": [
    {
      "inputs": [
        {
          "internalType": "contract RoleStore",
          "name": "_roleStore",
          "type": "address"
        },
        {
          "internalType": "contract DataStore",
          "name": "_dataStore",
          "type": "address"
        },
        {
          "internalType": "contract EventEmitter",
          "name": "_eventEmitter",
          "type": "address"
        },
        {
          "internalType": "contract OrderVault",
          "name": "_orderVault",
          "type": "address"
        },
        {
          "internalType": "contract Oracle",
          "name": "_oracle",
          "type": "address"
        },
        {
          "internalType": "contract SwapHandler",
          "name": "_swapHandler",
          "type": "address"
        },
        {
          "internalType": "contract IReferralStorage",
          "name": "_referralStorage",
          "type": "address"
        }
      ],
      "stateMutability": "nonpayable",
      "type": "constructor"
    },
    {
      "inputs": [
        {
          "internalType": "uint256[]",
          "name": "compactedValues",
          "type": "uint256[]"
        },
        {
          "internalType": "uint256",
          "name": "index",
          "type": "uint256"
        },
        {
          "internalType": "uint256",
          "name": "slotIndex",
          "type": "uint256"
        },
        {
          "internalType": "string",
          "name": "label",
          "type": "string"
        }
      ],
      "name": "CompactedArrayOutOfBounds",
      "type": "error"
    },
    {
      "inputs": [
        {
          "internalType": "bytes32",
          "name": "key",
          "type": "bytes32"
        }
      ],
      "name": "DisabledFeature",
      "type": "error"
    },
    {
      "inputs": [
        {
          "internalType": "address",
          "name": "market",
          "type": "address"
        }
      ],
      "name": "DisabledMarket",
      "type": "error"
    },
    {
      "inputs": [
        {
          "internalType": "uint256",
          "name": "index",
          "type": "uint256"
        }
      ],
      "name": "EmptyCompactedBlockNumber",
      "type": "error"
    },
    {
      "inputs": [],
      "name": "EmptyMarket",
      "type": "error"
    },
    {
      "inputs": [
        {
          "internalType": "address",
          "name": "msgSender",
          "type": "address"
        },
        {
          "internalType": "string",
          "name": "role",
          "type": "string"
        }
      ],
      "name": "Unauthorized",
      "type": "error"
    },
    {
      "anonymous": false,
      "inputs": [
        {
          "indexed": false,
          "internalType": "string",
          "name": "reason",
          "type": "string"
        }
      ],
      "name": "OracleError",
      "type": "event"
    },
    {
      "inputs": [],
      "name": "dataStore",
      "outputs": [
        {
          "internalType": "contract DataStore",
          "name": "",
          "type": "address"
        }
      ],
      "stateMutability": "view",
      "type": "function"
    },
    {
      "inputs": [],
      "name": "eventEmitter",
      "outputs": [
        {
          "internalType": "contract EventEmitter",
          "name": "",
          "type": "address"
        }
      ],
      "stateMutability": "view",
      "type": "function"
    },
    {
      "inputs": [
        {
          "internalType": "address",
          "name": "account",
          "type": "address"
        },
        {
          "internalType": "address",
          "name": "market",
          "type": "address"
        },
        {
          "internalType": "address",
          "name": "collateralToken",
          "type": "address"
        },
        {
          "internalType": "bool",
          "name": "isLong",
          "type": "bool"
        },
        {
          "components": [
            {
              "internalType": "uint256",
              "name": "signerInfo",
              "type": "uint256"
            },
            {
              "internalType": "address[]",
              "name": "tokens",
              "type": "address[]"
            },
            {
              "internalType": "uint256[]",
              "name": "compactedMinOracleBlockNumbers",
              "type": "uint256[]"
            },
            {
              "internalType": "uint256[]",
              "name": "compactedMaxOracleBlockNumbers",
              "type": "uint256[]"
            },
            {
              "internalType": "uint256[]",
              "name": "compactedOracleTimestamps",
              "type": "uint256[]"
            },
            {
              "internalType": "uint256[]",
              "name": "compactedDecimals",
              "type": "uint256[]"
            },
            {
              "internalType": "uint256[]",
              "name": "compactedMinPrices",
              "type": "uint256[]"
            },
            {
              "internalType": "uint256[]",
              "name": "compactedMinPricesIndexes",
              "type": "uint256[]"
            },
            {
              "internalType": "uint256[]",
              "name": "compactedMaxPrices",
              "type": "uint256[]"
            },
            {
              "internalType": "uint256[]",
              "name": "compactedMaxPricesIndexes",
              "type": "uint256[]"
            },
            {
              "internalType": "bytes[]",
              "name": "signatures",
              "type": "bytes[]"
            },
            {
              "internalType": "address[]",
              "name": "priceFeedTokens",
              "type": "address[]"
            }
          ],
          "internalType": "struct OracleUtils.SetPricesParams",
          "name": "oracleParams",
          "type": "tuple"
        }
      ],
      "name": "executeLiquidation",
      "outputs": [],
      "stateMutability": "nonpayable",
      "type": "function"
    },
    {
      "inputs": [],
      "name": "oracle",
      "outputs": [
        {
          "internalType": "contract Oracle",
          "name": "",
          "type": "address"
        }
      ],
      "stateMutability": "view",
      "type": "function"
    },
    {
      "inputs": [],
      "name": "orderVault",
      "outputs": [
        {
          "internalType": "contract OrderVault",
          "name": "",
          "type": "address"
        }
      ],
      "stateMutability": "view",
      "type": "function"
    },
    {
      "inputs": [],
      "name": "referralStorage",
      "outputs": [
        {
          "internalType": "contract IReferralStorage",
          "name": "",
          "type": "address"
        }
      ],
      "stateMutability": "view",
      "type": "function"
    },
    {
      "inputs": [],
      "name": "roleStore",
      "outputs": [
        {
          "internalType": "contract RoleStore",
          "name": "",
          "type": "address"
        }
      ],
      "stateMutability": "view",
      "type": "function"
    },
    {
      "inputs": [],
      "name": "swapHandler",
      "outputs": [
        {
          "internalType": "contract SwapHandler",
          "name": "",
          "type": "address"
        }
      ],
      "stateMutability": "view",
      "type": "function"
    }
  ],
  "bytecode": "0x6101606040523480156200001257600080fd5b50604051620023c2380380620023c2833981016040819052620000359162000085565b6001600160a01b0395861660805295851660a05292841660c05290831660e052821661012052811661010052166101405262000130565b6001600160a01b03811681146200008257600080fd5b50565b600080600080600080600060e0888a031215620000a157600080fd5b8751620000ae816200006c565b6020890151909750620000c1816200006c565b6040890151909650620000d4816200006c565b6060890151909550620000e7816200006c565b6080890151909450620000fa816200006c565b60a08901519093506200010d816200006c565b60c089015190925062000120816200006c565b8091505092959891949750929550565b60805160a05160c05160e0516101005161012051610140516121c3620001ff600039600081816081015261096501526000818161010c01528181610241015261090f015260008181610133015261093a01526000818161015a01526108e4015260008181610181015281816102830152818161034f01526108b901526000818160be01526106f701526000818160e501528181610262015281816103270152818161051c01528181610624015281816107d601528181610857015281816108910152610b0801526121c36000f3fe608060405234801561001057600080fd5b50600436106100775760003560e01c80626cc35e1461007c5780634a4a7b04146100b9578063660d0d67146100e05780637dc0d1d0146101075780638a53aaac1461012e57806393845e46146101555780639ff78c301461017c578063efff1475146101a3575b600080fd5b6100a37f000000000000000000000000000000000000000000000000000000000000000081565b6040516100b09190611203565b60405180910390f35b6100a37f000000000000000000000000000000000000000000000000000000000000000081565b6100a37f000000000000000000000000000000000000000000000000000000000000000081565b6100a37f000000000000000000000000000000000000000000000000000000000000000081565b6100a37f000000000000000000000000000000000000000000000000000000000000000081565b6100a37f000000000000000000000000000000000000000000000000000000000000000081565b6100a37f000000000000000000000000000000000000000000000000000000000000000081565b6101b66101b136600461123a565b6101b8565b005b6101c0610518565b61023f6040516020016101f9906020808252601290820152712624a8aaa4a220aa24a7a72fa5a2a2a822a960711b604082015260600190565b60405160208183030381529060405280519060200120604051806040016040528060128152602001712624a8aaa4a220aa24a7a72fa5a2a2a822a960711b8152506106e0565b7f00000000000000000000000000000000000000000000000000000000000000007f00000000000000000000000000000000000000000000000000000000000000007f00000000000000000000000000000000000000000000000000000000000000006102ab84611574565b60405163df02681160e01b81526001600160a01b0385169063df026811906102db90869086908690600401611852565b600060405180830381600087803b1580156102f557600080fd5b505af1158015610309573d6000803e3d6000fd5b5050505060005a60405163cd17310760e01b81526001600160a01b037f0000000000000000000000000000000000000000000000000000000000000000811660048301527f000000000000000000000000000000000000000000000000000000000000000081166024830152808d166044830152808c1660648301528a16608482015288151560a482015290915060009073__$24ecf20cb15267250766fd478de108983d$__9063cd1731079060c401602060405180830381865af41580156103d6573d6000803e3d6000fd5b505050506040513d601f19601f820116820180604052508101906103fa91906119cd565b905060006104148261040b8a611574565b33866000610790565b8051516040820151602001515191925061044991610444903090600781111561043f5761043f6119e6565b610a45565b610adb565b604051630893a94f60e41b815273__$18943158f75973db0541c3d7c8650b2485$__9063893a94f090610480908490600401611be7565b60006040518083038186803b15801561049857600080fd5b505af41580156104ac573d6000803e3d6000fd5b50505050505050836001600160a01b031662ccf1556040518163ffffffff1660e01b8152600401600060405180830381600087803b1580156104ed57600080fd5b505af1158015610501573d6000803e3d6000fd5b5050505050505050610511610b06565b5050505050565b60007f00000000000000000000000000000000000000000000000000000000000000006001600160a01b031663bd02d0f560405160200161055890611d16565b604051602081830303815290604052805190602001206040518263ffffffff1660e01b815260040161058c91815260200190565b602060405180830381865afa1580156105a9573d6000803e3d6000fd5b505050506040513d601f19601f820116820180604052508101906105cd91906119cd565b905080156106225760405162461bcd60e51b815260206004820152601f60248201527f5265656e7472616e637947756172643a207265656e7472616e742063616c6c0060448201526064015b60405180910390fd5b7f00000000000000000000000000000000000000000000000000000000000000006001600160a01b031663e2a4853a60405160200161066090611d16565b60408051601f198184030181529082905280516020909101206001600160e01b031960e084901b1682526004820152600160248201526044016020604051808303816000875af11580156106b8573d6000803e3d6000fd5b505050506040513d601f19601f820116820180604052508101906106dc91906119cd565b5050565b60405163ac4ab3fb60e01b81526001600160a01b037f0000000000000000000000000000000000000000000000000000000000000000169063ac4ab3fb9061072e9033908690600401611d47565b602060405180830381865afa15801561074b573d6000803e3d6000fd5b505050506040513d601f19601f8201168201806040525081019061076f9190611d60565b6106dc57338160405163a35b150b60e01b8152600401610619929190611d7d565b610798611082565b6107a0611082565b6020810187905260405163fdfc26f360e01b815273__$9dcb75ef0bb6c4288f2ccffe7dc492c4eb$__9063fdfc26f390610800907f0000000000000000000000000000000000000000000000000000000000000000908b90600401611d47565b600060405180830381865af415801561081d573d6000803e3d6000fd5b505050506040513d6000823e601f3d908101601f191682016040526108459190810190611f23565b604082018190525160c0015161087c907f000000000000000000000000000000000000000000000000000000000000000090610bc3565b60608083019190915281516001600160a01b037f0000000000000000000000000000000000000000000000000000000000000000811690915282517f0000000000000000000000000000000000000000000000000000000000000000821660209182015283517f0000000000000000000000000000000000000000000000000000000000000000831660409182015284517f0000000000000000000000000000000000000000000000000000000000000000841694019390935283517f0000000000000000000000000000000000000000000000000000000000000000831660809091015283517f000000000000000000000000000000000000000000000000000000000000000090921660a0909201919091529087015190870151516109a39190610c89565b608082015260608601516020870151516109bd9190610c89565b60a0820152604081015151608001516001600160a01b0316156109f757805151604082015151608001516109f19190610d15565b60c08201525b6001600160a01b03851660e082015261010081018490526101208101836001811115610a2557610a256119e6565b90816001811115610a3857610a386119e6565b9052509695505050505050565b6000604051602001610a88906020808252601e908201527f455845435554455f4f524445525f464541545552455f44495341424c45440000604082015260600190565b60408051601f198184030181528282528051602091820120908301526001600160a01b03851690820152606081018390526080016040516020818303038152906040528051906020012090505b92915050565b610ae58282610db7565b156106dc5760405163dd70e0c960e01b815260048101829052602401610619565b7f00000000000000000000000000000000000000000000000000000000000000006001600160a01b031663e2a4853a604051602001610b4490611d16565b60408051601f198184030181529082905280516020909101206001600160e01b031960e084901b1682526004820152600060248201526044016020604051808303816000875af1158015610b9c573d6000803e3d6000fd5b505050506040513d601f19601f82011682018060405250810190610bc091906119cd565b50565b6060600082516001600160401b03811115610be057610be06112c9565b604051908082528060200260200182016040528015610c1957816020015b610c0661110e565b815260200190600190039081610bfe5790505b50905060005b8351811015610c81576000848281518110610c3c57610c3c612047565b60200260200101519050610c508682610d15565b838381518110610c6257610c62612047565b6020026020010181905250508080610c7990612073565b915050610c1f565b509392505050565b60606000826001600160401b03811115610ca557610ca56112c9565b604051908082528060200260200182016040528015610cce578160200160208202803683370190505b50905060005b83811015610c8157610ce68582610e23565b828281518110610cf857610cf8612047565b602090810291909101015280610d0d81612073565b915050610cd4565b610d1d61110e565b60405163a8d8fff560e01b81526001600160a01b0380851660048301528316602482015260009073__$ff439aa65a80c9eec648f15db20b189505$__9063a8d8fff590604401608060405180830381865af4158015610d80573d6000803e3d6000fd5b505050506040513d601f19601f82011682018060405250810190610da4919061208c565b9050610db08482610e95565b9392505050565b604051633d70e7e560e11b8152600481018290526000906001600160a01b03841690637ae1cfca90602401602060405180830381865afa158015610dff573d6000803e3d6000fd5b505050506040513d601f19601f82011682018060405250810190610db09190611d60565b600080610e6f8484604060c0600019901c6040518060400160405280601f81526020017f676574556e636f6d7061637465644f7261636c65426c6f636b4e756d62657200815250610f63565b905080600003610db05760405163349f5fdd60e11b815260048101849052602401610619565b80516001600160a01b0316610ebd576040516302fde0d760e11b815260040160405180910390fd5b6000826001600160a01b0316637ae1cfca610edb8460000151611000565b6040518263ffffffff1660e01b8152600401610ef991815260200190565b602060405180830381865afa158015610f16573d6000803e3d6000fd5b505050506040513d601f19601f82011682018060405250810190610f3a9190611d60565b90508015610f5e5781516040516309f8c93760e01b81526106199190600401611203565b505050565b600080610f7285610100612110565b90506000610f808288612110565b905087518110610fab578787828660405163bdec9c0d60e01b81526004016106199493929190612132565b6000888281518110610fbf57610fbf612047565b602002602001015190506000878484610fd89190612163565b610fe2908b61217a565b610fec9190612163565b9190911c8616935050505095945050505050565b6000604051602001611038906020808252601290820152711254d7d3505492d15517d11254d05093115160721b604082015260600190565b60408051601f198184030181528282528051602091820120908301526001600160a01b03841690820152606001604051602081830303815290604052805190602001209050919050565b604080516102008101825260006101408201818152610160830182905261018083018290526101a083018290526101c083018290526101e08301829052825260208201529081016110d1611135565b81526020016060815260200160608152602001606081526020016110f361110e565b81526000602082018190526040820181905260609091015290565b60408051608081018252600080825260208201819052918101829052606081019190915290565b604080516101408101909152600060608083018281526080840183905260a0840183905260c0840183905260e084018390526101008401929092526101208301528152602081016111d360408051610140810190915280600081526020016000815260200160008152602001600081526020016000815260200160008152602001600081526020016000815260200160008152602001600081525090565b815260408051606081018252600080825260208281018290529282015291015290565b6001600160a01b03169052565b6001600160a01b0391909116815260200190565b6001600160a01b0381168114610bc057600080fd5b8015158114610bc057600080fd5b600080600080600060a0868803121561125257600080fd5b853561125d81611217565b9450602086013561126d81611217565b9350604086013561127d81611217565b9250606086013561128d8161122c565b915060808601356001600160401b038111156112a857600080fd5b860161018081890312156112bb57600080fd5b809150509295509295909350565b634e487b7160e01b600052604160045260246000fd5b60405161018081016001600160401b0381118282101715611302576113026112c9565b60405290565b60405161014081016001600160401b0381118282101715611302576113026112c9565b604051606081016001600160401b0381118282101715611302576113026112c9565b60405160e081016001600160401b0381118282101715611302576113026112c9565b604051601f8201601f191681016001600160401b0381118282101715611397576113976112c9565b604052919050565b60006001600160401b038211156113b8576113b86112c9565b5060051b60200190565b600082601f8301126113d357600080fd5b813560206113e86113e38361139f565b61136f565b82815260059290921b8401810191818101908684111561140757600080fd5b8286015b8481101561142b57803561141e81611217565b835291830191830161140b565b509695505050505050565b600082601f83011261144757600080fd5b813560206114576113e38361139f565b82815260059290921b8401810191818101908684111561147657600080fd5b8286015b8481101561142b578035835291830191830161147a565b6000601f83818401126114a357600080fd5b823560206114b36113e38361139f565b82815260059290921b850181019181810190878411156114d257600080fd5b8287015b848110156115685780356001600160401b03808211156114f65760008081fd5b818a0191508a603f83011261150b5760008081fd5b85820135604082821115611521576115216112c9565b611532828b01601f1916890161136f565b92508183528c818386010111156115495760008081fd5b81818501898501375060009082018701528452509183019183016114d6565b50979650505050505050565b6000610180823603121561158757600080fd5b61158f6112df565b8235815260208301356001600160401b03808211156115ad57600080fd5b6115b9368387016113c2565b602084015260408501359150808211156115d257600080fd5b6115de36838701611436565b604084015260608501359150808211156115f757600080fd5b61160336838701611436565b6060840152608085013591508082111561161c57600080fd5b61162836838701611436565b608084015260a085013591508082111561164157600080fd5b61164d36838701611436565b60a084015260c085013591508082111561166657600080fd5b61167236838701611436565b60c084015260e085013591508082111561168b57600080fd5b61169736838701611436565b60e0840152610100915081850135818111156116b257600080fd5b6116be36828801611436565b8385015250610120915081850135818111156116d957600080fd5b6116e536828801611436565b83850152506101409150818501358181111561170057600080fd5b61170c36828801611491565b83850152506101609150818501358181111561172757600080fd5b611733368288016113c2565b8385015250505080915050919050565b600081518084526020808501945080840160005b8381101561177c5781516001600160a01b031687529582019590820190600101611757565b509495945050505050565b600081518084526020808501945080840160005b8381101561177c5781518752958201959082019060010161179b565b6000815180845260005b818110156117dd576020818501810151868301820152016117c1565b506000602082860101526020601f19601f83011685010191505092915050565b600081518084526020808501808196508360051b8101915082860160005b858110156118455782840389526118338483516117b7565b9885019893509084019060010161181b565b5091979650505050505050565b600060018060a01b038086168352808516602084015250606060408301528251606083015260208301516101808060808501526118936101e0850183611743565b91506040850151605f19808685030160a08701526118b18483611787565b935060608701519150808685030160c08701526118ce8483611787565b935060808701519150808685030160e08701526118eb8483611787565b935060a0870151915061010081878603018188015261190a8584611787565b945060c088015192506101208288870301818901526119298685611787565b955060e089015193506101408389880301818a01526119488786611787565b9650828a0151945061016092508389880301838a01526119688786611787565b9650818a015194508389880301868a01526119838786611787565b9650808a01519550505081878603016101a08801526119a285856117fd565b94508088015193505080868503016101c087015250506119c28282611743565b979650505050505050565b6000602082840312156119df57600080fd5b5051919050565b634e487b7160e01b600052602160045260246000fd5b60088110611a0c57611a0c6119e6565b9052565b60038110611a0c57611a0c6119e6565b611a2b8282516119fc565b6020810151611a3d6020840182611a10565b5060408101516040830152606081015160608301526080810151608083015260a081015160a083015260c081015160c083015260e081015160e08301526101008082015181840152506101208082015181840152505050565b80516101c080845281516001600160a01b0390811691850191909152602082015181166101e08501526040820151166102008401526060810151600091611ae16102208601836111f6565b60808101519150611af66102408601836111f6565b60a08101519150611b0b6102608601836111f6565b60c0015160e06102808601529050611b276102a0850182611743565b90506020830151611b3b6020860182611a20565b5060408381015180511515610160870152602081015115156101808701529081015115156101a0860152610c81565b80516001600160a01b03908116835260208083015182169084015260408083015182169084015260609182015116910152565b600081518084526020808501945080840160005b8381101561177c57611bc4878351611b6a565b6080969096019590820190600101611bb1565b60028110611a0c57611a0c6119e6565b60208152611c3f60208201835180516001600160a01b03908116835260208083015182169084015260408083015182169084015260608083015182169084015260808083015182169084015260a09182015116910152565b602082015160e0820152600060408301516102406101008181860152611c69610260860184611a96565b92506060860151601f19610120818887030181890152611c898684611b9d565b9550608089015192508188870301610140890152611ca78684611787565b955060a089015192508188870301610160890152611cc58684611787565b955060c08901519250611cdc610180890184611b6a565b60e08901519250611cf16102008901846111f6565b928801516102208801525050850151611d0c82860182611bd7565b5090949350505050565b6020808252601790820152765245454e5452414e43595f47554152445f53544154555360481b604082015260600190565b6001600160a01b03929092168252602082015260400190565b600060208284031215611d7257600080fd5b8151610db08161122c565b6001600160a01b0383168152604060208201819052600090611da1908301846117b7565b949350505050565b8051611db481611217565b919050565b600082601f830112611dca57600080fd5b81516020611dda6113e38361139f565b82815260059290921b84018101918181019086841115611df957600080fd5b8286015b8481101561142b578051611e1081611217565b8352918301918301611dfd565b805160088110611db457600080fd5b805160038110611db457600080fd5b60006101408284031215611e4e57600080fd5b611e56611308565b9050611e6182611e1d565b8152611e6f60208301611e2c565b602082015260408201516040820152606082015160608201526080820151608082015260a082015160a082015260c082015160c082015260e082015160e082015261010080830151818301525061012080830151818301525092915050565b600060608284031215611ee057600080fd5b611ee861132b565b90508151611ef58161122c565b81526020820151611f058161122c565b60208201526040820151611f188161122c565b604082015292915050565b600060208284031215611f3557600080fd5b81516001600160401b0380821115611f4c57600080fd5b908301906101c08286031215611f6157600080fd5b611f6961132b565b825182811115611f7857600080fd5b830160e08188031215611f8a57600080fd5b611f9261134d565b611f9b82611da9565b8152611fa960208301611da9565b6020820152611fba60408301611da9565b6040820152611fcb60608301611da9565b6060820152611fdc60808301611da9565b6080820152611fed60a08301611da9565b60a082015260c08201518481111561200457600080fd5b61201089828501611db9565b60c0830152508252506120268660208501611e3b565b6020820152612039866101608501611ece565b604082015295945050505050565b634e487b7160e01b600052603260045260246000fd5b634e487b7160e01b600052601160045260246000fd5b6000600182016120855761208561205d565b5060010190565b60006080828403121561209e57600080fd5b604051608081016001600160401b03811182821017156120c0576120c06112c9565b60405282516120ce81611217565b815260208301516120de81611217565b602082015260408301516120f181611217565b6040820152606083015161210481611217565b60608201529392505050565b60008261212d57634e487b7160e01b600052601260045260246000fd5b500490565b6080815260006121456080830187611787565b85602084015284604084015282810360608401526119c281856117b7565b8082028115828204841417610ad557610ad561205d565b81810381811115610ad557610ad561205d56fea26469706673582212209ee37c32509ce067e1171ff221df304e29fb0e3309706d2bbed1209abd74262364736f6c63430008120033",
  "linkReferences": {
    "contracts/liquidation/LiquidationUtils.sol": {
      "LiquidationUtils": [
        {
          "length": 20,
          "start": 1435
        }
      ]
    },
    "contracts/market/MarketStoreUtils.sol": {
      "MarketStoreUtils": [
        {
          "length": 20,
          "start": 3909
        }
      ]
    },
    "contracts/order/OrderStoreUtils.sol": {
      "OrderStoreUtils": [
        {
          "length": 20,
          "start": 2485
        }
      ]
    },
    "contracts/order/OrderUtils.sol": {
      "OrderUtils": [
        {
          "length": 20,
          "start": 1623
        }
      ]
    }
  },
  "deployedLinkReferences": {
    "contracts/liquidation/LiquidationUtils.sol": {
      "LiquidationUtils": [
        {
          "length": 20,
          "start": 924
        }
      ]
    },
    "contracts/market/MarketStoreUtils.sol": {
      "MarketStoreUtils": [
        {
          "length": 20,
          "start": 3398
        }
      ]
    },
    "contracts/order/OrderStoreUtils.sol": {
      "OrderStoreUtils": [
        {
          "length": 20,
          "start": 1974
        }
      ]
    },
    "contracts/order/OrderUtils.sol": {
      "OrderUtils": [
        {
          "length": 20,
          "start": 1112
        }
      ]
    }
  }
}