{
  "_format": "hh-sol-artifact-1",
  "contractName": "DepositHandler",
  "sourceName": "contracts/exchange/DepositHandler.sol",
  "abi": [
    {
      "inputs": [
        {
          "internalType": "contract RoleStore",
          "name": "_roleStore",
          "type": "address"
        },
        {
          "internalType": "contract DataStore",
          "name": "_dataStore",
          "type": "address"
        },
        {
          "internalType": "contract EventEmitter",
          "name": "_eventEmitter",
          "type": "address"
        },
        {
          "internalType": "contract DepositVault",
          "name": "_depositVault",
          "type": "address"
        },
        {
          "internalType": "contract Oracle",
          "name": "_oracle",
          "type": "address"
        }
      ],
      "stateMutability": "nonpayable",
      "type": "constructor"
    },
    {
      "inputs": [
        {
          "internalType": "uint256[]",
          "name": "compactedValues",
          "type": "uint256[]"
        },
        {
          "internalType": "uint256",
          "name": "index",
          "type": "uint256"
        },
        {
          "internalType": "uint256",
          "name": "slotIndex",
          "type": "uint256"
        },
        {
          "internalType": "string",
          "name": "label",
          "type": "string"
        }
      ],
      "name": "CompactedArrayOutOfBounds",
      "type": "error"
    },
    {
      "inputs": [
        {
          "internalType": "bytes32",
          "name": "key",
          "type": "bytes32"
        }
      ],
      "name": "DisabledFeature",
      "type": "error"
    },
    {
      "inputs": [
        {
          "internalType": "uint256",
          "name": "index",
          "type": "uint256"
        }
      ],
      "name": "EmptyCompactedBlockNumber",
      "type": "error"
    },
    {
      "inputs": [],
      "name": "EndOfOracleSimulation",
      "type": "error"
    },
    {
      "inputs": [
        {
          "internalType": "uint256",
          "name": "startingGas",
          "type": "uint256"
        },
        {
          "internalType": "uint256",
          "name": "minHandleErrorGas",
          "type": "uint256"
        }
      ],
      "name": "InsufficientExecutionGas",
      "type": "error"
    },
    {
      "inputs": [
        {
          "internalType": "uint256",
          "name": "primaryTokensLength",
          "type": "uint256"
        },
        {
          "internalType": "uint256",
          "name": "primaryPricesLength",
          "type": "uint256"
        }
      ],
      "name": "InvalidPrimaryPricesForSimulation",
      "type": "error"
    },
    {
      "inputs": [
        {
          "internalType": "uint256",
          "name": "requestAge",
          "type": "uint256"
        },
        {
          "internalType": "uint256",
          "name": "requestExpirationAge",
          "type": "uint256"
        },
        {
          "internalType": "string",
          "name": "requestType",
          "type": "string"
        }
      ],
      "name": "RequestNotYetCancellable",
      "type": "error"
    },
    {
      "inputs": [
        {
          "internalType": "address",
          "name": "msgSender",
          "type": "address"
        },
        {
          "internalType": "string",
          "name": "role",
          "type": "string"
        }
      ],
      "name": "Unauthorized",
      "type": "error"
    },
    {
      "anonymous": false,
      "inputs": [
        {
          "indexed": false,
          "internalType": "string",
          "name": "reason",
          "type": "string"
        }
      ],
      "name": "OracleError",
      "type": "event"
    },
    {
      "inputs": [
        {
          "internalType": "bytes32",
          "name": "key",
          "type": "bytes32"
        },
        {
          "components": [
            {
              "internalType": "uint256",
              "name": "signerInfo",
              "type": "uint256"
            },
            {
              "internalType": "address[]",
              "name": "tokens",
              "type": "address[]"
            },
            {
              "internalType": "uint256[]",
              "name": "compactedMinOracleBlockNumbers",
              "type": "uint256[]"
            },
            {
              "internalType": "uint256[]",
              "name": "compactedMaxOracleBlockNumbers",
              "type": "uint256[]"
            },
            {
              "internalType": "uint256[]",
              "name": "compactedOracleTimestamps",
              "type": "uint256[]"
            },
            {
              "internalType": "uint256[]",
              "name": "compactedDecimals",
              "type": "uint256[]"
            },
            {
              "internalType": "uint256[]",
              "name": "compactedMinPrices",
              "type": "uint256[]"
            },
            {
              "internalType": "uint256[]",
              "name": "compactedMinPricesIndexes",
              "type": "uint256[]"
            },
            {
              "internalType": "uint256[]",
              "name": "compactedMaxPrices",
              "type": "uint256[]"
            },
            {
              "internalType": "uint256[]",
              "name": "compactedMaxPricesIndexes",
              "type": "uint256[]"
            },
            {
              "internalType": "bytes[]",
              "name": "signatures",
              "type": "bytes[]"
            },
            {
              "internalType": "address[]",
              "name": "priceFeedTokens",
              "type": "address[]"
            }
          ],
          "internalType": "struct OracleUtils.SetPricesParams",
          "name": "oracleParams",
          "type": "tuple"
        },
        {
          "internalType": "address",
          "name": "keeper",
          "type": "address"
        }
      ],
      "name": "_executeDeposit",
      "outputs": [],
      "stateMutability": "nonpayable",
      "type": "function"
    },
    {
      "inputs": [
        {
          "internalType": "bytes32",
          "name": "key",
          "type": "bytes32"
        }
      ],
      "name": "cancelDeposit",
      "outputs": [],
      "stateMutability": "nonpayable",
      "type": "function"
    },
    {
      "inputs": [
        {
          "internalType": "address",
          "name": "account",
          "type": "address"
        },
        {
          "components": [
            {
              "internalType": "address",
              "name": "receiver",
              "type": "address"
            },
            {
              "internalType": "address",
              "name": "callbackContract",
              "type": "address"
            },
            {
              "internalType": "address",
              "name": "uiFeeReceiver",
              "type": "address"
            },
            {
              "internalType": "address",
              "name": "market",
              "type": "address"
            },
            {
              "internalType": "address",
              "name": "initialLongToken",
              "type": "address"
            },
            {
              "internalType": "address",
              "name": "initialShortToken",
              "type": "address"
            },
            {
              "internalType": "address[]",
              "name": "longTokenSwapPath",
              "type": "address[]"
            },
            {
              "internalType": "address[]",
              "name": "shortTokenSwapPath",
              "type": "address[]"
            },
            {
              "internalType": "uint256",
              "name": "minMarketTokens",
              "type": "uint256"
            },
            {
              "internalType": "bool",
              "name": "shouldUnwrapNativeToken",
              "type": "bool"
            },
            {
              "internalType": "uint256",
              "name": "executionFee",
              "type": "uint256"
            },
            {
              "internalType": "uint256",
              "name": "callbackGasLimit",
              "type": "uint256"
            }
          ],
          "internalType": "struct DepositUtils.CreateDepositParams",
          "name": "params",
          "type": "tuple"
        }
      ],
      "name": "createDeposit",
      "outputs": [
        {
          "internalType": "bytes32",
          "name": "",
          "type": "bytes32"
        }
      ],
      "stateMutability": "nonpayable",
      "type": "function"
    },
    {
      "inputs": [],
      "name": "dataStore",
      "outputs": [
        {
          "internalType": "contract DataStore",
          "name": "",
          "type": "address"
        }
      ],
      "stateMutability": "view",
      "type": "function"
    },
    {
      "inputs": [],
      "name": "depositVault",
      "outputs": [
        {
          "internalType": "contract DepositVault",
          "name": "",
          "type": "address"
        }
      ],
      "stateMutability": "view",
      "type": "function"
    },
    {
      "inputs": [],
      "name": "eventEmitter",
      "outputs": [
        {
          "internalType": "contract EventEmitter",
          "name": "",
          "type": "address"
        }
      ],
      "stateMutability": "view",
      "type": "function"
    },
    {
      "inputs": [
        {
          "internalType": "bytes32",
          "name": "key",
          "type": "bytes32"
        },
        {
          "components": [
            {
              "internalType": "uint256",
              "name": "signerInfo",
              "type": "uint256"
            },
            {
              "internalType": "address[]",
              "name": "tokens",
              "type": "address[]"
            },
            {
              "internalType": "uint256[]",
              "name": "compactedMinOracleBlockNumbers",
              "type": "uint256[]"
            },
            {
              "internalType": "uint256[]",
              "name": "compactedMaxOracleBlockNumbers",
              "type": "uint256[]"
            },
            {
              "internalType": "uint256[]",
              "name": "compactedOracleTimestamps",
              "type": "uint256[]"
            },
            {
              "internalType": "uint256[]",
              "name": "compactedDecimals",
              "type": "uint256[]"
            },
            {
              "internalType": "uint256[]",
              "name": "compactedMinPrices",
              "type": "uint256[]"
            },
            {
              "internalType": "uint256[]",
              "name": "compactedMinPricesIndexes",
              "type": "uint256[]"
            },
            {
              "internalType": "uint256[]",
              "name": "compactedMaxPrices",
              "type": "uint256[]"
            },
            {
              "internalType": "uint256[]",
              "name": "compactedMaxPricesIndexes",
              "type": "uint256[]"
            },
            {
              "internalType": "bytes[]",
              "name": "signatures",
              "type": "bytes[]"
            },
            {
              "internalType": "address[]",
              "name": "priceFeedTokens",
              "type": "address[]"
            }
          ],
          "internalType": "struct OracleUtils.SetPricesParams",
          "name": "oracleParams",
          "type": "tuple"
        }
      ],
      "name": "executeDeposit",
      "outputs": [],
      "stateMutability": "nonpayable",
      "type": "function"
    },
    {
      "inputs": [],
      "name": "oracle",
      "outputs": [
        {
          "internalType": "contract Oracle",
          "name": "",
          "type": "address"
        }
      ],
      "stateMutability": "view",
      "type": "function"
    },
    {
      "inputs": [],
      "name": "roleStore",
      "outputs": [
        {
          "internalType": "contract RoleStore",
          "name": "",
          "type": "address"
        }
      ],
      "stateMutability": "view",
      "type": "function"
    },
    {
      "inputs": [
        {
          "internalType": "bytes32",
          "name": "key",
          "type": "bytes32"
        },
        {
          "components": [
            {
              "internalType": "address[]",
              "name": "primaryTokens",
              "type": "address[]"
            },
            {
              "components": [
                {
                  "internalType": "uint256",
                  "name": "min",
                  "type": "uint256"
                },
                {
                  "internalType": "uint256",
                  "name": "max",
                  "type": "uint256"
                }
              ],
              "internalType": "struct Price.Props[]",
              "name": "primaryPrices",
              "type": "tuple[]"
            }
          ],
          "internalType": "struct OracleUtils.SimulatePricesParams",
          "name": "params",
          "type": "tuple"
        }
      ],
      "name": "simulateExecuteDeposit",
      "outputs": [],
      "stateMutability": "nonpayable",
      "type": "function"
    }
  ],
  "bytecode": "0x6101206040523480156200001257600080fd5b5060405162002e9438038062002e94833981016040819052620000359162000078565b6001600160a01b0393841660805293831660a05290821660c052811660e0521661010052620000f8565b6001600160a01b03811681146200007557600080fd5b50565b600080600080600060a086880312156200009157600080fd5b85516200009e816200005f565b6020870151909550620000b1816200005f565b6040870151909450620000c4816200005f565b6060870151909350620000d7816200005f565b6080870151909250620000ea816200005f565b809150509295509295909350565b60805160a05160c05160e05161010051612cb0620001e460003960008181610139015281816106a40152818161077c0152610a140152600081816101ad015281816102e1015281816104a6015281816106750152611322015260008181610173015281816102bf015281816104850152818161064601528181610a56015261130001526000818160d30152610de4015260008181610112015281816102410152818161029d0152818161038d015281816105b10152818161061701528181610a3501528181610aec01528181610c1201528181610d1501528181610f3701526112de0152612cb06000f3fe608060405234801561001057600080fd5b506004361061008e5760003560e01c80632f6030401461009357806331404484146100b95780634a4a7b04146100ce578063660d0d671461010d5780637dc0d1d0146101345780639cca69341461015b5780639ff78c301461016e578063b9e2f5ee14610195578063d7cd3949146101a8578063f3fa946c146101cf575b600080fd5b6100a66100a13660046117d8565b6101e2565b6040519081526020015b60405180910390f35b6100cc6100c7366004611827565b61035e565b005b6100f57f000000000000000000000000000000000000000000000000000000000000000081565b6040516001600160a01b0390911681526020016100b0565b6100f57f000000000000000000000000000000000000000000000000000000000000000081565b6100f57f000000000000000000000000000000000000000000000000000000000000000081565b6100cc610169366004611cc8565b61055e565b6100f57f000000000000000000000000000000000000000000000000000000000000000081565b6100cc6101a3366004611d22565b610768565b6100f57f000000000000000000000000000000000000000000000000000000000000000081565b6100cc6101dd366004611e3a565b610997565b60006101ec610c0e565b61023c6040516020016101fe90611e6a565b604051602081830303815290604052805190602001206040518060400160405280600a81526020016921a7a72a2927a62622a960b11b815250610dcd565b61026e7f000000000000000000000000000000000000000000000000000000000000000061026930610e7d565b610f0a565b604051639ef3818960e01b815273__$b47f57a87b0fdb80638269130c078613b3$__90639ef381899061030d907f0000000000000000000000000000000000000000000000000000000000000000907f0000000000000000000000000000000000000000000000000000000000000000907f00000000000000000000000000000000000000000000000000000000000000009089908990600401611f3f565b602060405180830381865af415801561032a573d6000803e3d6000fd5b505050506040513d601f19601f8201168201806040525081019061034e91906120a2565b9050610358610f35565b92915050565b610366610c0e565b6103786040516020016101fe90611e6a565b60005a60405163fdfc26f360e01b81529091507f00000000000000000000000000000000000000000000000000000000000000009060009073__$b63e253a228f0e32f671cc49c7fc32477c$__9063fdfc26f3906103dc90859088906004016120bb565b600060405180830381865af41580156103f9573d6000803e3d6000fd5b505050506040513d6000823e601f3d908101601f19168201604052610421919081019061220b565b90506104308261026930610fef565b6104688261044383602001516060015190565b6040518060400160405280600781526020016611195c1bdcda5d60ca1b815250611032565b73__$b47f57a87b0fdb80638269130c078613b3$__636c6a42ac837f00000000000000000000000000000000000000000000000000000000000000007f0000000000000000000000000000000000000000000000000000000000000000886104cf87515190565b60408051808201825260158152741554d15497d2539255125055115117d0d05390d153605a1b602082015290516001600160e01b031960e089901b1681526105209695949392918c916004016123b5565b60006040518083038186803b15801561053857600080fd5b505af415801561054c573d6000803e3d6000fd5b5050505050505061055b610f35565b50565b3330146105a7576040805163a35b150b60e01b815233600480830191909152602482019290925260448101919091526329a2a62360e11b60648201526084015b60405180910390fd5b60005a90506105d97f00000000000000000000000000000000000000000000000000000000000000006102693061113f565b60006105ee8460400151856020015151611180565b905060006106058560600151866020015151611180565b905060006040518061012001604052807f00000000000000000000000000000000000000000000000000000000000000006001600160a01b031681526020017f00000000000000000000000000000000000000000000000000000000000000006001600160a01b031681526020017f00000000000000000000000000000000000000000000000000000000000000006001600160a01b031681526020017f00000000000000000000000000000000000000000000000000000000000000006001600160a01b03168152602001888152602001848152602001838152602001866001600160a01b0316815260200185815250905073__$a26e5ecaf38b60f56220843100c2d8b777$__63945f9875826040518263ffffffff1660e01b815260040161072f9190612450565b60006040518083038186803b15801561074757600080fd5b505af415801561075b573d6000803e3d6000fd5b5050505050505050505050565b61077a6040516020016101fe90611e6a565b7f000000000000000000000000000000000000000000000000000000000000000081806020015151816000015151146107d85780515160208201515160405163663de02360e01b81526004810192909252602482015260440161059e565b60005b8151518110156108af576000826000015182815181106107fd576107fd612508565b6020026020010151905060008360200151838151811061081f5761081f612508565b6020908102919091018101516040516347cba33d60e01b81526001600160a01b03858116600483015282516024830152928201516044820152909250908616906347cba33d90606401600060405180830381600087803b15801561088257600080fd5b505af1158015610896573d6000803e3d6000fd5b50505050505080806108a790612534565b9150506107db565b506108b8610c0e565b61091c6040518061018001604052806000815260200160608152602001606081526020016060815260200160608152602001606081526020016060815260200160608152602001606081526020016060815260200160608152602001606081525090565b6040516327329a4d60e21b81523090639cca69349061094390889085903390600401612710565b600060405180830381600087803b15801561095d57600080fd5b505af1158015610971573d6000803e3d6000fd5b505050505061097e610f35565b6040516327246e6d60e11b815260040160405180910390fd5b61099f610c0e565b610a126040516020016109d2906020808252600c908201526b27a92222a92fa5a2a2a822a960a11b604082015260600190565b604051602081830303815290604052805190602001206040518060400160405280600c81526020016b27a92222a92fa5a2a2a822a960a11b815250610dcd565b7f00000000000000000000000000000000000000000000000000000000000000007f00000000000000000000000000000000000000000000000000000000000000007f0000000000000000000000000000000000000000000000000000000000000000610a7e84612741565b60405163df02681160e01b81526001600160a01b0385169063df02681190610aae9086908690869060040161274d565b600060405180830381600087803b158015610ac857600080fd5b505af1158015610adc573d6000803e3d6000fd5b5050505060005a90506000610b117f000000000000000000000000000000000000000000000000000000000000000083611214565b6040516327329a4d60e21b81529091503090639cca6934908390610b3d908c908c90339060040161289f565b600060405180830381600088803b158015610b5757600080fd5b5087f193505050508015610b69575060015b610baa573d808015610b97576040519150601f19603f3d011682016040523d82523d6000602084013e610b9c565b606091505b50610ba889848361125f565b505b5050836001600160a01b031662ccf1556040518163ffffffff1660e01b8152600401600060405180830381600087803b158015610be657600080fd5b505af1158015610bfa573d6000803e3d6000fd5b5050505050505050610c0a610f35565b5050565b60007f00000000000000000000000000000000000000000000000000000000000000006001600160a01b031663bd02d0f5604051602001610c4e90612a86565b604051602081830303815290604052805190602001206040518263ffffffff1660e01b8152600401610c8291815260200190565b602060405180830381865afa158015610c9f573d6000803e3d6000fd5b505050506040513d601f19601f82011682018060405250810190610cc391906120a2565b90508015610d135760405162461bcd60e51b815260206004820152601f60248201527f5265656e7472616e637947756172643a207265656e7472616e742063616c6c00604482015260640161059e565b7f00000000000000000000000000000000000000000000000000000000000000006001600160a01b031663e2a4853a604051602001610d5190612a86565b60408051601f198184030181529082905280516020909101206001600160e01b031960e084901b1682526004820152600160248201526044016020604051808303816000875af1158015610da9573d6000803e3d6000fd5b505050506040513d601f19601f82011682018060405250810190610c0a91906120a2565b60405163ac4ab3fb60e01b81526001600160a01b037f0000000000000000000000000000000000000000000000000000000000000000169063ac4ab3fb90610e1b90339086906004016120bb565b602060405180830381865afa158015610e38573d6000803e3d6000fd5b505050506040513d601f19601f82011682018060405250810190610e5c9190612ab7565b610c0a57338160405163a35b150b60e01b815260040161059e929190612ad4565b6000604051602001610ec0906020808252601f908201527f4352454154455f4445504f5349545f464541545552455f44495341424c454400604082015260600190565b60408051601f198184030181528282528051602091820120908301526001600160a01b03841690820152606001604051602081830303815290604052805190602001209050919050565b610f14828261138b565b15610c0a5760405163dd70e0c960e01b81526004810182905260240161059e565b7f00000000000000000000000000000000000000000000000000000000000000006001600160a01b031663e2a4853a604051602001610f7390612a86565b60408051601f198184030181529082905280516020909101206001600160e01b031960e084901b1682526004820152600060248201526044016020604051808303816000875af1158015610fcb573d6000803e3d6000fd5b505050506040513d601f19601f8201168201806040525081019061055b91906120a2565b6000604051602001610ec0906020808252601f908201527f43414e43454c5f4445504f5349545f464541545552455f44495341424c454400604082015260600190565b6000836001600160a01b031663bd02d0f5604051602001611083906020808252601c908201527b524551554553545f45585049524154494f4e5f424c4f434b5f41474560201b604082015260600190565b604051602081830303815290604052805190602001206040518263ffffffff1660e01b81526004016110b791815260200190565b602060405180830381865afa1580156110d4573d6000803e3d6000fd5b505050506040513d601f19601f820116820180604052508101906110f891906120a2565b90506000836111056113fe565b61110f9190612af8565b90508181101561113857808284604051631d04cc8760e31b815260040161059e93929190612b0b565b5050505050565b6000604051602001610ec0906020808252818101527f455845435554455f4445504f5349545f464541545552455f44495341424c4544604082015260600190565b60606000826001600160401b0381111561119c5761119c61184d565b6040519080825280602002602001820160405280156111c5578160200160208202803683370190505b50905060005b8381101561120c576111dd858261147a565b8282815181106111ef576111ef612508565b60209081029190910101528061120481612534565b9150506111cb565b509392505050565b600080611220846114ec565b90508083101561124d57604051631c09bc2160e01b8152600481018490526024810182905260440161059e565b6112578184612af8565b949350505050565b600061126c826020015190565b9050611277816115b3565b8061129257506001600160e01b0319811663dd70e0c960e01b145b156112a0576112a0826115e9565b60006112ab836115f2565b50604051631b1a90ab60e21b815290915073__$b47f57a87b0fdb80638269130c078613b3$__90636c6a42ac90611354907f0000000000000000000000000000000000000000000000000000000000000000907f0000000000000000000000000000000000000000000000000000000000000000907f0000000000000000000000000000000000000000000000000000000000000000908b9033908c908a908d90600401612b2a565b60006040518083038186803b15801561136c57600080fd5b505af4158015611380573d6000803e3d6000fd5b505050505050505050565b604051633d70e7e560e11b8152600481018290526000906001600160a01b03841690637ae1cfca90602401602060405180830381865afa1580156113d3573d6000803e3d6000fd5b505050506040513d601f19601f820116820180604052508101906113f79190612ab7565b9392505050565b6000611408611682565b156114755760646001600160a01b031663a3b1b31d6040518163ffffffff1660e01b8152600401602060405180830381865afa15801561144c573d6000803e3d6000fd5b505050506040513d601f19601f8201168201806040525081019061147091906120a2565b905090565b504390565b6000806114c68484604060c0600019901c6040518060400160405280601f81526020017f676574556e636f6d7061637465644f7261636c65426c6f636b4e756d62657200815250611699565b9050806000036113f75760405163349f5fdd60e11b81526004810184905260240161059e565b6000816001600160a01b031663bd02d0f560405160200161153e906020808252601e908201527f4d494e5f48414e444c455f455845435554494f4e5f4552524f525f4741530000604082015260600190565b604051602081830303815290604052805190602001206040518263ffffffff1660e01b815260040161157291815260200190565b602060405180830381865afa15801561158f573d6000803e3d6000fd5b505050506040513d601f19601f8201168201806040525081019061035891906120a2565b60006115be82611736565b156115cb57506001919050565b6115d482611778565b156115e157506001919050565b506000919050565b80518060208301fd5b60606000604483511015611619575050604080516020810190915260008082529092909150565b6000611626846020015190565b90506307b9e43360e51b6001600160e01b0319821601611665576004840193508380602001905181019061165a9190612b98565b946001945092505050565b600060405180602001604052806000815250909250925050915091565b600061a4b14614806114705750504662066eed1490565b6000806116a885610100612c05565b905060006116b68288612c05565b9050875181106116e1578787828660405163bdec9c0d60e01b815260040161059e9493929190612c27565b60008882815181106116f5576116f5612508565b60200260200101519050600087848461170e9190612c63565b611718908b612af8565b6117229190612c63565b9190911c8616935050505095945050505050565b600063010dcfd160e71b6001600160e01b031983160161175857506001919050565b6341f057fb60e11b6001600160e01b03198316016115e157506001919050565b600063329b5fdb60e01b6001600160e01b03198316016115e157506001919050565b6001600160a01b038116811461055b57600080fd5b80356117ba8161179a565b919050565b600061018082840312156117d257600080fd5b50919050565b600080604083850312156117eb57600080fd5b82356117f68161179a565b915060208301356001600160401b0381111561181157600080fd5b61181d858286016117bf565b9150509250929050565b60006020828403121561183957600080fd5b5035919050565b6001600160a01b03169052565b634e487b7160e01b600052604160045260246000fd5b60405161018081016001600160401b03811182821017156118865761188661184d565b60405290565b604080519081016001600160401b03811182821017156118865761188661184d565b604051606081016001600160401b03811182821017156118865761188661184d565b60405161012081016001600160401b03811182821017156118865761188661184d565b604051601f8201601f191681016001600160401b038111828210171561191b5761191b61184d565b604052919050565b60006001600160401b0382111561193c5761193c61184d565b5060051b60200190565b600082601f83011261195757600080fd5b8135602061196c61196783611923565b6118f3565b82815260059290921b8401810191818101908684111561198b57600080fd5b8286015b848110156119af5780356119a28161179a565b835291830191830161198f565b509695505050505050565b600082601f8301126119cb57600080fd5b813560206119db61196783611923565b82815260059290921b840181019181810190868411156119fa57600080fd5b8286015b848110156119af57803583529183019183016119fe565b60006001600160401b03821115611a2e57611a2e61184d565b50601f01601f191660200190565b600082601f830112611a4d57600080fd5b81356020611a5d61196783611923565b82815260059290921b84018101918181019086841115611a7c57600080fd5b8286015b848110156119af5780356001600160401b03811115611a9f5760008081fd5b8701603f81018913611ab15760008081fd5b848101356040611ac361196783611a15565b8281528b82848601011115611ad85760008081fd5b8282850189830137600092810188019290925250845250918301918301611a80565b60006101808284031215611b0d57600080fd5b611b15611863565b82358152905060208201356001600160401b0380821115611b3557600080fd5b611b4185838601611946565b60208401526040840135915080821115611b5a57600080fd5b611b66858386016119ba565b60408401526060840135915080821115611b7f57600080fd5b611b8b858386016119ba565b60608401526080840135915080821115611ba457600080fd5b611bb0858386016119ba565b608084015260a0840135915080821115611bc957600080fd5b611bd5858386016119ba565b60a084015260c0840135915080821115611bee57600080fd5b611bfa858386016119ba565b60c084015260e0840135915080821115611c1357600080fd5b611c1f858386016119ba565b60e084015261010091508184013581811115611c3a57600080fd5b611c46868287016119ba565b838501525061012091508184013581811115611c6157600080fd5b611c6d868287016119ba565b838501525061014091508184013581811115611c8857600080fd5b611c9486828701611a3c565b838501525061016091508184013581811115611caf57600080fd5b611cbb86828701611946565b8385015250505092915050565b600080600060608486031215611cdd57600080fd5b8335925060208401356001600160401b03811115611cfa57600080fd5b611d0686828701611afa565b9250506040840135611d178161179a565b809150509250925092565b6000806040808486031215611d3657600080fd5b833592506020808501356001600160401b0380821115611d5557600080fd5b8187019150838289031215611d6957600080fd5b611d7161188c565b823582811115611d8057600080fd5b611d8c8a828601611946565b8252508383013582811115611da057600080fd5b80840193505088601f840112611db557600080fd5b82359150611dc561196783611923565b82815260069290921b8301840191848101908a841115611de457600080fd5b938501935b83851015611e245786858c031215611e015760008081fd5b611e0961188c565b85358152868601358782015282529386019390850190611de9565b8086840152505080955050505050509250929050565b60008060408385031215611e4d57600080fd5b8235915060208301356001600160401b0381111561181157600080fd5b6020808252600a908201526921a7a72a2927a62622a960b11b604082015260600190565b6000808335601e19843603018112611ea557600080fd5b83016020810192503590506001600160401b03811115611ec457600080fd5b8060051b3603821315611ed657600080fd5b9250929050565b8183526000602080850194508260005b85811015611f1b578135611f008161179a565b6001600160a01b031687529582019590820190600101611eed565b509495945050505050565b801515811461055b57600080fd5b80356117ba81611f26565b6001600160a01b038681168252858116602083015284811660408301528316606082015260a060808201819052600090611f83908301611f7e856117af565b611840565b611f8f602084016117af565b611f9c60c0840182611840565b50611fa9604084016117af565b611fb660e0840182611840565b50611fc3606084016117af565b610100611fd281850183611840565b611fde608086016117af565b9150610120611fef81860184611840565b611ffb60a087016117af565b925061014061200c81870185611840565b61201960c0880188611e8e565b945061018061016081818a01526120356102208a018885611edd565b965061204460e08b018b611e8e565b8a8903609f1901848c0152935061205c888583611edd565b975050858a01356101a08a0152612074858b01611f34565b15156101c08a0152928901356101e08901525050959095013561020090940193909352979650505050505050565b6000602082840312156120b457600080fd5b5051919050565b6001600160a01b03929092168252602082015260400190565b80516117ba8161179a565b600082601f8301126120f057600080fd5b8151602061210061196783611923565b82815260059290921b8401810191818101908684111561211f57600080fd5b8286015b848110156119af5780516121368161179a565b8352918301918301612123565b600060c0828403121561215557600080fd5b60405160c081016001600160401b03811182821017156121775761217761184d565b8060405250809150825181526020830151602082015260408301516040820152606083015160608201526080830151608082015260a083015160a08201525092915050565b6000602082840312156121ce57600080fd5b604051602081016001600160401b03811182821017156121f0576121f061184d565b8060405250809150825161220381611f26565b905292915050565b60006020828403121561221d57600080fd5b81516001600160401b038082111561223457600080fd5b818401915061010080838703121561224b57600080fd5b6122536118ae565b83518381111561226257600080fd5b8401610120818903121561227557600080fd5b61227d6118d0565b612286826120d4565b8152612294602083016120d4565b60208201526122a5604083016120d4565b60408201526122b6606083016120d4565b60608201526122c7608083016120d4565b60808201526122d860a083016120d4565b60a08201526122e960c083016120d4565b60c082015260e08201518581111561230057600080fd5b61230c8a8285016120df565b60e083015250838201518581111561232357600080fd5b61232f8a8285016120df565b82860152508252506123448760208601612143565b60208201526123568760e086016121bc565b60408201529695505050505050565b60005b83811015612380578181015183820152602001612368565b50506000910152565b600081518084526123a1816020860160208601612365565b601f01601f19169290920160200192915050565b6001600160a01b03888116825287811660208301528681166040830152606082018690528416608082015260a0810183905261010060c0820181905260009061240083820185612389565b83810360e090940193909352505060008152602001979650505050505050565b600081518084526020808501945080840160005b83811015611f1b57815187529582019590820190600101612434565b60208152612462602082018351611840565b600060208301516124766040840182611840565b5060408301516124896060840182611840565b50606083015161249c6080840182611840565b50608083015160a083015260a08301516101208060c08501526124c3610140850183612420565b915060c0850151601f198584030160e08601526124e08382612420565b92505060e08501516101006124f781870183611840565b959095015193019290925250919050565b634e487b7160e01b600052603260045260246000fd5b634e487b7160e01b600052601160045260246000fd5b6000600182016125465761254661251e565b5060010190565b600081518084526020808501945080840160005b83811015611f1b5781516001600160a01b031687529582019590820190600101612561565b600081518084526020808501808196508360051b8101915082860160005b858110156125ce5782840389526125bc848351612389565b988501989350908401906001016125a4565b5091979650505050505050565b60006101808251845260208301518160208601526125fb8286018261254d565b915050604083015184820360408601526126158282612420565b9150506060830151848203606086015261262f8282612420565b915050608083015184820360808601526126498282612420565b91505060a083015184820360a08601526126638282612420565b91505060c083015184820360c086015261267d8282612420565b91505060e083015184820360e08601526126978282612420565b91505061010080840151858303828701526126b28382612420565b9250505061012080840151858303828701526126ce8382612420565b9250505061014080840151858303828701526126ea8382612586565b925050506101608084015185830382870152612706838261254d565b9695505050505050565b83815260606020820152600061272960608301856125db565b905060018060a01b0383166040830152949350505050565b60006103583683611afa565b6001600160a01b03848116825283166020820152606060408201819052600090612779908301846125db565b95945050505050565b8183526000602080850194508260005b85811015611f1b5781356127a58161179a565b6001600160a01b031687529582019590820190600101612792565b81835260006001600160fb1b038311156127d957600080fd5b8260051b80836020870137939093016020019392505050565b81835281816020850137506000828201602090810191909152601f909101601f19169091010190565b81835260006020808501808196508560051b810191508460005b878110156125ce5782840389528135601e1988360301811261285657600080fd5b870185810190356001600160401b0381111561287157600080fd5b80360382131561288057600080fd5b61288b8682846127f2565b9a87019a9550505090840190600101612835565b838152606060208201528235606082015260006128bf6020850185611e8e565b6101808060808601526128d76101e086018385612782565b92506128e66040880188611e8e565b9250605f19808786030160a08801526129008585846127c0565b945061290f60608a018a611e8e565b94509150808786030160c08801526129288585846127c0565b945061293760808a018a611e8e565b94509150808786030160e08801526129508585846127c0565b945061295f60a08a018a611e8e565b9450915061010081888703018189015261297a8686856127c0565b955061298960c08b018b611e8e565b955092506101208289880301818a01526129a48787866127c0565b96506129b360e08c018c611e8e565b96509350610140838a890301818b01526129ce8888876127c0565b97506129dc838d018d611e8e565b975094506101609250838a890301838b01526129f98888876127c0565b9750612a07828d018d611e8e565b97509450838a890301868b0152612a1f8888876127c0565b9750612a2d818d018d611e8e565b97509550505081888703016101a0890152612a4986868661281b565b9550612a57818b018b611e8e565b955093505080878603016101c08801525050612a74838383612782565b93505050506112576040830184611840565b6020808252601790820152765245454e5452414e43595f47554152445f53544154555360481b604082015260600190565b600060208284031215612ac957600080fd5b81516113f781611f26565b6001600160a01b038316815260406020820181905260009061125790830184612389565b818103818111156103585761035861251e565b8381528260208201526060604082015260006127796060830184612389565b6001600160a01b03898116825288811660208301528781166040830152606082018790528516608082015260a0810184905261010060c08201819052600090612b7583820186612389565b905082810360e0840152612b898185612389565b9b9a5050505050505050505050565b600060208284031215612baa57600080fd5b81516001600160401b03811115612bc057600080fd5b8201601f81018413612bd157600080fd5b8051612bdf61196782611a15565b818152856020838501011115612bf457600080fd5b612779826020830160208601612365565b600082612c2257634e487b7160e01b600052601260045260246000fd5b500490565b608081526000612c3a6080830187612420565b8560208401528460408401528281036060840152612c588185612389565b979650505050505050565b80820281158282048414176103585761035861251e56fea2646970667358221220c865b6efe6af4c6952434cd97b9ca755b0716aec18c0b6b2fcea7ceb89dc64a964736f6c63430008120033",
  "linkReferences": {
    "contracts/deposit/DepositStoreUtils.sol": {
      "DepositStoreUtils": [
        {
          "length": 20,
          "start": 1430
        }
      ]
    },
    "contracts/deposit/DepositUtils.sol": {
      "DepositUtils": [
        {
          "length": 20,
          "start": 1121
        },
        {
          "length": 20,
          "start": 1614
        },
        {
          "length": 20,
          "start": 5282
        }
      ]
    },
    "contracts/deposit/ExecuteDepositUtils.sol": {
      "ExecuteDepositUtils": [
        {
          "length": 20,
          "start": 2270
        }
      ]
    }
  },
  "deployedLinkReferences": {
    "contracts/deposit/DepositStoreUtils.sol": {
      "DepositStoreUtils": [
        {
          "length": 20,
          "start": 946
        }
      ]
    },
    "contracts/deposit/DepositUtils.sol": {
      "DepositUtils": [
        {
          "length": 20,
          "start": 637
        },
        {
          "length": 20,
          "start": 1130
        },
        {
          "length": 20,
          "start": 4798
        }
      ]
    },
    "contracts/deposit/ExecuteDepositUtils.sol": {
      "ExecuteDepositUtils": [
        {
          "length": 20,
          "start": 1786
        }
      ]
    }
  }
}