{
  "_format": "hh-sol-artifact-1",
  "contractName": "OrderHandler",
  "sourceName": "contracts/exchange/OrderHandler.sol",
  "abi": [
    {
      "inputs": [
        {
          "internalType": "contract RoleStore",
          "name": "_roleStore",
          "type": "address"
        },
        {
          "internalType": "contract DataStore",
          "name": "_dataStore",
          "type": "address"
        },
        {
          "internalType": "contract EventEmitter",
          "name": "_eventEmitter",
          "type": "address"
        },
        {
          "internalType": "contract OrderVault",
          "name": "_orderVault",
          "type": "address"
        },
        {
          "internalType": "contract Oracle",
          "name": "_oracle",
          "type": "address"
        },
        {
          "internalType": "contract SwapHandler",
          "name": "_swapHandler",
          "type": "address"
        },
        {
          "internalType": "contract IReferralStorage",
          "name": "_referralStorage",
          "type": "address"
        }
      ],
      "stateMutability": "nonpayable",
      "type": "constructor"
    },
    {
      "inputs": [
        {
          "internalType": "uint256[]",
          "name": "compactedValues",
          "type": "uint256[]"
        },
        {
          "internalType": "uint256",
          "name": "index",
          "type": "uint256"
        },
        {
          "internalType": "uint256",
          "name": "slotIndex",
          "type": "uint256"
        },
        {
          "internalType": "string",
          "name": "label",
          "type": "string"
        }
      ],
      "name": "CompactedArrayOutOfBounds",
      "type": "error"
    },
    {
      "inputs": [
        {
          "internalType": "bytes32",
          "name": "key",
          "type": "bytes32"
        }
      ],
      "name": "DisabledFeature",
      "type": "error"
    },
    {
      "inputs": [
        {
          "internalType": "address",
          "name": "market",
          "type": "address"
        }
      ],
      "name": "DisabledMarket",
      "type": "error"
    },
    {
      "inputs": [
        {
          "internalType": "uint256",
          "name": "index",
          "type": "uint256"
        }
      ],
      "name": "EmptyCompactedBlockNumber",
      "type": "error"
    },
    {
      "inputs": [],
      "name": "EmptyMarket",
      "type": "error"
    },
    {
      "inputs": [],
      "name": "EmptyOrder",
      "type": "error"
    },
    {
      "inputs": [],
      "name": "EndOfOracleSimulation",
      "type": "error"
    },
    {
      "inputs": [
        {
          "internalType": "uint256",
          "name": "minExecutionFee",
          "type": "uint256"
        },
        {
          "internalType": "uint256",
          "name": "executionFee",
          "type": "uint256"
        }
      ],
      "name": "InsufficientExecutionFee",
      "type": "error"
    },
    {
      "inputs": [
        {
          "internalType": "uint256",
          "name": "startingGas",
          "type": "uint256"
        },
        {
          "internalType": "uint256",
          "name": "minHandleErrorGas",
          "type": "uint256"
        }
      ],
      "name": "InsufficientExecutionGas",
      "type": "error"
    },
    {
      "inputs": [
        {
          "internalType": "address",
          "name": "keeper",
          "type": "address"
        }
      ],
      "name": "InvalidKeeperForFrozenOrder",
      "type": "error"
    },
    {
      "inputs": [
        {
          "internalType": "uint256",
          "name": "primaryTokensLength",
          "type": "uint256"
        },
        {
          "internalType": "uint256",
          "name": "primaryPricesLength",
          "type": "uint256"
        }
      ],
      "name": "InvalidPrimaryPricesForSimulation",
      "type": "error"
    },
    {
      "inputs": [
        {
          "internalType": "uint256",
          "name": "orderType",
          "type": "uint256"
        }
      ],
      "name": "OrderNotUpdatable",
      "type": "error"
    },
    {
      "inputs": [
        {
          "internalType": "uint256",
          "name": "requestAge",
          "type": "uint256"
        },
        {
          "internalType": "uint256",
          "name": "requestExpirationAge",
          "type": "uint256"
        },
        {
          "internalType": "string",
          "name": "requestType",
          "type": "string"
        }
      ],
      "name": "RequestNotYetCancellable",
      "type": "error"
    },
    {
      "inputs": [
        {
          "internalType": "address",
          "name": "msgSender",
          "type": "address"
        },
        {
          "internalType": "string",
          "name": "role",
          "type": "string"
        }
      ],
      "name": "Unauthorized",
      "type": "error"
    },
    {
      "inputs": [],
      "name": "UnsupportedOrderType",
      "type": "error"
    },
    {
      "anonymous": false,
      "inputs": [
        {
          "indexed": false,
          "internalType": "string",
          "name": "reason",
          "type": "string"
        }
      ],
      "name": "OracleError",
      "type": "event"
    },
    {
      "inputs": [
        {
          "internalType": "bytes32",
          "name": "key",
          "type": "bytes32"
        },
        {
          "components": [
            {
              "internalType": "uint256",
              "name": "signerInfo",
              "type": "uint256"
            },
            {
              "internalType": "address[]",
              "name": "tokens",
              "type": "address[]"
            },
            {
              "internalType": "uint256[]",
              "name": "compactedMinOracleBlockNumbers",
              "type": "uint256[]"
            },
            {
              "internalType": "uint256[]",
              "name": "compactedMaxOracleBlockNumbers",
              "type": "uint256[]"
            },
            {
              "internalType": "uint256[]",
              "name": "compactedOracleTimestamps",
              "type": "uint256[]"
            },
            {
              "internalType": "uint256[]",
              "name": "compactedDecimals",
              "type": "uint256[]"
            },
            {
              "internalType": "uint256[]",
              "name": "compactedMinPrices",
              "type": "uint256[]"
            },
            {
              "internalType": "uint256[]",
              "name": "compactedMinPricesIndexes",
              "type": "uint256[]"
            },
            {
              "internalType": "uint256[]",
              "name": "compactedMaxPrices",
              "type": "uint256[]"
            },
            {
              "internalType": "uint256[]",
              "name": "compactedMaxPricesIndexes",
              "type": "uint256[]"
            },
            {
              "internalType": "bytes[]",
              "name": "signatures",
              "type": "bytes[]"
            },
            {
              "internalType": "address[]",
              "name": "priceFeedTokens",
              "type": "address[]"
            }
          ],
          "internalType": "struct OracleUtils.SetPricesParams",
          "name": "oracleParams",
          "type": "tuple"
        },
        {
          "internalType": "address",
          "name": "keeper",
          "type": "address"
        }
      ],
      "name": "_executeOrder",
      "outputs": [],
      "stateMutability": "nonpayable",
      "type": "function"
    },
    {
      "inputs": [
        {
          "internalType": "bytes32",
          "name": "key",
          "type": "bytes32"
        }
      ],
      "name": "cancelOrder",
      "outputs": [],
      "stateMutability": "nonpayable",
      "type": "function"
    },
    {
      "inputs": [
        {
          "internalType": "address",
          "name": "account",
          "type": "address"
        },
        {
          "components": [
            {
              "components": [
                {
                  "internalType": "address",
                  "name": "receiver",
                  "type": "address"
                },
                {
                  "internalType": "address",
                  "name": "callbackContract",
                  "type": "address"
                },
                {
                  "internalType": "address",
                  "name": "uiFeeReceiver",
                  "type": "address"
                },
                {
                  "internalType": "address",
                  "name": "market",
                  "type": "address"
                },
                {
                  "internalType": "address",
                  "name": "initialCollateralToken",
                  "type": "address"
                },
                {
                  "internalType": "address[]",
                  "name": "swapPath",
                  "type": "address[]"
                }
              ],
              "internalType": "struct BaseOrderUtils.CreateOrderParamsAddresses",
              "name": "addresses",
              "type": "tuple"
            },
            {
              "components": [
                {
                  "internalType": "uint256",
                  "name": "sizeDeltaUsd",
                  "type": "uint256"
                },
                {
                  "internalType": "uint256",
                  "name": "initialCollateralDeltaAmount",
                  "type": "uint256"
                },
                {
                  "internalType": "uint256",
                  "name": "triggerPrice",
                  "type": "uint256"
                },
                {
                  "internalType": "uint256",
                  "name": "acceptablePrice",
                  "type": "uint256"
                },
                {
                  "internalType": "uint256",
                  "name": "executionFee",
                  "type": "uint256"
                },
                {
                  "internalType": "uint256",
                  "name": "callbackGasLimit",
                  "type": "uint256"
                },
                {
                  "internalType": "uint256",
                  "name": "minOutputAmount",
                  "type": "uint256"
                }
              ],
              "internalType": "struct BaseOrderUtils.CreateOrderParamsNumbers",
              "name": "numbers",
              "type": "tuple"
            },
            {
              "internalType": "enum Order.OrderType",
              "name": "orderType",
              "type": "uint8"
            },
            {
              "internalType": "enum Order.DecreasePositionSwapType",
              "name": "decreasePositionSwapType",
              "type": "uint8"
            },
            {
              "internalType": "bool",
              "name": "isLong",
              "type": "bool"
            },
            {
              "internalType": "bool",
              "name": "shouldUnwrapNativeToken",
              "type": "bool"
            },
            {
              "internalType": "bytes32",
              "name": "referralCode",
              "type": "bytes32"
            }
          ],
          "internalType": "struct BaseOrderUtils.CreateOrderParams",
          "name": "params",
          "type": "tuple"
        }
      ],
      "name": "createOrder",
      "outputs": [
        {
          "internalType": "bytes32",
          "name": "",
          "type": "bytes32"
        }
      ],
      "stateMutability": "nonpayable",
      "type": "function"
    },
    {
      "inputs": [],
      "name": "dataStore",
      "outputs": [
        {
          "internalType": "contract DataStore",
          "name": "",
          "type": "address"
        }
      ],
      "stateMutability": "view",
      "type": "function"
    },
    {
      "inputs": [],
      "name": "eventEmitter",
      "outputs": [
        {
          "internalType": "contract EventEmitter",
          "name": "",
          "type": "address"
        }
      ],
      "stateMutability": "view",
      "type": "function"
    },
    {
      "inputs": [
        {
          "internalType": "bytes32",
          "name": "key",
          "type": "bytes32"
        },
        {
          "components": [
            {
              "internalType": "uint256",
              "name": "signerInfo",
              "type": "uint256"
            },
            {
              "internalType": "address[]",
              "name": "tokens",
              "type": "address[]"
            },
            {
              "internalType": "uint256[]",
              "name": "compactedMinOracleBlockNumbers",
              "type": "uint256[]"
            },
            {
              "internalType": "uint256[]",
              "name": "compactedMaxOracleBlockNumbers",
              "type": "uint256[]"
            },
            {
              "internalType": "uint256[]",
              "name": "compactedOracleTimestamps",
              "type": "uint256[]"
            },
            {
              "internalType": "uint256[]",
              "name": "compactedDecimals",
              "type": "uint256[]"
            },
            {
              "internalType": "uint256[]",
              "name": "compactedMinPrices",
              "type": "uint256[]"
            },
            {
              "internalType": "uint256[]",
              "name": "compactedMinPricesIndexes",
              "type": "uint256[]"
            },
            {
              "internalType": "uint256[]",
              "name": "compactedMaxPrices",
              "type": "uint256[]"
            },
            {
              "internalType": "uint256[]",
              "name": "compactedMaxPricesIndexes",
              "type": "uint256[]"
            },
            {
              "internalType": "bytes[]",
              "name": "signatures",
              "type": "bytes[]"
            },
            {
              "internalType": "address[]",
              "name": "priceFeedTokens",
              "type": "address[]"
            }
          ],
          "internalType": "struct OracleUtils.SetPricesParams",
          "name": "oracleParams",
          "type": "tuple"
        }
      ],
      "name": "executeOrder",
      "outputs": [],
      "stateMutability": "nonpayable",
      "type": "function"
    },
    {
      "inputs": [],
      "name": "oracle",
      "outputs": [
        {
          "internalType": "contract Oracle",
          "name": "",
          "type": "address"
        }
      ],
      "stateMutability": "view",
      "type": "function"
    },
    {
      "inputs": [],
      "name": "orderVault",
      "outputs": [
        {
          "internalType": "contract OrderVault",
          "name": "",
          "type": "address"
        }
      ],
      "stateMutability": "view",
      "type": "function"
    },
    {
      "inputs": [],
      "name": "referralStorage",
      "outputs": [
        {
          "internalType": "contract IReferralStorage",
          "name": "",
          "type": "address"
        }
      ],
      "stateMutability": "view",
      "type": "function"
    },
    {
      "inputs": [],
      "name": "roleStore",
      "outputs": [
        {
          "internalType": "contract RoleStore",
          "name": "",
          "type": "address"
        }
      ],
      "stateMutability": "view",
      "type": "function"
    },
    {
      "inputs": [
        {
          "internalType": "bytes32",
          "name": "key",
          "type": "bytes32"
        },
        {
          "components": [
            {
              "internalType": "address[]",
              "name": "primaryTokens",
              "type": "address[]"
            },
            {
              "components": [
                {
                  "internalType": "uint256",
                  "name": "min",
                  "type": "uint256"
                },
                {
                  "internalType": "uint256",
                  "name": "max",
                  "type": "uint256"
                }
              ],
              "internalType": "struct Price.Props[]",
              "name": "primaryPrices",
              "type": "tuple[]"
            }
          ],
          "internalType": "struct OracleUtils.SimulatePricesParams",
          "name": "params",
          "type": "tuple"
        }
      ],
      "name": "simulateExecuteOrder",
      "outputs": [],
      "stateMutability": "nonpayable",
      "type": "function"
    },
    {
      "inputs": [],
      "name": "swapHandler",
      "outputs": [
        {
          "internalType": "contract SwapHandler",
          "name": "",
          "type": "address"
        }
      ],
      "stateMutability": "view",
      "type": "function"
    },
    {
      "inputs": [
        {
          "internalType": "bytes32",
          "name": "key",
          "type": "bytes32"
        },
        {
          "internalType": "uint256",
          "name": "sizeDeltaUsd",
          "type": "uint256"
        },
        {
          "internalType": "uint256",
          "name": "acceptablePrice",
          "type": "uint256"
        },
        {
          "internalType": "uint256",
          "name": "triggerPrice",
          "type": "uint256"
        },
        {
          "internalType": "uint256",
          "name": "minOutputAmount",
          "type": "uint256"
        },
        {
          "components": [
            {
              "components": [
                {
                  "internalType": "address",
                  "name": "account",
                  "type": "address"
                },
                {
                  "internalType": "address",
                  "name": "receiver",
                  "type": "address"
                },
                {
                  "internalType": "address",
                  "name": "callbackContract",
                  "type": "address"
                },
                {
                  "internalType": "address",
                  "name": "uiFeeReceiver",
                  "type": "address"
                },
                {
                  "internalType": "address",
                  "name": "market",
                  "type": "address"
                },
                {
                  "internalType": "address",
                  "name": "initialCollateralToken",
                  "type": "address"
                },
                {
                  "internalType": "address[]",
                  "name": "swapPath",
                  "type": "address[]"
                }
              ],
              "internalType": "struct Order.Addresses",
              "name": "addresses",
              "type": "tuple"
            },
            {
              "components": [
                {
                  "internalType": "enum Order.OrderType",
                  "name": "orderType",
                  "type": "uint8"
                },
                {
                  "internalType": "enum Order.DecreasePositionSwapType",
                  "name": "decreasePositionSwapType",
                  "type": "uint8"
                },
                {
                  "internalType": "uint256",
                  "name": "sizeDeltaUsd",
                  "type": "uint256"
                },
                {
                  "internalType": "uint256",
                  "name": "initialCollateralDeltaAmount",
                  "type": "uint256"
                },
                {
                  "internalType": "uint256",
                  "name": "triggerPrice",
                  "type": "uint256"
                },
                {
                  "internalType": "uint256",
                  "name": "acceptablePrice",
                  "type": "uint256"
                },
                {
                  "internalType": "uint256",
                  "name": "executionFee",
                  "type": "uint256"
                },
                {
                  "internalType": "uint256",
                  "name": "callbackGasLimit",
                  "type": "uint256"
                },
                {
                  "internalType": "uint256",
                  "name": "minOutputAmount",
                  "type": "uint256"
                },
                {
                  "internalType": "uint256",
                  "name": "updatedAtBlock",
                  "type": "uint256"
                }
              ],
              "internalType": "struct Order.Numbers",
              "name": "numbers",
              "type": "tuple"
            },
            {
              "components": [
                {
                  "internalType": "bool",
                  "name": "isLong",
                  "type": "bool"
                },
                {
                  "internalType": "bool",
                  "name": "shouldUnwrapNativeToken",
                  "type": "bool"
                },
                {
                  "internalType": "bool",
                  "name": "isFrozen",
                  "type": "bool"
                }
              ],
              "internalType": "struct Order.Flags",
              "name": "flags",
              "type": "tuple"
            }
          ],
          "internalType": "struct Order.Props",
          "name": "order",
          "type": "tuple"
        }
      ],
      "name": "updateOrder",
      "outputs": [],
      "stateMutability": "payable",
      "type": "function"
    }
  ],
  "bytecode": "0x6101606040523480156200001257600080fd5b5060405162004d9c38038062004d9c833981016040819052620000359162000085565b6001600160a01b0395861660805295851660a05292841660c05290831660e052821661012052811661010052166101405262000130565b6001600160a01b03811681146200008257600080fd5b50565b600080600080600080600060e0888a031215620000a157600080fd5b8751620000ae816200006c565b6020890151909750620000c1816200006c565b6040890151909650620000d4816200006c565b6060890151909550620000e7816200006c565b6080890151909450620000fa816200006c565b60a08901519093506200010d816200006c565b60c089015190925062000120816200006c565b8091505092959891949750929550565b60805160a05160c05160e051610100516101205161014051614af3620002a96000396000818160b801528181610eb40152611dc20152600081816101ac0152818161033d01528181610bb90152611d6c0152600081816101e00152611d97015260008181610214015281816106fc015281816108c001528181610e9201528181611a9a01528181611b780152611d4101526000818161025b015281816106db01528181610a9001528181610bfb01528181610e7001528181611a7801528181611b560152611d160152600081816101240152818161107e0152611ea401526000818161015801528181610589015281816106ba015281816107d3015281816108960152818161097e015281816109aa01528181610a1f01528181610bda01528181610c9101528181610dd401528181610e4e0152818161111b0152818161121e015281816112d40152818161185a01528181611a5601528181611b3401528181611c3301528181611cb40152611cee0152614af36000f3fe6080604052600436106100a15760003560e01c80626cc35e146100a6578063263ea0fa146100f05780634a4a7b0414610112578063660d0d67146101465780637489ec231461017a5780637dc0d1d01461019a5780638a53aaac146101ce57806393845e461461020257806396fe6a93146102365780639ff78c3014610249578063e1296f131461027d578063e31461721461029d578063eb81a90d146102cb575b600080fd5b3480156100b257600080fd5b506100da7f000000000000000000000000000000000000000000000000000000000000000081565b6040516100e79190612f78565b60405180910390f35b3480156100fc57600080fd5b5061011061010b366004613140565b6102eb565b005b34801561011e57600080fd5b506100da7f000000000000000000000000000000000000000000000000000000000000000081565b34801561015257600080fd5b506100da7f000000000000000000000000000000000000000000000000000000000000000081565b34801561018657600080fd5b50610110610195366004613258565b61055a565b3480156101a657600080fd5b506100da7f000000000000000000000000000000000000000000000000000000000000000081565b3480156101da57600080fd5b506100da7f000000000000000000000000000000000000000000000000000000000000000081565b34801561020e57600080fd5b506100da7f000000000000000000000000000000000000000000000000000000000000000081565b6101106102443660046133a2565b6107b4565b34801561025557600080fd5b506100da7f000000000000000000000000000000000000000000000000000000000000000081565b34801561028957600080fd5b506101106102983660046134f7565b610b3c565b3480156102a957600080fd5b506102bd6102b8366004613545565b610db3565b6040519081526020016100e7565b3480156102d757600080fd5b506101106102e636600461389f565b610f31565b61033b6040516020016102fd906138f9565b604051602081830303815290604052805190602001206040518060400160405280600a81526020016921a7a72a2927a62622a960b11b815250611067565b7f0000000000000000000000000000000000000000000000000000000000000000818060200151518160000151511461039b5780515160208201515160405163663de02360e01b815261039292919060040161391d565b60405180910390fd5b60005b815151811015610472576000826000015182815181106103c0576103c061392b565b602002602001015190506000836020015183815181106103e2576103e261392b565b6020908102919091018101516040516347cba33d60e01b81526001600160a01b03858116600483015282516024830152928201516044820152909250908616906347cba33d90606401600060405180830381600087803b15801561044557600080fd5b505af1158015610459573d6000803e3d6000fd5b505050505050808061046a90613957565b91505061039e565b5061047b611117565b6104df6040518061018001604052806000815260200160608152602001606081526020016060815260200160608152602001606081526020016060815260200160608152602001606081526020016060815260200160608152602001606081525090565b60405163eb81a90d60e01b8152309063eb81a90d9061050690889085903390600401613bb4565b600060405180830381600087803b15801561052057600080fd5b505af1158015610534573d6000803e3d6000fd5b50505050506105416112d2565b6040516327246e6d60e11b815260040160405180910390fd5b610562611117565b6105746040516020016102fd906138f9565b60005a60405163fdfc26f360e01b81529091507f00000000000000000000000000000000000000000000000000000000000000009060009073__$9dcb75ef0bb6c4288f2ccffe7dc492c4eb$__9063fdfc26f3906105d89085908890600401613be5565b600060405180830381865af41580156105f5573d6000803e3d6000fd5b505050506040513d6000823e601f3d908101601f1916820160405261061d9190810190613d60565b905061064e826106493061063385602001515190565b600781111561064457610644613e84565b611388565b61141d565b61066261065d82602001515190565b611448565b1561069e5761069e8261067b8360200151610120015190565b6040518060400160405280600581526020016427b93232b960d91b81525061149c565b73__$18943158f75973db0541c3d7c8650b2485$__631dcc956e7f00000000000000000000000000000000000000000000000000000000000000007f00000000000000000000000000000000000000000000000000000000000000007f00000000000000000000000000000000000000000000000000000000000000008861072587515190565b60408051808201825260158152741554d15497d2539255125055115117d0d05390d153605a1b602082015290516001600160e01b031960e089901b1681526107769695949392918c91600401613e9a565b60006040518083038186803b15801561078e57600080fd5b505af41580156107a2573d6000803e3d6000fd5b505050505050506107b16112d2565b50565b6107bc611117565b6107ce6040516020016102fd906138f9565b6108187f00000000000000000000000000000000000000000000000000000000000000006106493061080285602001515190565b600781111561081357610813613e84565b6115a9565b61082761065d82602001515190565b1561085f57602081015151600781111561084357610843613e84565b604051639aba92cb60e01b815260040161039291815260200190565b60208101805160409081018790528151608001859052815160a00186905290516101000183905280820151600091018190526108ba7f00000000000000000000000000000000000000000000000000000000000000006115ec565b905060007f00000000000000000000000000000000000000000000000000000000000000006001600160a01b031663352f9aed836040518263ffffffff1660e01b815260040161090a9190612f78565b6020604051808303816000875af1158015610929573d6000803e3d6000fd5b505050506040513d601f19601f8201168201806040525081019061094d9190613f05565b905061097781610962856020015160c0015190565b61096c9190613f1e565b602085015160c00152565b60006109a37f000000000000000000000000000000000000000000000000000000000000000085611699565b90506109de7f0000000000000000000000000000000000000000000000000000000000000000826109d9876020015160c0015190565b611724565b6109e784611765565b6109f08461177c565b604051630c154e0d60e31b815273__$9dcb75ef0bb6c4288f2ccffe7dc492c4eb$__906360aa706890610a4b907f0000000000000000000000000000000000000000000000000000000000000000908d90899060040161409f565b60006040518083038186803b158015610a6357600080fd5b505af4158015610a77573d6000803e3d6000fd5b50506040516363a11d6560e11b81526001600160a01b037f0000000000000000000000000000000000000000000000000000000000000000166004820152602481018c9052604481018b9052606481018a90526084810189905260a4810188905273__$2cb2169b31257cc84fcd1b9a9c4c15efa9$__925063c7423aca915060c40160006040518083038186803b158015610b1157600080fd5b505af4158015610b25573d6000803e3d6000fd5b50505050505050610b346112d2565b505050505050565b610b44611117565b610bb7604051602001610b77906020808252600c908201526b27a92222a92fa5a2a2a822a960a11b604082015260600190565b604051602081830303815290604052805190602001206040518060400160405280600c81526020016b27a92222a92fa5a2a2a822a960a11b815250611067565b7f00000000000000000000000000000000000000000000000000000000000000007f00000000000000000000000000000000000000000000000000000000000000007f0000000000000000000000000000000000000000000000000000000000000000610c23846140cf565b60405163df02681160e01b81526001600160a01b0385169063df02681190610c53908690869086906004016140db565b600060405180830381600087803b158015610c6d57600080fd5b505af1158015610c81573d6000803e3d6000fd5b5050505060005a90506000610cb67f0000000000000000000000000000000000000000000000000000000000000000836117e8565b60405163eb81a90d60e01b8152909150309063eb81a90d908390610ce2908c908c903390600401614273565b600060405180830381600088803b158015610cfc57600080fd5b5087f193505050508015610d0e575060015b610d4f573d808015610d3c576040519150601f19603f3d011682016040523d82523d6000602084013e610d41565b606091505b50610d4d89848361182d565b505b5050836001600160a01b031662ccf1556040518163ffffffff1660e01b8152600401600060405180830381600087803b158015610d8b57600080fd5b505af1158015610d9f573d6000803e3d6000fd5b5050505050505050610daf6112d2565b5050565b6000610dbd611117565b610dcf6040516020016102fd906138f9565b610e1f7f000000000000000000000000000000000000000000000000000000000000000061064930610e096101208701610100880161445a565b6007811115610e1a57610e1a613e84565b611baa565b6040516372aef1eb60e11b815273__$18943158f75973db0541c3d7c8650b2485$__9063e55de3d690610ee0907f0000000000000000000000000000000000000000000000000000000000000000907f0000000000000000000000000000000000000000000000000000000000000000907f0000000000000000000000000000000000000000000000000000000000000000907f0000000000000000000000000000000000000000000000000000000000000000908a908a9060040161450d565b602060405180830381865af4158015610efd573d6000803e3d6000fd5b505050506040513d601f19601f82011682018060405250810190610f219190613f05565b9050610f2b6112d2565b92915050565b333014610f75576040805163a35b150b60e01b815233600480830191909152602482019290925260448101919091526329a2a62360e11b6064820152608401610392565b60005a90506000610f8a858585856000611bed565b604080820151810151015190915080610fbd57506001604082015160200151516007811115610fbb57610fbb613e84565b145b15610fcb57610fcb83611ea2565b80515160408201516020015151610ff991906106499030906007811115610ff457610ff4613e84565b611f9c565b604051630893a94f60e41b815273__$18943158f75973db0541c3d7c8650b2485$__9063893a94f0906110309084906004016146ba565b60006040518083038186803b15801561104857600080fd5b505af415801561105c573d6000803e3d6000fd5b505050505050505050565b60405163ac4ab3fb60e01b81526001600160a01b037f0000000000000000000000000000000000000000000000000000000000000000169063ac4ab3fb906110b59033908690600401613be5565b602060405180830381865afa1580156110d2573d6000803e3d6000fd5b505050506040513d601f19601f820116820180604052508101906110f691906147e9565b610daf57338160405163a35b150b60e01b8152600401610392929190614806565b60007f00000000000000000000000000000000000000000000000000000000000000006001600160a01b031663bd02d0f56040516020016111579061482a565b604051602081830303815290604052805190602001206040518263ffffffff1660e01b815260040161118b91815260200190565b602060405180830381865afa1580156111a8573d6000803e3d6000fd5b505050506040513d601f19601f820116820180604052508101906111cc9190613f05565b9050801561121c5760405162461bcd60e51b815260206004820152601f60248201527f5265656e7472616e637947756172643a207265656e7472616e742063616c6c006044820152606401610392565b7f00000000000000000000000000000000000000000000000000000000000000006001600160a01b031663e2a4853a60405160200161125a9061482a565b6040516020818303038152906040528051906020012060016040518363ffffffff1660e01b815260040161128f92919061391d565b6020604051808303816000875af11580156112ae573d6000803e3d6000fd5b505050506040513d601f19601f82011682018060405250810190610daf9190613f05565b7f00000000000000000000000000000000000000000000000000000000000000006001600160a01b031663e2a4853a6040516020016113109061482a565b6040516020818303038152906040528051906020012060006040518363ffffffff1660e01b815260040161134592919061391d565b6020604051808303816000875af1158015611364573d6000803e3d6000fd5b505050506040513d601f19601f820116820180604052508101906107b19190613f05565b60006040516020016113cb906020808252601d908201527f43414e43454c5f4f524445525f464541545552455f44495341424c4544000000604082015260600190565b60408051601f198184030181528282528051602091820120908301526001600160a01b038516908201526060810183905260800160405160208183030381529060405280519060200120905092915050565b6114278282611fdf565b15610daf5760405163dd70e0c960e01b815260048101829052602401610392565b60008082600781111561145d5761145d613e84565b148061147a5750600282600781111561147857611478613e84565b145b80610f2b575060045b82600781111561149557611495613e84565b1492915050565b6000836001600160a01b031663bd02d0f56040516020016114ed906020808252601c908201527b524551554553545f45585049524154494f4e5f424c4f434b5f41474560201b604082015260600190565b604051602081830303815290604052805190602001206040518263ffffffff1660e01b815260040161152191815260200190565b602060405180830381865afa15801561153e573d6000803e3d6000fd5b505050506040513d601f19601f820116820180604052508101906115629190613f05565b905060008361156f612052565b611579919061485b565b9050818110156115a257808284604051631d04cc8760e31b81526004016103929392919061486e565b5050505050565b60006040516020016113cb906020808252601d908201527f5550444154455f4f524445525f464541545552455f44495341424c4544000000604082015260600190565b6000816001600160a01b03166321f8a7216040516020016116249060208082526003908201526215d39560ea1b604082015260600190565b604051602081830303815290604052805190602001206040518263ffffffff1660e01b815260040161165891815260200190565b602060405180830381865afa158015611675573d6000803e3d6000fd5b505050506040513d601f19601f82011682018060405250810190610f2b919061488d565b60006116af6116aa83602001515190565b6120ce565b156116c5576116be83836120f2565b9050610f2b565b6116d96116d483602001515190565b612217565b156116e8576116be8383612273565b6116fc6116f783602001515190565b612325565b1561170b576116be8383612348565b60405163c1c0083160e01b815260040160405180910390fd5b600061173084846123fa565b9050600061173e3a836148aa565b9050808310156115a2578083604051635dac504d60e01b815260040161039292919061391d565b6107b1611770612052565b60208301516101200152565b600061178782515190565b6001600160a01b0316036117ae57604051631630779760e01b815260040160405180910390fd5b6020810151604001511580156117ca5750602081015160600151155b156107b157604051631630779760e01b815260040160405180910390fd5b6000806117f4846125b9565b90508083101561181b578281604051631c09bc2160e01b815260040161039292919061391d565b611825818461485b565b949350505050565b600061183a826020015190565b9050600073__$9dcb75ef0bb6c4288f2ccffe7dc492c4eb$__63fdfc26f37f0000000000000000000000000000000000000000000000000000000000000000876040518363ffffffff1660e01b8152600401611897929190613be5565b600060405180830381865af41580156118b4573d6000803e3d6000fd5b505050506040513d6000823e601f3d908101601f191682016040526118dc9190810190613d60565b905060006118ef61065d83602001515190565b90506118fa83612680565b80611909575060408083015101515b8061192d57508015801561192d57506001600160e01b03198316634dfbbff360e01b145b8061194857506001600160e01b03198316631630779760e01b145b8061196357506001600160e01b0319831663dd70e0c960e01b145b8061197e57506001600160e01b03198316630397fb7760e61b145b8061199957506001600160e01b0319831663c1c0083160e01b145b806119b457506001600160e01b03198316630240d0ad60e11b145b156119c2576119c2846126b6565b60006119cd856126bf565b50905081806119ec57506001600160e01b0319841663182e30e360e01b145b80611a0757506001600160e01b031984166341ce349f60e11b145b80611a2257506001600160e01b0319841663bff65b3f60e01b145b15611b0557604051630ee64ab760e11b815273__$18943158f75973db0541c3d7c8650b2485$__90631dcc956e90611acc907f0000000000000000000000000000000000000000000000000000000000000000907f0000000000000000000000000000000000000000000000000000000000000000907f0000000000000000000000000000000000000000000000000000000000000000908d9033908e908a908f906004016148c1565b60006040518083038186803b158015611ae457600080fd5b505af4158015611af8573d6000803e3d6000fd5b5050505050505050505050565b604051633197fa0d60e11b815273__$18943158f75973db0541c3d7c8650b2485$__9063632ff41a90611acc907f0000000000000000000000000000000000000000000000000000000000000000907f0000000000000000000000000000000000000000000000000000000000000000907f0000000000000000000000000000000000000000000000000000000000000000908d9033908e908a908f906004016148c1565b60006040516020016113cb906020808252601d908201527f4352454154455f4f524445525f464541545552455f44495341424c4544000000604082015260600190565b611bf5612df7565b611bfd612df7565b6020810187905260405163fdfc26f360e01b815273__$9dcb75ef0bb6c4288f2ccffe7dc492c4eb$__9063fdfc26f390611c5d907f0000000000000000000000000000000000000000000000000000000000000000908b90600401613be5565b600060405180830381865af4158015611c7a573d6000803e3d6000fd5b505050506040513d6000823e601f3d908101601f19168201604052611ca29190810190613d60565b604082018190525160c00151611cd9907f00000000000000000000000000000000000000000000000000000000000000009061274f565b60608083019190915281516001600160a01b037f0000000000000000000000000000000000000000000000000000000000000000811690915282517f0000000000000000000000000000000000000000000000000000000000000000821660209182015283517f0000000000000000000000000000000000000000000000000000000000000000831660409182015284517f0000000000000000000000000000000000000000000000000000000000000000841694019390935283517f0000000000000000000000000000000000000000000000000000000000000000831660809091015283517f000000000000000000000000000000000000000000000000000000000000000090921660a090920191909152908701519087015151611e009190612815565b60808201526060860151602087015151611e1a9190612815565b60a0820152604081015151608001516001600160a01b031615611e545780515160408201515160800151611e4e91906128a1565b60c08201525b6001600160a01b03851660e082015261010081018490526101208101836001811115611e8257611e82613e84565b90816001811115611e9557611e95613e84565b9052509695505050505050565b7f00000000000000000000000000000000000000000000000000000000000000006001600160a01b031663ac4ab3fb82604051602001611f0990602080825260139082015272232927ad22a72fa7a92222a92fa5a2a2a822a960691b604082015260600190565b604051602081830303815290604052805190602001206040518363ffffffff1660e01b8152600401611f3c929190613be5565b602060405180830381865afa158015611f59573d6000803e3d6000fd5b505050506040513d601f19601f82011682018060405250810190611f7d91906147e9565b6107b15780604051630397fb7760e61b81526004016103929190612f78565b60006040516020016113cb906020808252601e908201527f455845435554455f4f524445525f464541545552455f44495341424c45440000604082015260600190565b604051633d70e7e560e11b8152600481018290526000906001600160a01b03841690637ae1cfca90602401602060405180830381865afa158015612027573d6000803e3d6000fd5b505050506040513d601f19601f8201168201806040525081019061204b91906147e9565b9392505050565b600061205c61293c565b156120c95760646001600160a01b031663a3b1b31d6040518163ffffffff1660e01b8152600401602060405180830381865afa1580156120a0573d6000803e3d6000fd5b505050506040513d601f19601f820116820180604052508101906120c49190613f05565b905090565b504390565b600060028260078111156120e4576120e4613e84565b1480610f2b57506003611483565b600080836001600160a01b031663bd02d0f561210c612953565b6040518263ffffffff1660e01b815260040161212a91815260200190565b602060405180830381865afa158015612147573d6000803e3d6000fd5b505050506040513d601f19601f8201168201806040525081019061216b9190613f05565b905061217c836020015160e0015190565b835160c001515161218d90836148aa565b856001600160a01b031663bd02d0f56121a46129a9565b6040518263ffffffff1660e01b81526004016121c291815260200190565b602060405180830381865afa1580156121df573d6000803e3d6000fd5b505050506040513d601f19601f820116820180604052508101906122039190613f05565b61220d9190613f1e565b6118259190613f1e565b6000600482600781111561222d5761222d613e84565b148061224a5750600582600781111561224857612248613e84565b145b806122665750600682600781111561226457612264613e84565b145b80610f2b57506007611483565b600080836001600160a01b031663bd02d0f561228d612953565b6040518263ffffffff1660e01b81526004016122ab91815260200190565b602060405180830381865afa1580156122c8573d6000803e3d6000fd5b505050506040513d601f19601f820116820180604052508101906122ec9190613f05565b90506122fd836020015160e0015190565b835160c001515161230e90836148aa565b856001600160a01b031663bd02d0f56121a46129e7565b60008082600781111561233a5761233a613e84565b1480610f2b57506001611483565b600080836001600160a01b031663bd02d0f5612362612953565b6040518263ffffffff1660e01b815260040161238091815260200190565b602060405180830381865afa15801561239d573d6000803e3d6000fd5b505050506040513d601f19601f820116820180604052508101906123c19190613f05565b90506123d2836020015160e0015190565b835160c00151516123e390836148aa565b856001600160a01b031663bd02d0f56121a4612a25565b600080836001600160a01b031663bd02d0f560405160200161244d906020808252601d908201527f455354494d415445445f4741535f4645455f424153455f414d4f554e54000000604082015260600190565b604051602081830303815290604052805190602001206040518263ffffffff1660e01b815260040161248191815260200190565b602060405180830381865afa15801561249e573d6000803e3d6000fd5b505050506040513d601f19601f820116820180604052508101906124c29190613f05565b90506000846001600160a01b031663bd02d0f56040516020016125229060208082526023908201527f455354494d415445445f4741535f4645455f4d554c5449504c4945525f4641436040820152622a27a960e91b606082015260800190565b604051602081830303815290604052805190602001206040518263ffffffff1660e01b815260040161255691815260200190565b602060405180830381865afa158015612573573d6000803e3d6000fd5b505050506040513d601f19601f820116820180604052508101906125979190613f05565b905060006125a58583612a5f565b6125af9084613f1e565b9695505050505050565b6000816001600160a01b031663bd02d0f560405160200161260b906020808252601e908201527f4d494e5f48414e444c455f455845435554494f4e5f4552524f525f4741530000604082015260600190565b604051602081830303815290604052805190602001206040518263ffffffff1660e01b815260040161263f91815260200190565b602060405180830381865afa15801561265c573d6000803e3d6000fd5b505050506040513d601f19601f82011682018060405250810190610f2b9190613f05565b600061268b82612a78565b1561269857506001919050565b6126a182612aba565b156126ae57506001919050565b506000919050565b80518060208301fd5b606060006044835110156126e6575050604080516020810190915260008082529092909150565b60006126f3846020015190565b90506307b9e43360e51b6001600160e01b03198216016127325760048401935083806020019051810190612727919061492f565b946001945092505050565b600060405180602001604052806000815250909250925050915091565b6060600082516001600160401b0381111561276c5761276c612f8c565b6040519080825280602002602001820160405280156127a557816020015b612792612e83565b81526020019060019003908161278a5790505b50905060005b835181101561280d5760008482815181106127c8576127c861392b565b602002602001015190506127dc86826128a1565b8383815181106127ee576127ee61392b565b602002602001018190525050808061280590613957565b9150506127ab565b509392505050565b60606000826001600160401b0381111561283157612831612f8c565b60405190808252806020026020018201604052801561285a578160200160208202803683370190505b50905060005b8381101561280d576128728582612adc565b8282815181106128845761288461392b565b60209081029190910101528061289981613957565b915050612860565b6128a9612e83565b60405163a8d8fff560e01b81526001600160a01b0380851660048301528316602482015260009073__$ff439aa65a80c9eec648f15db20b189505$__9063a8d8fff590604401608060405180830381865af415801561290c573d6000803e3d6000fd5b505050506040513d601f19601f82011682018060405250810190612930919061499c565b905061204b8482612b4e565b600061a4b14614806120c45750504662066eed1490565b600060405160200161298e9060208082526015908201527414d25391d31157d4d5d05417d1d054d7d312535255605a1b604082015260600190565b60405160208183030381529060405280519060200120905090565b600060405160200161298e90602080825260189082015277125390d4915054d157d3d491115497d1d054d7d31253525560421b604082015260600190565b600060405160200161298e90602080825260189082015277111150d4915054d157d3d491115497d1d054d7d31253525560421b604082015260600190565b600060405160200161298e9060208082526014908201527314d5d05417d3d491115497d1d054d7d31253525560621b604082015260600190565b600061204b838368327cb2734119d3b7a9601e1b612c1c565b600063010dcfd160e71b6001600160e01b0319831601612a9a57506001919050565b6341f057fb60e11b6001600160e01b03198316016126ae57506001919050565b600063329b5fdb60e01b6001600160e01b03198316016126ae57506001919050565b600080612b288484604060c0600019901c6040518060400160405280601f81526020017f676574556e636f6d7061637465644f7261636c65426c6f636b4e756d62657200815250612c29565b90508060000361204b5760405163349f5fdd60e11b815260048101849052602401610392565b80516001600160a01b0316612b76576040516302fde0d760e11b815260040160405180910390fd5b6000826001600160a01b0316637ae1cfca612b948460000151612cc6565b6040518263ffffffff1660e01b8152600401612bb291815260200190565b602060405180830381865afa158015612bcf573d6000803e3d6000fd5b505050506040513d601f19601f82011682018060405250810190612bf391906147e9565b90508015612c175781516040516309f8c93760e01b81526103929190600401612f78565b505050565b6000611825848484612d48565b600080612c3885610100614a36565b90506000612c468288614a36565b905087518110612c71578787828660405163bdec9c0d60e01b81526004016103929493929190614a58565b6000888281518110612c8557612c8561392b565b602002602001015190506000878484612c9e91906148aa565b612ca8908b61485b565b612cb291906148aa565b9190911c8616935050505095945050505050565b6000604051602001612cfe906020808252601290820152711254d7d3505492d15517d11254d05093115160721b604082015260600190565b60408051601f198184030181528282528051602091820120908301526001600160a01b03841690820152606001604051602081830303815290604052805190602001209050919050565b6000808060001985870985870292508281108382030391505080600003612d8257838281612d7857612d78614a20565b049250505061204b565b808411612d8e57600080fd5b60008486880960026001871981018816978890046003810283188082028403028082028403028082028403028082028403028082028403029081029092039091026000889003889004909101858311909403939093029303949094049190911702949350505050565b604080516102008101825260006101408201818152610160830182905261018083018290526101a083018290526101c083018290526101e0830182905282526020820152908101612e46612eaa565b8152602001606081526020016060815260200160608152602001612e68612e83565b81526000602082018190526040820181905260609091015290565b60408051608081018252600080825260208201819052918101829052606081019190915290565b604080516101408101909152600060608083018281526080840183905260a0840183905260c0840183905260e08401839052610100840192909252610120830152815260208101612f4860408051610140810190915280600081526020016000815260200160008152602001600081526020016000815260200160008152602001600081526020016000815260200160008152602001600081525090565b815260408051606081018252600080825260208281018290529282015291015290565b6001600160a01b03169052565b6001600160a01b0391909116815260200190565b634e487b7160e01b600052604160045260246000fd5b604080519081016001600160401b0381118282101715612fc457612fc4612f8c565b60405290565b60405161014081016001600160401b0381118282101715612fc457612fc4612f8c565b604051606081016001600160401b0381118282101715612fc457612fc4612f8c565b60405160e081016001600160401b0381118282101715612fc457612fc4612f8c565b60405161018081016001600160401b0381118282101715612fc457612fc4612f8c565b604051601f8201601f191681016001600160401b038111828210171561307c5761307c612f8c565b604052919050565b60006001600160401b0382111561309d5761309d612f8c565b5060051b60200190565b6001600160a01b03811681146107b157600080fd5b80356130c7816130a7565b919050565b600082601f8301126130dd57600080fd5b813560206130f26130ed83613084565b613054565b82815260059290921b8401810191818101908684111561311157600080fd5b8286015b84811015613135578035613128816130a7565b8352918301918301613115565b509695505050505050565b600080604080848603121561315457600080fd5b833592506020808501356001600160401b038082111561317357600080fd5b818701915083828903121561318757600080fd5b61318f612fa2565b82358281111561319e57600080fd5b6131aa8a8286016130cc565b82525083830135828111156131be57600080fd5b80840193505088601f8401126131d357600080fd5b823591506131e36130ed83613084565b82815260069290921b8301840191848101908a84111561320257600080fd5b938501935b838510156132425786858c03121561321f5760008081fd5b613227612fa2565b85358152868601358782015282529386019390850190613207565b8086840152505080955050505050509250929050565b60006020828403121561326a57600080fd5b5035919050565b600881106107b157600080fd5b80356130c781613271565b600381106107b157600080fd5b80356130c781613289565b600061014082840312156132b457600080fd5b6132bc612fca565b90506132c78261327e565b81526132d560208301613296565b602082015260408201356040820152606082013560608201526080820135608082015260a082013560a082015260c082013560c082015260e082013560e082015261010080830135818301525061012080830135818301525092915050565b80151581146107b157600080fd5b80356130c781613334565b60006060828403121561335f57600080fd5b613367612fed565b9050813561337481613334565b8152602082013561338481613334565b6020820152604082013561339781613334565b604082015292915050565b60008060008060008060c087890312156133bb57600080fd5b863595506020870135945060408701359350606087013592506080870135915060a08701356001600160401b03808211156133f557600080fd5b908801906101c0828b03121561340a57600080fd5b613412612fed565b82358281111561342157600080fd5b830160e0818d03121561343357600080fd5b61343b61300f565b613444826130bc565b8152613452602083016130bc565b6020820152613463604083016130bc565b6040820152613474606083016130bc565b6060820152613485608083016130bc565b608082015261349660a083016130bc565b60a082015260c0820135848111156134ad57600080fd5b6134b98e8285016130cc565b60c0830152508252506134cf8b602085016132a1565b60208201526134e28b610160850161334d565b60408201528093505050509295509295509295565b6000806040838503121561350a57600080fd5b8235915060208301356001600160401b0381111561352757600080fd5b8301610180818603121561353a57600080fd5b809150509250929050565b6000806040838503121561355857600080fd5b8235613563816130a7565b915060208301356001600160401b0381111561357e57600080fd5b83016101a0818603121561353a57600080fd5b600082601f8301126135a257600080fd5b813560206135b26130ed83613084565b82815260059290921b840181019181810190868411156135d157600080fd5b8286015b8481101561313557803583529183019183016135d5565b60006001600160401b0382111561360557613605612f8c565b50601f01601f191660200190565b600082601f83011261362457600080fd5b813560206136346130ed83613084565b82815260059290921b8401810191818101908684111561365357600080fd5b8286015b848110156131355780356001600160401b038111156136765760008081fd5b8701603f810189136136885760008081fd5b84810135604061369a6130ed836135ec565b8281528b828486010111156136af5760008081fd5b8282850189830137600092810188019290925250845250918301918301613657565b600061018082840312156136e457600080fd5b6136ec613031565b82358152905060208201356001600160401b038082111561370c57600080fd5b613718858386016130cc565b6020840152604084013591508082111561373157600080fd5b61373d85838601613591565b6040840152606084013591508082111561375657600080fd5b61376285838601613591565b6060840152608084013591508082111561377b57600080fd5b61378785838601613591565b608084015260a08401359150808211156137a057600080fd5b6137ac85838601613591565b60a084015260c08401359150808211156137c557600080fd5b6137d185838601613591565b60c084015260e08401359150808211156137ea57600080fd5b6137f685838601613591565b60e08401526101009150818401358181111561381157600080fd5b61381d86828701613591565b83850152506101209150818401358181111561383857600080fd5b61384486828701613591565b83850152506101409150818401358181111561385f57600080fd5b61386b86828701613613565b83850152506101609150818401358181111561388657600080fd5b613892868287016130cc565b8385015250505092915050565b6000806000606084860312156138b457600080fd5b8335925060208401356001600160401b038111156138d157600080fd5b6138dd868287016136d1565b92505060408401356138ee816130a7565b809150509250925092565b6020808252600a908201526921a7a72a2927a62622a960b11b604082015260600190565b918252602082015260400190565b634e487b7160e01b600052603260045260246000fd5b634e487b7160e01b600052601160045260246000fd5b60006001820161396957613969613941565b5060010190565b600081518084526020808501945080840160005b838110156139a95781516001600160a01b031687529582019590820190600101613984565b509495945050505050565b600081518084526020808501945080840160005b838110156139a9578151875295820195908201906001016139c8565b60005b838110156139ff5781810151838201526020016139e7565b50506000910152565b60008151808452613a208160208601602086016139e4565b601f01601f19169290920160200192915050565b600081518084526020808501808196508360051b8101915082860160005b85811015613a7c578284038952613a6a848351613a08565b98850198935090840190600101613a52565b5091979650505050505050565b6000610180825184526020830151816020860152613aa982860182613970565b91505060408301518482036040860152613ac382826139b4565b91505060608301518482036060860152613add82826139b4565b91505060808301518482036080860152613af782826139b4565b91505060a083015184820360a0860152613b1182826139b4565b91505060c083015184820360c0860152613b2b82826139b4565b91505060e083015184820360e0860152613b4582826139b4565b9150506101008084015185830382870152613b6083826139b4565b925050506101208084015185830382870152613b7c83826139b4565b925050506101408084015185830382870152613b988382613a34565b9250505061016080840151858303828701526125af8382613970565b838152606060208201526000613bcd6060830185613a89565b905060018060a01b0383166040830152949350505050565b6001600160a01b03929092168252602082015260400190565b80516130c7816130a7565b600082601f830112613c1a57600080fd5b81516020613c2a6130ed83613084565b82815260059290921b84018101918181019086841115613c4957600080fd5b8286015b84811015613135578051613c60816130a7565b8352918301918301613c4d565b80516130c781613271565b80516130c781613289565b60006101408284031215613c9657600080fd5b613c9e612fca565b9050613ca982613c6d565b8152613cb760208301613c78565b602082015260408201516040820152606082015160608201526080820151608082015260a082015160a082015260c082015160c082015260e082015160e082015261010080830151818301525061012080830151818301525092915050565b600060608284031215613d2857600080fd5b613d30612fed565b90508151613d3d81613334565b81526020820151613d4d81613334565b6020820152604082015161339781613334565b600060208284031215613d7257600080fd5b81516001600160401b0380821115613d8957600080fd5b908301906101c08286031215613d9e57600080fd5b613da6612fed565b825182811115613db557600080fd5b830160e08188031215613dc757600080fd5b613dcf61300f565b613dd882613bfe565b8152613de660208301613bfe565b6020820152613df760408301613bfe565b6040820152613e0860608301613bfe565b6060820152613e1960808301613bfe565b6080820152613e2a60a08301613bfe565b60a082015260c082015184811115613e4157600080fd5b613e4d89828501613c09565b60c083015250825250613e638660208501613c83565b6020820152613e76866101608501613d16565b604082015295945050505050565b634e487b7160e01b600052602160045260246000fd5b6001600160a01b03888116825287811660208301528681166040830152606082018690528416608082015260a0810183905261010060c08201819052600090613ee583820185613a08565b83810360e090940193909352505060008152602001979650505050505050565b600060208284031215613f1757600080fd5b5051919050565b80820180821115610f2b57610f2b613941565b60088110613f4157613f41613e84565b9052565b60038110613f4157613f41613e84565b613f60828251613f31565b6020810151613f726020840182613f45565b5060408101516040830152606081015160608301526080810151608083015260a081015160a083015260c081015160c083015260e081015160e08301526101008082015181840152506101208082015181840152505050565b80516101c080845281516001600160a01b0390811691850191909152602082015181166101e08501526040820151166102008401526060810151600091614016610220860183612f6b565b6080810151915061402b610240860183612f6b565b60a08101519150614040610260860183612f6b565b60c0015160e0610280860152905061405c6102a0850182613970565b905060208301516140706020860182613f55565b5060408381015180511515610160870152602081015115156101808701529081015115156101a086015261280d565b60018060a01b03841681528260208201526060604082015260006140c66060830184613fcb565b95945050505050565b6000610f2b36836136d1565b6001600160a01b038481168252831660208201526060604082018190526000906140c690830184613a89565b6000808335601e1984360301811261411e57600080fd5b83016020810192503590506001600160401b0381111561413d57600080fd5b8060051b360382131561414f57600080fd5b9250929050565b8183526000602080850194508260005b858110156139a9578135614179816130a7565b6001600160a01b031687529582019590820190600101614166565b81835260006001600160fb1b038311156141ad57600080fd5b8260051b80836020870137939093016020019392505050565b81835281816020850137506000828201602090810191909152601f909101601f19169091010190565b81835260006020808501808196508560051b810191508460005b87811015613a7c5782840389528135601e1988360301811261422a57600080fd5b870185810190356001600160401b0381111561424557600080fd5b80360382131561425457600080fd5b61425f8682846141c6565b9a87019a9550505090840190600101614209565b838152606060208201528235606082015260006142936020850185614107565b6101808060808601526142ab6101e086018385614156565b92506142ba6040880188614107565b9250605f19808786030160a08801526142d4858584614194565b94506142e360608a018a614107565b94509150808786030160c08801526142fc858584614194565b945061430b60808a018a614107565b94509150808786030160e0880152614324858584614194565b945061433360a08a018a614107565b9450915061010081888703018189015261434e868685614194565b955061435d60c08b018b614107565b955092506101208289880301818a0152614378878786614194565b965061438760e08c018c614107565b96509350610140838a890301818b01526143a2888887614194565b97506143b0838d018d614107565b975094506101609250838a890301838b01526143cd888887614194565b97506143db828d018d614107565b97509450838a890301868b01526143f3888887614194565b9750614401818d018d614107565b97509550505081888703016101a089015261441d8686866141ef565b955061442b818b018b614107565b955093505080878603016101c08801525050614448838383614156565b93505050506118256040830184612f6b565b60006020828403121561446c57600080fd5b813561204b81613271565b60008135614484816130a7565b6001600160a01b0390811684526020830135906144a0826130a7565b90811660208501526040830135906144b7826130a7565b90811660408501526060830135906144ce826130a7565b90811660608501526080830135906144e5826130a7565b1660808401526144f860a0830183614107565b60c060a08601526140c660c086018284614156565b6001600160a01b0387811682528681166020830152858116604083015284811660608301528316608082015260c060a0820152600082353684900360be1901811261455757600080fd5b6101a060c084015261456f6102608401858301614477565b602085013560e08581019190915260408601356101008601526060860135610120860152608086013561014086015260a086013561016086015260c08601356101808601528501356101a085015290506145cc610100850161327e565b6145da6101c0850182613f31565b506145e86101208501613296565b6145f66101e0850182613f45565b506146046101408501613342565b15156102008401526146196101608501613342565b15156102208401526101809390930135610240909201919091525095945050505050565b80516001600160a01b03908116835260208083015182169084015260408083015182169084015260609182015116910152565b600081518084526020808501945080840160005b838110156139a95761469787835161463d565b6080969096019590820190600101614684565b60028110613f4157613f41613e84565b6020815261471260208201835180516001600160a01b03908116835260208083015182169084015260408083015182169084015260608083015182169084015260808083015182169084015260a09182015116910152565b602082015160e082015260006040830151610240610100818186015261473c610260860184613fcb565b92506060860151601f1961012081888703018189015261475c8684614670565b955060808901519250818887030161014089015261477a86846139b4565b955060a08901519250818887030161016089015261479886846139b4565b955060c089015192506147af61018089018461463d565b60e089015192506147c4610200890184612f6b565b9288015161022088015250508501516147df828601826146aa565b5090949350505050565b6000602082840312156147fb57600080fd5b815161204b81613334565b6001600160a01b038316815260406020820181905260009061182590830184613a08565b6020808252601790820152765245454e5452414e43595f47554152445f53544154555360481b604082015260600190565b81810381811115610f2b57610f2b613941565b8381528260208201526060604082015260006140c66060830184613a08565b60006020828403121561489f57600080fd5b815161204b816130a7565b8082028115828204841417610f2b57610f2b613941565b6001600160a01b03898116825288811660208301528781166040830152606082018790528516608082015260a0810184905261010060c0820181905260009061490c83820186613a08565b905082810360e08401526149208185613a08565b9b9a5050505050505050505050565b60006020828403121561494157600080fd5b81516001600160401b0381111561495757600080fd5b8201601f8101841361496857600080fd5b80516149766130ed826135ec565b81815285602083850101111561498b57600080fd5b6140c68260208301602086016139e4565b6000608082840312156149ae57600080fd5b604051608081016001600160401b03811182821017156149d0576149d0612f8c565b60405282516149de816130a7565b815260208301516149ee816130a7565b60208201526040830151614a01816130a7565b60408201526060830151614a14816130a7565b60608201529392505050565b634e487b7160e01b600052601260045260246000fd5b600082614a5357634e487b7160e01b600052601260045260246000fd5b500490565b6080808252855190820181905260009060209060a0840190828901845b82811015614a9157815184529284019290840190600101614a75565b50505086828501528560408501528381036060850152614ab18186613a08565b9897505050505050505056fea2646970667358221220461e55560ed98d7cbaa282596a61a634fc3b5a7038e8913544ed5cf7ff2b44d264736f6c63430008120033",
  "linkReferences": {
    "contracts/market/MarketStoreUtils.sol": {
      "MarketStoreUtils": [
        {
          "length": 20,
          "start": 11131
        }
      ]
    },
    "contracts/order/OrderEventUtils.sol": {
      "OrderEventUtils": [
        {
          "length": 20,
          "start": 3459
        }
      ]
    },
    "contracts/order/OrderStoreUtils.sol": {
      "OrderStoreUtils": [
        {
          "length": 20,
          "start": 2135
        },
        {
          "length": 20,
          "start": 3240
        },
        {
          "length": 20,
          "start": 6889
        },
        {
          "length": 20,
          "start": 7868
        }
      ]
    },
    "contracts/order/OrderUtils.sol": {
      "OrderUtils": [
        {
          "length": 20,
          "start": 2377
        },
        {
          "length": 20,
          "start": 4311
        },
        {
          "length": 20,
          "start": 4785
        },
        {
          "length": 20,
          "start": 7391
        },
        {
          "length": 20,
          "start": 7613
        }
      ]
    }
  },
  "deployedLinkReferences": {
    "contracts/market/MarketStoreUtils.sol": {
      "MarketStoreUtils": [
        {
          "length": 20,
          "start": 10450
        }
      ]
    },
    "contracts/order/OrderEventUtils.sol": {
      "OrderEventUtils": [
        {
          "length": 20,
          "start": 2778
        }
      ]
    },
    "contracts/order/OrderStoreUtils.sol": {
      "OrderStoreUtils": [
        {
          "length": 20,
          "start": 1454
        },
        {
          "length": 20,
          "start": 2559
        },
        {
          "length": 20,
          "start": 6208
        },
        {
          "length": 20,
          "start": 7187
        }
      ]
    },
    "contracts/order/OrderUtils.sol": {
      "OrderUtils": [
        {
          "length": 20,
          "start": 1696
        },
        {
          "length": 20,
          "start": 3630
        },
        {
          "length": 20,
          "start": 4104
        },
        {
          "length": 20,
          "start": 6710
        },
        {
          "length": 20,
          "start": 6932
        }
      ]
    }
  }
}