{
  "_format": "hh-sol-artifact-1",
  "contractName": "OracleModuleTest",
  "sourceName": "contracts/test/OracleModuleTest.sol",
  "abi": [
    {
      "inputs": [
        {
          "internalType": "uint256[]",
          "name": "compactedValues",
          "type": "uint256[]"
        },
        {
          "internalType": "uint256",
          "name": "index",
          "type": "uint256"
        },
        {
          "internalType": "uint256",
          "name": "slotIndex",
          "type": "uint256"
        },
        {
          "internalType": "string",
          "name": "label",
          "type": "string"
        }
      ],
      "name": "CompactedArrayOutOfBounds",
      "type": "error"
    },
    {
      "inputs": [
        {
          "internalType": "uint256",
          "name": "index",
          "type": "uint256"
        },
        {
          "internalType": "string",
          "name": "label",
          "type": "string"
        }
      ],
      "name": "DuplicatedIndex",
      "type": "error"
    },
    {
      "inputs": [
        {
          "internalType": "uint256",
          "name": "index",
          "type": "uint256"
        }
      ],
      "name": "EmptyCompactedBlockNumber",
      "type": "error"
    },
    {
      "inputs": [
        {
          "internalType": "uint256",
          "name": "index",
          "type": "uint256"
        }
      ],
      "name": "EmptyCompactedPrice",
      "type": "error"
    },
    {
      "inputs": [
        {
          "internalType": "uint256",
          "name": "index",
          "type": "uint256"
        }
      ],
      "name": "EmptyCompactedTimestamp",
      "type": "error"
    },
    {
      "inputs": [
        {
          "internalType": "address",
          "name": "recoveredSigner",
          "type": "address"
        },
        {
          "internalType": "address",
          "name": "expectedSigner",
          "type": "address"
        }
      ],
      "name": "InvalidSignature",
      "type": "error"
    },
    {
      "inputs": [
        {
          "internalType": "uint256",
          "name": "index",
          "type": "uint256"
        },
        {
          "internalType": "string",
          "name": "label",
          "type": "string"
        }
      ],
      "name": "MaskIndexOutOfBounds",
      "type": "error"
    },
    {
      "anonymous": false,
      "inputs": [
        {
          "indexed": false,
          "internalType": "string",
          "name": "reason",
          "type": "string"
        }
      ],
      "name": "OracleError",
      "type": "event"
    },
    {
      "inputs": [
        {
          "internalType": "contract DataStore",
          "name": "dataStore",
          "type": "address"
        },
        {
          "components": [
            {
              "internalType": "uint256",
              "name": "signerInfo",
              "type": "uint256"
            },
            {
              "internalType": "address[]",
              "name": "tokens",
              "type": "address[]"
            },
            {
              "internalType": "uint256[]",
              "name": "compactedMinOracleBlockNumbers",
              "type": "uint256[]"
            },
            {
              "internalType": "uint256[]",
              "name": "compactedMaxOracleBlockNumbers",
              "type": "uint256[]"
            },
            {
              "internalType": "uint256[]",
              "name": "compactedOracleTimestamps",
              "type": "uint256[]"
            },
            {
              "internalType": "uint256[]",
              "name": "compactedDecimals",
              "type": "uint256[]"
            },
            {
              "internalType": "uint256[]",
              "name": "compactedMinPrices",
              "type": "uint256[]"
            },
            {
              "internalType": "uint256[]",
              "name": "compactedMinPricesIndexes",
              "type": "uint256[]"
            },
            {
              "internalType": "uint256[]",
              "name": "compactedMaxPrices",
              "type": "uint256[]"
            },
            {
              "internalType": "uint256[]",
              "name": "compactedMaxPricesIndexes",
              "type": "uint256[]"
            },
            {
              "internalType": "bytes[]",
              "name": "signatures",
              "type": "bytes[]"
            },
            {
              "internalType": "address[]",
              "name": "priceFeedTokens",
              "type": "address[]"
            }
          ],
          "internalType": "struct OracleUtils.SetPricesParams",
          "name": "params",
          "type": "tuple"
        }
      ],
      "name": "getReportInfo",
      "outputs": [
        {
          "components": [
            {
              "internalType": "uint256",
              "name": "minOracleBlockNumber",
              "type": "uint256"
            },
            {
              "internalType": "uint256",
              "name": "maxOracleBlockNumber",
              "type": "uint256"
            },
            {
              "internalType": "uint256",
              "name": "oracleTimestamp",
              "type": "uint256"
            },
            {
              "internalType": "bytes32",
              "name": "blockHash",
              "type": "bytes32"
            },
            {
              "internalType": "address",
              "name": "token",
              "type": "address"
            },
            {
              "internalType": "bytes32",
              "name": "tokenOracleType",
              "type": "bytes32"
            },
            {
              "internalType": "uint256",
              "name": "precision",
              "type": "uint256"
            },
            {
              "internalType": "uint256",
              "name": "minPrice",
              "type": "uint256"
            },
            {
              "internalType": "uint256",
              "name": "maxPrice",
              "type": "uint256"
            }
          ],
          "internalType": "struct OracleUtils.ReportInfo[]",
          "name": "",
          "type": "tuple[]"
        }
      ],
      "stateMutability": "view",
      "type": "function"
    },
    {
      "inputs": [],
      "name": "getSalt",
      "outputs": [
        {
          "internalType": "bytes32",
          "name": "",
          "type": "bytes32"
        }
      ],
      "stateMutability": "view",
      "type": "function"
    },
    {
      "inputs": [
        {
          "internalType": "contract DataStore",
          "name": "dataStore",
          "type": "address"
        },
        {
          "internalType": "address",
          "name": "token",
          "type": "address"
        }
      ],
      "name": "getTokenOracleType",
      "outputs": [
        {
          "internalType": "bytes32",
          "name": "",
          "type": "bytes32"
        }
      ],
      "stateMutability": "view",
      "type": "function"
    },
    {
      "inputs": [
        {
          "components": [
            {
              "internalType": "uint256",
              "name": "minOracleBlockNumber",
              "type": "uint256"
            },
            {
              "internalType": "uint256",
              "name": "maxOracleBlockNumber",
              "type": "uint256"
            },
            {
              "internalType": "uint256",
              "name": "oracleTimestamp",
              "type": "uint256"
            },
            {
              "internalType": "bytes32",
              "name": "blockHash",
              "type": "bytes32"
            },
            {
              "internalType": "address",
              "name": "token",
              "type": "address"
            },
            {
              "internalType": "bytes32",
              "name": "tokenOracleType",
              "type": "bytes32"
            },
            {
              "internalType": "uint256",
              "name": "precision",
              "type": "uint256"
            },
            {
              "internalType": "uint256",
              "name": "minPrice",
              "type": "uint256"
            },
            {
              "internalType": "uint256",
              "name": "maxPrice",
              "type": "uint256"
            }
          ],
          "internalType": "struct OracleUtils.ReportInfo",
          "name": "info",
          "type": "tuple"
        },
        {
          "internalType": "bytes",
          "name": "signature",
          "type": "bytes"
        },
        {
          "internalType": "address",
          "name": "expectedSigner",
          "type": "address"
        }
      ],
      "name": "validateSigner",
      "outputs": [],
      "stateMutability": "view",
      "type": "function"
    },
    {
      "inputs": [
        {
          "internalType": "bytes32",
          "name": "SALT",
          "type": "bytes32"
        },
        {
          "components": [
            {
              "internalType": "uint256",
              "name": "minOracleBlockNumber",
              "type": "uint256"
            },
            {
              "internalType": "uint256",
              "name": "maxOracleBlockNumber",
              "type": "uint256"
            },
            {
              "internalType": "uint256",
              "name": "oracleTimestamp",
              "type": "uint256"
            },
            {
              "internalType": "bytes32",
              "name": "blockHash",
              "type": "bytes32"
            },
            {
              "internalType": "address",
              "name": "token",
              "type": "address"
            },
            {
              "internalType": "bytes32",
              "name": "tokenOracleType",
              "type": "bytes32"
            },
            {
              "internalType": "uint256",
              "name": "precision",
              "type": "uint256"
            },
            {
              "internalType": "uint256",
              "name": "minPrice",
              "type": "uint256"
            },
            {
              "internalType": "uint256",
              "name": "maxPrice",
              "type": "uint256"
            }
          ],
          "internalType": "struct OracleUtils.ReportInfo",
          "name": "info",
          "type": "tuple"
        },
        {
          "internalType": "bytes",
          "name": "signature",
          "type": "bytes"
        },
        {
          "internalType": "address",
          "name": "expectedSigner",
          "type": "address"
        }
      ],
      "name": "validateSignerWithSalt",
      "outputs": [],
      "stateMutability": "pure",
      "type": "function"
    },
    {
      "inputs": [
        {
          "internalType": "contract Oracle",
          "name": "oracle",
          "type": "address"
        },
        {
          "internalType": "contract DataStore",
          "name": "dataStore",
          "type": "address"
        },
        {
          "internalType": "contract EventEmitter",
          "name": "eventEmitter",
          "type": "address"
        },
        {
          "components": [
            {
              "internalType": "uint256",
              "name": "signerInfo",
              "type": "uint256"
            },
            {
              "internalType": "address[]",
              "name": "tokens",
              "type": "address[]"
            },
            {
              "internalType": "uint256[]",
              "name": "compactedMinOracleBlockNumbers",
              "type": "uint256[]"
            },
            {
              "internalType": "uint256[]",
              "name": "compactedMaxOracleBlockNumbers",
              "type": "uint256[]"
            },
            {
              "internalType": "uint256[]",
              "name": "compactedOracleTimestamps",
              "type": "uint256[]"
            },
            {
              "internalType": "uint256[]",
              "name": "compactedDecimals",
              "type": "uint256[]"
            },
            {
              "internalType": "uint256[]",
              "name": "compactedMinPrices",
              "type": "uint256[]"
            },
            {
              "internalType": "uint256[]",
              "name": "compactedMinPricesIndexes",
              "type": "uint256[]"
            },
            {
              "internalType": "uint256[]",
              "name": "compactedMaxPrices",
              "type": "uint256[]"
            },
            {
              "internalType": "uint256[]",
              "name": "compactedMaxPricesIndexes",
              "type": "uint256[]"
            },
            {
              "internalType": "bytes[]",
              "name": "signatures",
              "type": "bytes[]"
            },
            {
              "internalType": "address[]",
              "name": "priceFeedTokens",
              "type": "address[]"
            }
          ],
          "internalType": "struct OracleUtils.SetPricesParams",
          "name": "oracleParams",
          "type": "tuple"
        }
      ],
      "name": "withOraclePricesTest",
      "outputs": [],
      "stateMutability": "nonpayable",
      "type": "function"
    }
  ],
  "bytecode": "0x608060405234801561001057600080fd5b50611c3f806100206000396000f3fe608060405234801561001057600080fd5b50600436106100625760003560e01c806308b684101461006757806313a9589c1461007c5780631de2781f146100975780637913b39a146100b7578063a3ebe46d146100ca578063cc758e2d146100dd575b600080fd5b61007a610075366004611480565b6100f0565b005b6100846101b2565b6040519081526020015b60405180910390f35b6100aa6100a53660046114f4565b610208565b60405161008e9190611543565b6100846100c53660046115e4565b61060a565b61007a6100d836600461169d565b61068a565b61007a6100eb36600461170a565b61069c565b83838383836001600160a01b031663df0268118484846040518463ffffffff1660e01b815260040161012493929190611881565b600060405180830381600087803b15801561013e57600080fd5b505af1158015610152573d6000803e3d6000fd5b50505050836001600160a01b031662ccf1556040518163ffffffff1660e01b8152600401600060405180830381600087803b15801561019057600080fd5b505af11580156101a4573d6000803e3d6000fd5b505050505050505050505050565b6000466040516020016101ed918152604060208201819052600e908201526d786765742d6f7261636c652d763160901b606082015260800190565b60405160208183030381529060405280519060200120905090565b606060008260200151516001600160401b0381111561022957610229611030565b60405190808252806020026020018201604052801561026257816020015b61024f610f54565b8152602001906001900390816102475790505b50905060005b8360200151518110156106005761027d610faf565b610285610f54565b6102938660400151846106b4565b815260608601516102a490846106b4565b602082015260808601516102b8908461072b565b604082015260208601518051849081106102d4576102d46119fc565b60209081029190910101516001600160a01b0316608082015260a08601516102fc908461079d565b61030790600a611b0c565b60c082015260808101516001600160a01b0388169063a6ed563e9061032b906107e9565b6040518263ffffffff1660e01b815260040161034991815260200190565b602060405180830381865afa158015610366573d6000803e3d6000fd5b505050506040513d601f19601f8201168201806040525081019061038a9190611b18565b60a0820152805160ff9061039c610865565b6103a69190611b31565b116103bc5780516103b6906108e1565b60608201525b60408051600180825281830190925290602080830190803683375050506080830152604080516001808252818301909252906020808301908036833750505060a083015260005b600181101561049b5780610418856001611b44565b6104229190611b5b565b80845260c088015161043391610956565b83608001518281518110610449576104496119fc565b6020026020010181815250506104688761010001518460000151610956565b8360a00151828151811061047e5761047e6119fc565b60209081029190910101528061049381611b6e565b915050610403565b5060005b60018110156105cc57806104b4856001611b44565b6104be9190611b5b565b6020840181905260e08801516104d3916109be565b604084015261012087015160208401516104ed91906109be565b60608401526040808401518151808301909252600d82526c0dad2dca0e4d2c6ca92dcc8caf609b1b602083015260c085015161052b92909190610a05565b606083015160408051808201909152600d81526c0dac2f0a0e4d2c6ca92dcc8caf609b1b602082015260e0850151610564929091610a05565b826080015183604001518151811061057e5761057e6119fc565b60200260200101518260e00181815250508260a001518360600151815181106105a9576105a96119fc565b6020908102919091010151610100830152806105c481611b6e565b91505061049f565b50808484815181106105e0576105e06119fc565b6020026020010181905250505080806105f890611b6e565b915050610268565b5090505b92915050565b6000826001600160a01b031663a6ed563e610624846107e9565b6040518263ffffffff1660e01b815260040161064291815260200190565b602060405180830381865afa15801561065f573d6000803e3d6000fd5b505050506040513d601f19601f820116820180604052508101906106839190611b18565b9392505050565b61069684848484610a60565b50505050565b6106af6106a76101b2565b848484610a60565b505050565b6000806107008484604060c0600019901c6040518060400160405280601f81526020017f676574556e636f6d7061637465644f7261636c65426c6f636b4e756d62657200815250610b6e565b9050806000036106835760405163349f5fdd60e11b8152600481018490526024015b60405180910390fd5b6000806107778484604060c0600019901c6040518060400160405280601d81526020017f676574556e636f6d7061637465644f7261636c6554696d657374616d70000000815250610b6e565b90508060000361068357604051639ffb34e960e01b815260048101849052602401610722565b6000806107e18484600860f8600019901c6040518060400160405280601581526020017419d95d155b98dbdb5c1858dd1959111958da5b585b605a1b815250610b6e565b949350505050565b600060405160200161081a906020808252600b908201526a4f5241434c455f5459504560a81b604082015260600190565b60408051601f198184030181528282528051602091820120908301526001600160a01b038416908201526060015b604051602081830303815290604052805190602001209050919050565b600061086f610c0b565b156108dc5760646001600160a01b031663a3b1b31d6040518163ffffffff1660e01b8152600401602060405180830381865afa1580156108b3573d6000803e3d6000fd5b505050506040513d601f19601f820116820180604052508101906108d79190611b18565b905090565b504390565b60006108eb610c0b565b15610951576040516315a03d4160e11b815260048101839052606490632b407a8290602401602060405180830381865afa15801561092d573d6000803e3d6000fd5b505050506040513d601f19601f820116820180604052508101906106049190611b18565b504090565b6000806109988484602060e0600019901c60405180604001604052806013815260200172676574556e636f6d706163746564507269636560681b815250610b6e565b90508060000361068357604051630554193160e21b815260048101849052602401610722565b6000806107e18484600860f8600019901c604051806040016040528060188152602001770cecae8aadcc6dedae0c2c6e8cac8a0e4d2c6ca92dcc8caf60431b815250610b6e565b6101008210610a2b578181604051630a1f10ab60e11b8152600401610722929190611b87565b82516001831b90811615610a5657828260405163d406473760e01b8152600401610722929190611b87565b8351179092525050565b6000610b1185856000015186602001518760400151886060015189608001518a60a001518b60c001518c60e001518d6101000151604051602001610af69a99989796959493929190998a5260208a01989098526040890196909652606088019490945260808701929092526001600160a01b031660a086015260c085015260e08401526101008301526101208201526101400190565b60405160208183030381529060405280519060200120610c22565b90506000610b1f8285610c5c565b9050826001600160a01b0316816001600160a01b031614610b66576040516310b5d43760e21b81526001600160a01b03808316600483015284166024820152604401610722565b505050505050565b600080610b7d85610100611ba0565b90506000610b8b8288611ba0565b905087518110610bb6578787828660405163bdec9c0d60e01b81526004016107229493929190611bc2565b6000888281518110610bca57610bca6119fc565b602002602001015190506000878484610be39190611b44565b610bed908b611b31565b610bf79190611b44565b9190911c8616935050505095945050505050565b600061a4b14614806108d75750504662066eed1490565b6040517b0ca2ba3432b932bab69029b4b3b732b21026b2b9b9b0b3b29d05199960211b6020820152603c8101829052600090605c01610848565b6000806000610c6b8585610c78565b9150915061060081610cbd565b6000808251604103610cae5760208301516040840151606085015160001a610ca287828585610e71565b94509450505050610cb6565b506000905060025b9250929050565b6000816004811115610cd157610cd1611bf3565b03610cd95750565b6001816004811115610ced57610ced611bf3565b03610d355760405162461bcd60e51b815260206004820152601860248201527745434453413a20696e76616c6964207369676e617475726560401b6044820152606401610722565b6002816004811115610d4957610d49611bf3565b03610d965760405162461bcd60e51b815260206004820152601f60248201527f45434453413a20696e76616c6964207369676e6174757265206c656e677468006044820152606401610722565b6003816004811115610daa57610daa611bf3565b03610e025760405162461bcd60e51b815260206004820152602260248201527f45434453413a20696e76616c6964207369676e6174757265202773272076616c604482015261756560f01b6064820152608401610722565b6004816004811115610e1657610e16611bf3565b03610e6e5760405162461bcd60e51b815260206004820152602260248201527f45434453413a20696e76616c6964207369676e6174757265202776272076616c604482015261756560f01b6064820152608401610722565b50565b6000806fa2a8918ca85bafe22016d0b997e4df60600160ff1b03831115610e9e5750600090506003610f4b565b8460ff16601b14158015610eb657508460ff16601c14155b15610ec75750600090506004610f4b565b6040805160008082526020820180845289905260ff881692820192909252606081018690526080810185905260019060a0016020604051602081039080840390855afa158015610f1b573d6000803e3d6000fd5b5050604051601f1901519150506001600160a01b038116610f4457600060019250925050610f4b565b9150600090505b94509492505050565b6040518061012001604052806000815260200160008152602001600081526020016000801916815260200160006001600160a01b03168152602001600080191681526020016000815260200160008152602001600081525090565b604051806101000160405280600081526020016000815260200160008152602001600081526020016060815260200160608152602001610ffb6040518060200160405280600081525090565b81526020016110166040518060200160405280600081525090565b905290565b6001600160a01b0381168114610e6e57600080fd5b634e487b7160e01b600052604160045260246000fd5b60405161018081016001600160401b038111828210171561106957611069611030565b60405290565b60405161012081016001600160401b038111828210171561106957611069611030565b604051601f8201601f191681016001600160401b03811182821017156110ba576110ba611030565b604052919050565b60006001600160401b038211156110db576110db611030565b5060051b60200190565b80356110f08161101b565b919050565b600082601f83011261110657600080fd5b8135602061111b611116836110c2565b611092565b82815260059290921b8401810191818101908684111561113a57600080fd5b8286015b8481101561115e5780356111518161101b565b835291830191830161113e565b509695505050505050565b600082601f83011261117a57600080fd5b8135602061118a611116836110c2565b82815260059290921b840181019181810190868411156111a957600080fd5b8286015b8481101561115e57803583529183019183016111ad565b600082601f8301126111d557600080fd5b81356001600160401b038111156111ee576111ee611030565b611201601f8201601f1916602001611092565b81815284602083860101111561121657600080fd5b816020850160208301376000918101602001919091529392505050565b600082601f83011261124457600080fd5b81356020611254611116836110c2565b82815260059290921b8401810191818101908684111561127357600080fd5b8286015b8481101561115e5780356001600160401b038111156112965760008081fd5b6112a48986838b01016111c4565b845250918301918301611277565b600061018082840312156112c557600080fd5b6112cd611046565b82358152905060208201356001600160401b03808211156112ed57600080fd5b6112f9858386016110f5565b6020840152604084013591508082111561131257600080fd5b61131e85838601611169565b6040840152606084013591508082111561133757600080fd5b61134385838601611169565b6060840152608084013591508082111561135c57600080fd5b61136885838601611169565b608084015260a084013591508082111561138157600080fd5b61138d85838601611169565b60a084015260c08401359150808211156113a657600080fd5b6113b285838601611169565b60c084015260e08401359150808211156113cb57600080fd5b6113d785838601611169565b60e0840152610100915081840135818111156113f257600080fd5b6113fe86828701611169565b83850152506101209150818401358181111561141957600080fd5b61142586828701611169565b83850152506101409150818401358181111561144057600080fd5b61144c86828701611233565b83850152506101609150818401358181111561146757600080fd5b611473868287016110f5565b8385015250505092915050565b6000806000806080858703121561149657600080fd5b84356114a18161101b565b935060208501356114b18161101b565b925060408501356114c18161101b565b915060608501356001600160401b038111156114dc57600080fd5b6114e8878288016112b2565b91505092959194509250565b6000806040838503121561150757600080fd5b82356115128161101b565b915060208301356001600160401b0381111561152d57600080fd5b611539858286016112b2565b9150509250929050565b602080825282518282018190526000919060409081850190868401855b828110156115d75781518051855286810151878601528581015186860152606080820151908601526080808201516001600160a01b03169086015260a0808201519086015260c0808201519086015260e0808201519086015261010090810151908501526101209093019290850190600101611560565b5091979650505050505050565b600080604083850312156115f757600080fd5b82356116028161101b565b915060208301356116128161101b565b809150509250929050565b6000610120828403121561163057600080fd5b61163861106f565b905081358152602082013560208201526040820135604082015260608201356060820152611668608083016110e5565b608082015260a082013560a082015260c082013560c082015260e082013560e082015261010080830135818301525092915050565b60008060008061018085870312156116b457600080fd5b843593506116c5866020870161161d565b92506101408501356001600160401b038111156116e157600080fd5b6116ed878288016111c4565b9250506101608501356116ff8161101b565b939692955090935050565b6000806000610160848603121561172057600080fd5b61172a858561161d565b92506101208401356001600160401b0381111561174657600080fd5b611752868287016111c4565b9250506101408401356117648161101b565b809150509250925092565b600081518084526020808501945080840160005b838110156117a85781516001600160a01b031687529582019590820190600101611783565b509495945050505050565b600081518084526020808501945080840160005b838110156117a8578151875295820195908201906001016117c7565b6000815180845260005b81811015611809576020818501810151868301820152016117ed565b506000602082860101526020601f19601f83011685010191505092915050565b600082825180855260208086019550808260051b84010181860160005b8481101561187457601f198684030189526118628383516117e3565b98840198925090830190600101611846565b5090979650505050505050565b600060018060a01b038086168352808516602084015250606060408301528251606083015260208301516101808060808501526118c26101e085018361176f565b91506040850151605f19808685030160a08701526118e084836117b3565b935060608701519150808685030160c08701526118fd84836117b3565b935060808701519150808685030160e087015261191a84836117b3565b935060a0870151915061010081878603018188015261193985846117b3565b945060c0880151925061012082888703018189015261195886856117b3565b955060e089015193506101408389880301818a015261197787866117b3565b9650828a0151945061016092508389880301838a015261199787866117b3565b9650818a015194508389880301868a01526119b287866117b3565b9650808a01519550505081878603016101a08801526119d18585611829565b94508088015193505080868503016101c087015250506119f1828261176f565b979650505050505050565b634e487b7160e01b600052603260045260246000fd5b634e487b7160e01b600052601160045260246000fd5b600181815b80851115611a63578160001904821115611a4957611a49611a12565b80851615611a5657918102915b93841c9390800290611a2d565b509250929050565b600082611a7a57506001610604565b81611a8757506000610604565b8160018114611a9d5760028114611aa757611ac3565b6001915050610604565b60ff841115611ab857611ab8611a12565b50506001821b610604565b5060208310610133831016604e8410600b8410161715611ae6575081810a610604565b611af08383611a28565b8060001904821115611b0457611b04611a12565b029392505050565b60006106838383611a6b565b600060208284031215611b2a57600080fd5b5051919050565b8181038181111561060457610604611a12565b808202811582820484141761060457610604611a12565b8082018082111561060457610604611a12565b600060018201611b8057611b80611a12565b5060010190565b8281526040602082015260006107e160408301846117e3565b600082611bbd57634e487b7160e01b600052601260045260246000fd5b500490565b608081526000611bd560808301876117b3565b85602084015284604084015282810360608401526119f181856117e3565b634e487b7160e01b600052602160045260246000fdfea26469706673582212209c0cd81a75364fc55309cdf0d62f369cf69a5edd0d8fe9c400bb4281011f15fd64736f6c63430008120033",
  "linkReferences": {},
  "deployedLinkReferences": {}
}